{
	"test.sol": {
		"Storage": {
			"abi": [
				{
					"inputs": [
						{
							"internalType": "uint256",
							"name": "",
							"type": "uint256"
						}
					],
					"name": "_arrayOfNumber",
					"outputs": [
						{
							"internalType": "uint256",
							"name": "",
							"type": "uint256"
						}
					],
					"stateMutability": "view",
					"type": "function"
				},
				{
					"inputs": [
						{
							"internalType": "uint256",
							"name": "",
							"type": "uint256"
						}
					],
					"name": "_fixedArrayOfNumber",
					"outputs": [
						{
							"internalType": "uint256",
							"name": "",
							"type": "uint256"
						}
					],
					"stateMutability": "view",
					"type": "function"
				},
				{
					"inputs": [
						{
							"internalType": "string",
							"name": "name",
							"type": "string"
						},
						{
							"internalType": "uint256",
							"name": "_number",
							"type": "uint256"
						}
					],
					"name": "addNumberForName",
					"outputs": [],
					"stateMutability": "nonpayable",
					"type": "function"
				},
				{
					"inputs": [
						{
							"internalType": "uint256",
							"name": "",
							"type": "uint256"
						}
					],
					"name": "dynamicArrayOfPerson",
					"outputs": [
						{
							"internalType": "string",
							"name": "name",
							"type": "string"
						},
						{
							"internalType": "uint256",
							"name": "number",
							"type": "uint256"
						}
					],
					"stateMutability": "view",
					"type": "function"
				},
				{
					"inputs": [
						{
							"internalType": "string",
							"name": "name",
							"type": "string"
						}
					],
					"name": "nameToNumber",
					"outputs": [
						{
							"internalType": "uint256",
							"name": "number",
							"type": "uint256"
						}
					],
					"stateMutability": "view",
					"type": "function"
				},
				{
					"inputs": [
						{
							"internalType": "uint256",
							"name": "newNumber",
							"type": "uint256"
						}
					],
					"name": "pushToArrayOfNumer",
					"outputs": [],
					"stateMutability": "nonpayable",
					"type": "function"
				},
				{
					"inputs": [
						{
							"internalType": "string",
							"name": "name",
							"type": "string"
						},
						{
							"internalType": "uint256",
							"name": "newNumber",
							"type": "uint256"
						}
					],
					"name": "pushToDynamicArrayOfPerson",
					"outputs": [],
					"stateMutability": "nonpayable",
					"type": "function"
				},
				{
					"inputs": [
						{
							"internalType": "uint256",
							"name": "index",
							"type": "uint256"
						},
						{
							"internalType": "uint256",
							"name": "newNumber",
							"type": "uint256"
						}
					],
					"name": "pushToFixedArrayOfNumer",
					"outputs": [],
					"stateMutability": "nonpayable",
					"type": "function"
				}
			],
			"devdoc": {
				"kind": "dev",
				"methods": {},
				"version": 1
			},
			"evm": {
				"assembly": "    /* \"test.sol\":62:1007  contract Storage {... */\n  mstore(0x40, 0x80)\n  callvalue\n  dup1\n  iszero\n  tag_1\n  jumpi\n  revert(0x00, 0x00)\ntag_1:\n  pop\n  dataSize(sub_0)\n  dup1\n  dataOffset(sub_0)\n  0x00\n  codecopy\n  0x00\n  return\nstop\n\nsub_0: assembly {\n        /* \"test.sol\":62:1007  contract Storage {... */\n      mstore(0x40, 0x80)\n      callvalue\n      dup1\n      iszero\n      tag_1\n      jumpi\n      revert(0x00, 0x00)\n    tag_1:\n      pop\n      jumpi(tag_2, lt(calldatasize, 0x04))\n      shr(0xe0, calldataload(0x00))\n      dup1\n      0x61d1e7d5\n      gt\n      tag_11\n      jumpi\n      dup1\n      0x61d1e7d5\n      eq\n      tag_7\n      jumpi\n      dup1\n      0x95623ec4\n      eq\n      tag_8\n      jumpi\n      dup1\n      0x9b66e0ef\n      eq\n      tag_9\n      jumpi\n      dup1\n      0xea08f61f\n      eq\n      tag_10\n      jumpi\n      jump(tag_2)\n    tag_11:\n      dup1\n      0x0c578799\n      eq\n      tag_3\n      jumpi\n      dup1\n      0x246a960a\n      eq\n      tag_4\n      jumpi\n      dup1\n      0x2fae4ffd\n      eq\n      tag_5\n      jumpi\n      dup1\n      0x60323a78\n      eq\n      tag_6\n      jumpi\n    tag_2:\n      revert(0x00, 0x00)\n        /* \"test.sol\":117:148  uint256[] public _arrayOfNumber */\n    tag_3:\n      tag_12\n      0x04\n      dup1\n      calldatasize\n      sub\n      dup2\n      add\n      swap1\n      tag_13\n      swap2\n      swap1\n      tag_14\n      jump\t// in\n    tag_13:\n      tag_15\n      jump\t// in\n    tag_12:\n      mload(0x40)\n      tag_16\n      swap2\n      swap1\n      tag_17\n      jump\t// in\n    tag_16:\n      mload(0x40)\n      dup1\n      swap2\n      sub\n      swap1\n      return\n        /* \"test.sol\":888:1005  function addNumberForName (string memory name, uint256 _number) public  {... */\n    tag_4:\n      tag_18\n      0x04\n      dup1\n      calldatasize\n      sub\n      dup2\n      add\n      swap1\n      tag_19\n      swap2\n      swap1\n      tag_20\n      jump\t// in\n    tag_19:\n      tag_21\n      jump\t// in\n    tag_18:\n      stop\n        /* \"test.sol\":313:371  mapping(string name => uint256 number) public nameToNumber */\n    tag_5:\n      tag_22\n      0x04\n      dup1\n      calldatasize\n      sub\n      dup2\n      add\n      swap1\n      tag_23\n      swap2\n      swap1\n      tag_24\n      jump\t// in\n    tag_23:\n      tag_25\n      jump\t// in\n    tag_22:\n      mload(0x40)\n      tag_26\n      swap2\n      swap1\n      tag_17\n      jump\t// in\n    tag_26:\n      mload(0x40)\n      dup1\n      swap2\n      sub\n      swap1\n      return\n        /* \"test.sol\":583:712  function pushToFixedArrayOfNumer(uint256 index,uint256 newNumber) public  {... */\n    tag_6:\n      tag_27\n      0x04\n      dup1\n      calldatasize\n      sub\n      dup2\n      add\n      swap1\n      tag_28\n      swap2\n      swap1\n      tag_29\n      jump\t// in\n    tag_28:\n      tag_30\n      jump\t// in\n    tag_27:\n      stop\n        /* \"test.sol\":719:882  function pushToDynamicArrayOfPerson (string memory name,uint256 newNumber) public  {... */\n    tag_7:\n      tag_31\n      0x04\n      dup1\n      calldatasize\n      sub\n      dup2\n      add\n      swap1\n      tag_32\n      swap2\n      swap1\n      tag_20\n      jump\t// in\n    tag_32:\n      tag_33\n      jump\t// in\n    tag_31:\n      stop\n        /* \"test.sol\":154:191  uint256[5] public _fixedArrayOfNumber */\n    tag_8:\n      tag_34\n      0x04\n      dup1\n      calldatasize\n      sub\n      dup2\n      add\n      swap1\n      tag_35\n      swap2\n      swap1\n      tag_14\n      jump\t// in\n    tag_35:\n      tag_36\n      jump\t// in\n    tag_34:\n      mload(0x40)\n      tag_37\n      swap2\n      swap1\n      tag_17\n      jump\t// in\n    tag_37:\n      mload(0x40)\n      dup1\n      swap2\n      sub\n      swap1\n      return\n        /* \"test.sol\":270:306  Person[] public dynamicArrayOfPerson */\n    tag_9:\n      tag_38\n      0x04\n      dup1\n      calldatasize\n      sub\n      dup2\n      add\n      swap1\n      tag_39\n      swap2\n      swap1\n      tag_14\n      jump\t// in\n    tag_39:\n      tag_40\n      jump\t// in\n    tag_38:\n      mload(0x40)\n      tag_41\n      swap3\n      swap2\n      swap1\n      tag_42\n      jump\t// in\n    tag_41:\n      mload(0x40)\n      dup1\n      swap2\n      sub\n      swap1\n      return\n        /* \"test.sol\":474:576  function pushToArrayOfNumer(uint256 newNumber) public  {... */\n    tag_10:\n      tag_43\n      0x04\n      dup1\n      calldatasize\n      sub\n      dup2\n      add\n      swap1\n      tag_44\n      swap2\n      swap1\n      tag_14\n      jump\t// in\n    tag_44:\n      tag_45\n      jump\t// in\n    tag_43:\n      stop\n        /* \"test.sol\":117:148  uint256[] public _arrayOfNumber */\n    tag_15:\n      0x00\n      dup2\n      dup2\n      sload\n      dup2\n      lt\n      tag_46\n      jumpi\n      0x00\n      dup1\n      revert\n    tag_46:\n      swap1\n      0x00\n      mstore\n      keccak256(0x00, 0x20)\n      add\n      0x00\n      swap2\n      pop\n      swap1\n      pop\n      sload\n      dup2\n      jump\t// out\n        /* \"test.sol\":888:1005  function addNumberForName (string memory name, uint256 _number) public  {... */\n    tag_21:\n        /* \"test.sol\":991:998  _number */\n      dup1\n        /* \"test.sol\":970:982  nameToNumber */\n      0x07\n        /* \"test.sol\":983:987  name */\n      dup4\n        /* \"test.sol\":970:988  nameToNumber[name] */\n      mload(0x40)\n      tag_49\n      swap2\n      swap1\n      tag_50\n      jump\t// in\n    tag_49:\n      swap1\n      dup2\n      mstore\n      0x20\n      add\n      mload(0x40)\n      dup1\n      swap2\n      sub\n      swap1\n      keccak256\n        /* \"test.sol\":970:998  nameToNumber[name] = _number */\n      dup2\n      swap1\n      sstore\n      pop\n        /* \"test.sol\":888:1005  function addNumberForName (string memory name, uint256 _number) public  {... */\n      pop\n      pop\n      jump\t// out\n        /* \"test.sol\":313:371  mapping(string name => uint256 number) public nameToNumber */\n    tag_25:\n      0x07\n      dup2\n      dup1\n      mload\n      0x20\n      dup2\n      add\n      dup3\n      add\n      dup1\n      mload\n      dup5\n      dup3\n      mstore\n      0x20\n      dup4\n      add\n      0x20\n      dup6\n      add\n      keccak256\n      dup2\n      dup4\n      mstore\n      dup1\n      swap6\n      pop\n      pop\n      pop\n      pop\n      pop\n      pop\n      0x00\n      swap2\n      pop\n      swap1\n      pop\n      sload\n      dup2\n      jump\t// out\n        /* \"test.sol\":583:712  function pushToFixedArrayOfNumer(uint256 index,uint256 newNumber) public  {... */\n    tag_30:\n        /* \"test.sol\":696:705  newNumber */\n      dup1\n        /* \"test.sol\":667:686  _fixedArrayOfNumber */\n      0x01\n        /* \"test.sol\":687:692  index */\n      dup4\n        /* \"test.sol\":667:693  _fixedArrayOfNumber[index] */\n      0x05\n      dup2\n      lt\n      tag_52\n      jumpi\n      tag_53\n      tag_54\n      jump\t// in\n    tag_53:\n    tag_52:\n      add\n        /* \"test.sol\":667:705  _fixedArrayOfNumber[index] = newNumber */\n      dup2\n      swap1\n      sstore\n      pop\n        /* \"test.sol\":583:712  function pushToFixedArrayOfNumer(uint256 index,uint256 newNumber) public  {... */\n      pop\n      pop\n      jump\t// out\n        /* \"test.sol\":719:882  function pushToDynamicArrayOfPerson (string memory name,uint256 newNumber) public  {... */\n    tag_33:\n        /* \"test.sol\":812:832  dynamicArrayOfPerson */\n      0x06\n        /* \"test.sol\":838:874  Person({name:name,number:newNumber}) */\n      mload(0x40)\n      dup1\n      0x40\n      add\n      0x40\n      mstore\n      dup1\n        /* \"test.sol\":851:855  name */\n      dup5\n        /* \"test.sol\":838:874  Person({name:name,number:newNumber}) */\n      dup2\n      mstore\n      0x20\n      add\n        /* \"test.sol\":863:872  newNumber */\n      dup4\n        /* \"test.sol\":838:874  Person({name:name,number:newNumber}) */\n      dup2\n      mstore\n      pop\n        /* \"test.sol\":812:875  dynamicArrayOfPerson.push(Person({name:name,number:newNumber})) */\n      swap1\n      dup1\n      0x01\n      dup2\n      sload\n      add\n      dup1\n      dup3\n      sstore\n      dup1\n      swap2\n      pop\n      pop\n      0x01\n      swap1\n      sub\n      swap1\n      0x00\n      mstore\n      keccak256(0x00, 0x20)\n      swap1\n      0x02\n      mul\n      add\n      0x00\n      swap1\n      swap2\n      swap1\n      swap2\n      swap1\n      swap2\n      pop\n      0x00\n      dup3\n      add\n      mload\n      dup2\n      0x00\n      add\n      swap1\n      dup2\n      tag_58\n      swap2\n      swap1\n      tag_59\n      jump\t// in\n    tag_58:\n      pop\n      0x20\n      dup3\n      add\n      mload\n      dup2\n      0x01\n      add\n      sstore\n      pop\n      pop\n        /* \"test.sol\":719:882  function pushToDynamicArrayOfPerson (string memory name,uint256 newNumber) public  {... */\n      pop\n      pop\n      jump\t// out\n        /* \"test.sol\":154:191  uint256[5] public _fixedArrayOfNumber */\n    tag_36:\n      0x01\n      dup2\n      0x05\n      dup2\n      lt\n      tag_60\n      jumpi\n      0x00\n      dup1\n      revert\n    tag_60:\n      add\n      0x00\n      swap2\n      pop\n      swap1\n      pop\n      sload\n      dup2\n      jump\t// out\n        /* \"test.sol\":270:306  Person[] public dynamicArrayOfPerson */\n    tag_40:\n      0x06\n      dup2\n      dup2\n      sload\n      dup2\n      lt\n      tag_62\n      jumpi\n      0x00\n      dup1\n      revert\n    tag_62:\n      swap1\n      0x00\n      mstore\n      keccak256(0x00, 0x20)\n      swap1\n      0x02\n      mul\n      add\n      0x00\n      swap2\n      pop\n      swap1\n      pop\n      dup1\n      0x00\n      add\n      dup1\n      sload\n      tag_64\n      swap1\n      tag_65\n      jump\t// in\n    tag_64:\n      dup1\n      0x1f\n      add\n      0x20\n      dup1\n      swap2\n      div\n      mul\n      0x20\n      add\n      mload(0x40)\n      swap1\n      dup2\n      add\n      0x40\n      mstore\n      dup1\n      swap3\n      swap2\n      swap1\n      dup2\n      dup2\n      mstore\n      0x20\n      add\n      dup3\n      dup1\n      sload\n      tag_66\n      swap1\n      tag_65\n      jump\t// in\n    tag_66:\n      dup1\n      iszero\n      tag_67\n      jumpi\n      dup1\n      0x1f\n      lt\n      tag_68\n      jumpi\n      0x0100\n      dup1\n      dup4\n      sload\n      div\n      mul\n      dup4\n      mstore\n      swap2\n      0x20\n      add\n      swap2\n      jump(tag_67)\n    tag_68:\n      dup3\n      add\n      swap2\n      swap1\n      0x00\n      mstore\n      keccak256(0x00, 0x20)\n      swap1\n    tag_69:\n      dup2\n      sload\n      dup2\n      mstore\n      swap1\n      0x01\n      add\n      swap1\n      0x20\n      add\n      dup1\n      dup4\n      gt\n      tag_69\n      jumpi\n      dup3\n      swap1\n      sub\n      0x1f\n      and\n      dup3\n      add\n      swap2\n    tag_67:\n      pop\n      pop\n      pop\n      pop\n      pop\n      swap1\n      dup1\n      0x01\n      add\n      sload\n      swap1\n      pop\n      dup3\n      jump\t// out\n        /* \"test.sol\":474:576  function pushToArrayOfNumer(uint256 newNumber) public  {... */\n    tag_45:\n        /* \"test.sol\":539:553  _arrayOfNumber */\n      0x00\n        /* \"test.sol\":559:568  newNumber */\n      dup2\n        /* \"test.sol\":539:569  _arrayOfNumber.push(newNumber) */\n      swap1\n      dup1\n      0x01\n      dup2\n      sload\n      add\n      dup1\n      dup3\n      sstore\n      dup1\n      swap2\n      pop\n      pop\n      0x01\n      swap1\n      sub\n      swap1\n      0x00\n      mstore\n      keccak256(0x00, 0x20)\n      add\n      0x00\n      swap1\n      swap2\n      swap1\n      swap2\n      swap1\n      swap2\n      pop\n      sstore\n        /* \"test.sol\":474:576  function pushToArrayOfNumer(uint256 newNumber) public  {... */\n      pop\n      jump\t// out\n        /* \"#utility.yul\":7:82   */\n    tag_72:\n        /* \"#utility.yul\":40:46   */\n      0x00\n        /* \"#utility.yul\":73:75   */\n      0x40\n        /* \"#utility.yul\":67:76   */\n      mload\n        /* \"#utility.yul\":57:76   */\n      swap1\n      pop\n        /* \"#utility.yul\":7:82   */\n      swap1\n      jump\t// out\n        /* \"#utility.yul\":88:205   */\n    tag_73:\n        /* \"#utility.yul\":197:198   */\n      0x00\n        /* \"#utility.yul\":194:195   */\n      0x00\n        /* \"#utility.yul\":187:199   */\n      revert\n        /* \"#utility.yul\":211:328   */\n    tag_74:\n        /* \"#utility.yul\":320:321   */\n      0x00\n        /* \"#utility.yul\":317:318   */\n      0x00\n        /* \"#utility.yul\":310:322   */\n      revert\n        /* \"#utility.yul\":334:411   */\n    tag_75:\n        /* \"#utility.yul\":371:378   */\n      0x00\n        /* \"#utility.yul\":400:405   */\n      dup2\n        /* \"#utility.yul\":389:405   */\n      swap1\n      pop\n        /* \"#utility.yul\":334:411   */\n      swap2\n      swap1\n      pop\n      jump\t// out\n        /* \"#utility.yul\":417:539   */\n    tag_76:\n        /* \"#utility.yul\":490:514   */\n      tag_117\n        /* \"#utility.yul\":508:513   */\n      dup2\n        /* \"#utility.yul\":490:514   */\n      tag_75\n      jump\t// in\n    tag_117:\n        /* \"#utility.yul\":483:488   */\n      dup2\n        /* \"#utility.yul\":480:515   */\n      eq\n        /* \"#utility.yul\":470:533   */\n      tag_118\n      jumpi\n        /* \"#utility.yul\":529:530   */\n      0x00\n        /* \"#utility.yul\":526:527   */\n      0x00\n        /* \"#utility.yul\":519:531   */\n      revert\n        /* \"#utility.yul\":470:533   */\n    tag_118:\n        /* \"#utility.yul\":417:539   */\n      pop\n      jump\t// out\n        /* \"#utility.yul\":545:684   */\n    tag_77:\n        /* \"#utility.yul\":591:596   */\n      0x00\n        /* \"#utility.yul\":629:635   */\n      dup2\n        /* \"#utility.yul\":616:636   */\n      calldataload\n        /* \"#utility.yul\":607:636   */\n      swap1\n      pop\n        /* \"#utility.yul\":645:678   */\n      tag_120\n        /* \"#utility.yul\":672:677   */\n      dup2\n        /* \"#utility.yul\":645:678   */\n      tag_76\n      jump\t// in\n    tag_120:\n        /* \"#utility.yul\":545:684   */\n      swap3\n      swap2\n      pop\n      pop\n      jump\t// out\n        /* \"#utility.yul\":690:1019   */\n    tag_14:\n        /* \"#utility.yul\":749:755   */\n      0x00\n        /* \"#utility.yul\":798:800   */\n      0x20\n        /* \"#utility.yul\":786:795   */\n      dup3\n        /* \"#utility.yul\":777:784   */\n      dup5\n        /* \"#utility.yul\":773:796   */\n      sub\n        /* \"#utility.yul\":769:801   */\n      slt\n        /* \"#utility.yul\":766:885   */\n      iszero\n      tag_122\n      jumpi\n        /* \"#utility.yul\":804:883   */\n      tag_123\n      tag_73\n      jump\t// in\n    tag_123:\n        /* \"#utility.yul\":766:885   */\n    tag_122:\n        /* \"#utility.yul\":924:925   */\n      0x00\n        /* \"#utility.yul\":949:1002   */\n      tag_124\n        /* \"#utility.yul\":994:1001   */\n      dup5\n        /* \"#utility.yul\":985:991   */\n      dup3\n        /* \"#utility.yul\":974:983   */\n      dup6\n        /* \"#utility.yul\":970:992   */\n      add\n        /* \"#utility.yul\":949:1002   */\n      tag_77\n      jump\t// in\n    tag_124:\n        /* \"#utility.yul\":939:1002   */\n      swap2\n      pop\n        /* \"#utility.yul\":895:1012   */\n      pop\n        /* \"#utility.yul\":690:1019   */\n      swap3\n      swap2\n      pop\n      pop\n      jump\t// out\n        /* \"#utility.yul\":1025:1143   */\n    tag_78:\n        /* \"#utility.yul\":1112:1136   */\n      tag_126\n        /* \"#utility.yul\":1130:1135   */\n      dup2\n        /* \"#utility.yul\":1112:1136   */\n      tag_75\n      jump\t// in\n    tag_126:\n        /* \"#utility.yul\":1107:1110   */\n      dup3\n        /* \"#utility.yul\":1100:1137   */\n      mstore\n        /* \"#utility.yul\":1025:1143   */\n      pop\n      pop\n      jump\t// out\n        /* \"#utility.yul\":1149:1371   */\n    tag_17:\n        /* \"#utility.yul\":1242:1246   */\n      0x00\n        /* \"#utility.yul\":1280:1282   */\n      0x20\n        /* \"#utility.yul\":1269:1278   */\n      dup3\n        /* \"#utility.yul\":1265:1283   */\n      add\n        /* \"#utility.yul\":1257:1283   */\n      swap1\n      pop\n        /* \"#utility.yul\":1293:1364   */\n      tag_128\n        /* \"#utility.yul\":1361:1362   */\n      0x00\n        /* \"#utility.yul\":1350:1359   */\n      dup4\n        /* \"#utility.yul\":1346:1363   */\n      add\n        /* \"#utility.yul\":1337:1343   */\n      dup5\n        /* \"#utility.yul\":1293:1364   */\n      tag_78\n      jump\t// in\n    tag_128:\n        /* \"#utility.yul\":1149:1371   */\n      swap3\n      swap2\n      pop\n      pop\n      jump\t// out\n        /* \"#utility.yul\":1377:1494   */\n    tag_79:\n        /* \"#utility.yul\":1486:1487   */\n      0x00\n        /* \"#utility.yul\":1483:1484   */\n      0x00\n        /* \"#utility.yul\":1476:1488   */\n      revert\n        /* \"#utility.yul\":1500:1617   */\n    tag_80:\n        /* \"#utility.yul\":1609:1610   */\n      0x00\n        /* \"#utility.yul\":1606:1607   */\n      0x00\n        /* \"#utility.yul\":1599:1611   */\n      revert\n        /* \"#utility.yul\":1623:1725   */\n    tag_81:\n        /* \"#utility.yul\":1664:1670   */\n      0x00\n        /* \"#utility.yul\":1715:1717   */\n      0x1f\n        /* \"#utility.yul\":1711:1718   */\n      not\n        /* \"#utility.yul\":1706:1708   */\n      0x1f\n        /* \"#utility.yul\":1699:1704   */\n      dup4\n        /* \"#utility.yul\":1695:1709   */\n      add\n        /* \"#utility.yul\":1691:1719   */\n      and\n        /* \"#utility.yul\":1681:1719   */\n      swap1\n      pop\n        /* \"#utility.yul\":1623:1725   */\n      swap2\n      swap1\n      pop\n      jump\t// out\n        /* \"#utility.yul\":1731:1911   */\n    tag_82:\n        /* \"#utility.yul\":1779:1856   */\n      0x4e487b7100000000000000000000000000000000000000000000000000000000\n        /* \"#utility.yul\":1776:1777   */\n      0x00\n        /* \"#utility.yul\":1769:1857   */\n      mstore\n        /* \"#utility.yul\":1876:1880   */\n      0x41\n        /* \"#utility.yul\":1873:1874   */\n      0x04\n        /* \"#utility.yul\":1866:1881   */\n      mstore\n        /* \"#utility.yul\":1900:1904   */\n      0x24\n        /* \"#utility.yul\":1897:1898   */\n      0x00\n        /* \"#utility.yul\":1890:1905   */\n      revert\n        /* \"#utility.yul\":1917:2198   */\n    tag_83:\n        /* \"#utility.yul\":2000:2027   */\n      tag_134\n        /* \"#utility.yul\":2022:2026   */\n      dup3\n        /* \"#utility.yul\":2000:2027   */\n      tag_81\n      jump\t// in\n    tag_134:\n        /* \"#utility.yul\":1992:1998   */\n      dup2\n        /* \"#utility.yul\":1988:2028   */\n      add\n        /* \"#utility.yul\":2130:2136   */\n      dup2\n        /* \"#utility.yul\":2118:2128   */\n      dup2\n        /* \"#utility.yul\":2115:2137   */\n      lt\n        /* \"#utility.yul\":2094:2112   */\n      0xffffffffffffffff\n        /* \"#utility.yul\":2082:2092   */\n      dup3\n        /* \"#utility.yul\":2079:2113   */\n      gt\n        /* \"#utility.yul\":2076:2138   */\n      or\n        /* \"#utility.yul\":2073:2161   */\n      iszero\n      tag_135\n      jumpi\n        /* \"#utility.yul\":2141:2159   */\n      tag_136\n      tag_82\n      jump\t// in\n    tag_136:\n        /* \"#utility.yul\":2073:2161   */\n    tag_135:\n        /* \"#utility.yul\":2181:2191   */\n      dup1\n        /* \"#utility.yul\":2177:2179   */\n      0x40\n        /* \"#utility.yul\":2170:2192   */\n      mstore\n        /* \"#utility.yul\":1960:2198   */\n      pop\n        /* \"#utility.yul\":1917:2198   */\n      pop\n      pop\n      jump\t// out\n        /* \"#utility.yul\":2204:2333   */\n    tag_84:\n        /* \"#utility.yul\":2238:2244   */\n      0x00\n        /* \"#utility.yul\":2265:2285   */\n      tag_138\n      tag_72\n      jump\t// in\n    tag_138:\n        /* \"#utility.yul\":2255:2285   */\n      swap1\n      pop\n        /* \"#utility.yul\":2294:2327   */\n      tag_139\n        /* \"#utility.yul\":2322:2326   */\n      dup3\n        /* \"#utility.yul\":2314:2320   */\n      dup3\n        /* \"#utility.yul\":2294:2327   */\n      tag_83\n      jump\t// in\n    tag_139:\n        /* \"#utility.yul\":2204:2333   */\n      swap2\n      swap1\n      pop\n      jump\t// out\n        /* \"#utility.yul\":2339:2647   */\n    tag_85:\n        /* \"#utility.yul\":2401:2405   */\n      0x00\n        /* \"#utility.yul\":2491:2509   */\n      0xffffffffffffffff\n        /* \"#utility.yul\":2483:2489   */\n      dup3\n        /* \"#utility.yul\":2480:2510   */\n      gt\n        /* \"#utility.yul\":2477:2533   */\n      iszero\n      tag_141\n      jumpi\n        /* \"#utility.yul\":2513:2531   */\n      tag_142\n      tag_82\n      jump\t// in\n    tag_142:\n        /* \"#utility.yul\":2477:2533   */\n    tag_141:\n        /* \"#utility.yul\":2551:2580   */\n      tag_143\n        /* \"#utility.yul\":2573:2579   */\n      dup3\n        /* \"#utility.yul\":2551:2580   */\n      tag_81\n      jump\t// in\n    tag_143:\n        /* \"#utility.yul\":2543:2580   */\n      swap1\n      pop\n        /* \"#utility.yul\":2635:2639   */\n      0x20\n        /* \"#utility.yul\":2629:2633   */\n      dup2\n        /* \"#utility.yul\":2625:2640   */\n      add\n        /* \"#utility.yul\":2617:2640   */\n      swap1\n      pop\n        /* \"#utility.yul\":2339:2647   */\n      swap2\n      swap1\n      pop\n      jump\t// out\n        /* \"#utility.yul\":2653:2801   */\n    tag_86:\n        /* \"#utility.yul\":2751:2757   */\n      dup3\n        /* \"#utility.yul\":2746:2749   */\n      dup2\n        /* \"#utility.yul\":2741:2744   */\n      dup4\n        /* \"#utility.yul\":2728:2758   */\n      calldatacopy\n        /* \"#utility.yul\":2792:2793   */\n      0x00\n        /* \"#utility.yul\":2783:2789   */\n      dup4\n        /* \"#utility.yul\":2778:2781   */\n      dup4\n        /* \"#utility.yul\":2774:2790   */\n      add\n        /* \"#utility.yul\":2767:2794   */\n      mstore\n        /* \"#utility.yul\":2653:2801   */\n      pop\n      pop\n      pop\n      jump\t// out\n        /* \"#utility.yul\":2807:3232   */\n    tag_87:\n        /* \"#utility.yul\":2885:2890   */\n      0x00\n        /* \"#utility.yul\":2910:2976   */\n      tag_146\n        /* \"#utility.yul\":2926:2975   */\n      tag_147\n        /* \"#utility.yul\":2968:2974   */\n      dup5\n        /* \"#utility.yul\":2926:2975   */\n      tag_85\n      jump\t// in\n    tag_147:\n        /* \"#utility.yul\":2910:2976   */\n      tag_84\n      jump\t// in\n    tag_146:\n        /* \"#utility.yul\":2901:2976   */\n      swap1\n      pop\n        /* \"#utility.yul\":2999:3005   */\n      dup3\n        /* \"#utility.yul\":2992:2997   */\n      dup2\n        /* \"#utility.yul\":2985:3006   */\n      mstore\n        /* \"#utility.yul\":3037:3041   */\n      0x20\n        /* \"#utility.yul\":3030:3035   */\n      dup2\n        /* \"#utility.yul\":3026:3042   */\n      add\n        /* \"#utility.yul\":3075:3078   */\n      dup5\n        /* \"#utility.yul\":3066:3072   */\n      dup5\n        /* \"#utility.yul\":3061:3064   */\n      dup5\n        /* \"#utility.yul\":3057:3073   */\n      add\n        /* \"#utility.yul\":3054:3079   */\n      gt\n        /* \"#utility.yul\":3051:3163   */\n      iszero\n      tag_148\n      jumpi\n        /* \"#utility.yul\":3082:3161   */\n      tag_149\n      tag_80\n      jump\t// in\n    tag_149:\n        /* \"#utility.yul\":3051:3163   */\n    tag_148:\n        /* \"#utility.yul\":3172:3226   */\n      tag_150\n        /* \"#utility.yul\":3219:3225   */\n      dup5\n        /* \"#utility.yul\":3214:3217   */\n      dup3\n        /* \"#utility.yul\":3209:3212   */\n      dup6\n        /* \"#utility.yul\":3172:3226   */\n      tag_86\n      jump\t// in\n    tag_150:\n        /* \"#utility.yul\":2891:3232   */\n      pop\n        /* \"#utility.yul\":2807:3232   */\n      swap4\n      swap3\n      pop\n      pop\n      pop\n      jump\t// out\n        /* \"#utility.yul\":3252:3592   */\n    tag_88:\n        /* \"#utility.yul\":3308:3313   */\n      0x00\n        /* \"#utility.yul\":3357:3360   */\n      dup3\n        /* \"#utility.yul\":3350:3354   */\n      0x1f\n        /* \"#utility.yul\":3342:3348   */\n      dup4\n        /* \"#utility.yul\":3338:3355   */\n      add\n        /* \"#utility.yul\":3334:3361   */\n      slt\n        /* \"#utility.yul\":3324:3446   */\n      tag_152\n      jumpi\n        /* \"#utility.yul\":3365:3444   */\n      tag_153\n      tag_79\n      jump\t// in\n    tag_153:\n        /* \"#utility.yul\":3324:3446   */\n    tag_152:\n        /* \"#utility.yul\":3482:3488   */\n      dup2\n        /* \"#utility.yul\":3469:3489   */\n      calldataload\n        /* \"#utility.yul\":3507:3586   */\n      tag_154\n        /* \"#utility.yul\":3582:3585   */\n      dup5\n        /* \"#utility.yul\":3574:3580   */\n      dup3\n        /* \"#utility.yul\":3567:3571   */\n      0x20\n        /* \"#utility.yul\":3559:3565   */\n      dup7\n        /* \"#utility.yul\":3555:3572   */\n      add\n        /* \"#utility.yul\":3507:3586   */\n      tag_87\n      jump\t// in\n    tag_154:\n        /* \"#utility.yul\":3498:3586   */\n      swap2\n      pop\n        /* \"#utility.yul\":3314:3592   */\n      pop\n        /* \"#utility.yul\":3252:3592   */\n      swap3\n      swap2\n      pop\n      pop\n      jump\t// out\n        /* \"#utility.yul\":3598:4252   */\n    tag_20:\n        /* \"#utility.yul\":3676:3682   */\n      0x00\n        /* \"#utility.yul\":3684:3690   */\n      0x00\n        /* \"#utility.yul\":3733:3735   */\n      0x40\n        /* \"#utility.yul\":3721:3730   */\n      dup4\n        /* \"#utility.yul\":3712:3719   */\n      dup6\n        /* \"#utility.yul\":3708:3731   */\n      sub\n        /* \"#utility.yul\":3704:3736   */\n      slt\n        /* \"#utility.yul\":3701:3820   */\n      iszero\n      tag_156\n      jumpi\n        /* \"#utility.yul\":3739:3818   */\n      tag_157\n      tag_73\n      jump\t// in\n    tag_157:\n        /* \"#utility.yul\":3701:3820   */\n    tag_156:\n        /* \"#utility.yul\":3887:3888   */\n      0x00\n        /* \"#utility.yul\":3876:3885   */\n      dup4\n        /* \"#utility.yul\":3872:3889   */\n      add\n        /* \"#utility.yul\":3859:3890   */\n      calldataload\n        /* \"#utility.yul\":3917:3935   */\n      0xffffffffffffffff\n        /* \"#utility.yul\":3909:3915   */\n      dup2\n        /* \"#utility.yul\":3906:3936   */\n      gt\n        /* \"#utility.yul\":3903:4020   */\n      iszero\n      tag_158\n      jumpi\n        /* \"#utility.yul\":3939:4018   */\n      tag_159\n      tag_74\n      jump\t// in\n    tag_159:\n        /* \"#utility.yul\":3903:4020   */\n    tag_158:\n        /* \"#utility.yul\":4044:4107   */\n      tag_160\n        /* \"#utility.yul\":4099:4106   */\n      dup6\n        /* \"#utility.yul\":4090:4096   */\n      dup3\n        /* \"#utility.yul\":4079:4088   */\n      dup7\n        /* \"#utility.yul\":4075:4097   */\n      add\n        /* \"#utility.yul\":4044:4107   */\n      tag_88\n      jump\t// in\n    tag_160:\n        /* \"#utility.yul\":4034:4107   */\n      swap3\n      pop\n        /* \"#utility.yul\":3830:4117   */\n      pop\n        /* \"#utility.yul\":4156:4158   */\n      0x20\n        /* \"#utility.yul\":4182:4235   */\n      tag_161\n        /* \"#utility.yul\":4227:4234   */\n      dup6\n        /* \"#utility.yul\":4218:4224   */\n      dup3\n        /* \"#utility.yul\":4207:4216   */\n      dup7\n        /* \"#utility.yul\":4203:4225   */\n      add\n        /* \"#utility.yul\":4182:4235   */\n      tag_77\n      jump\t// in\n    tag_161:\n        /* \"#utility.yul\":4172:4235   */\n      swap2\n      pop\n        /* \"#utility.yul\":4127:4245   */\n      pop\n        /* \"#utility.yul\":3598:4252   */\n      swap3\n      pop\n      swap3\n      swap1\n      pop\n      jump\t// out\n        /* \"#utility.yul\":4258:4767   */\n    tag_24:\n        /* \"#utility.yul\":4327:4333   */\n      0x00\n        /* \"#utility.yul\":4376:4378   */\n      0x20\n        /* \"#utility.yul\":4364:4373   */\n      dup3\n        /* \"#utility.yul\":4355:4362   */\n      dup5\n        /* \"#utility.yul\":4351:4374   */\n      sub\n        /* \"#utility.yul\":4347:4379   */\n      slt\n        /* \"#utility.yul\":4344:4463   */\n      iszero\n      tag_163\n      jumpi\n        /* \"#utility.yul\":4382:4461   */\n      tag_164\n      tag_73\n      jump\t// in\n    tag_164:\n        /* \"#utility.yul\":4344:4463   */\n    tag_163:\n        /* \"#utility.yul\":4530:4531   */\n      0x00\n        /* \"#utility.yul\":4519:4528   */\n      dup3\n        /* \"#utility.yul\":4515:4532   */\n      add\n        /* \"#utility.yul\":4502:4533   */\n      calldataload\n        /* \"#utility.yul\":4560:4578   */\n      0xffffffffffffffff\n        /* \"#utility.yul\":4552:4558   */\n      dup2\n        /* \"#utility.yul\":4549:4579   */\n      gt\n        /* \"#utility.yul\":4546:4663   */\n      iszero\n      tag_165\n      jumpi\n        /* \"#utility.yul\":4582:4661   */\n      tag_166\n      tag_74\n      jump\t// in\n    tag_166:\n        /* \"#utility.yul\":4546:4663   */\n    tag_165:\n        /* \"#utility.yul\":4687:4750   */\n      tag_167\n        /* \"#utility.yul\":4742:4749   */\n      dup5\n        /* \"#utility.yul\":4733:4739   */\n      dup3\n        /* \"#utility.yul\":4722:4731   */\n      dup6\n        /* \"#utility.yul\":4718:4740   */\n      add\n        /* \"#utility.yul\":4687:4750   */\n      tag_88\n      jump\t// in\n    tag_167:\n        /* \"#utility.yul\":4677:4750   */\n      swap2\n      pop\n        /* \"#utility.yul\":4473:4760   */\n      pop\n        /* \"#utility.yul\":4258:4767   */\n      swap3\n      swap2\n      pop\n      pop\n      jump\t// out\n        /* \"#utility.yul\":4773:5247   */\n    tag_29:\n        /* \"#utility.yul\":4841:4847   */\n      0x00\n        /* \"#utility.yul\":4849:4855   */\n      0x00\n        /* \"#utility.yul\":4898:4900   */\n      0x40\n        /* \"#utility.yul\":4886:4895   */\n      dup4\n        /* \"#utility.yul\":4877:4884   */\n      dup6\n        /* \"#utility.yul\":4873:4896   */\n      sub\n        /* \"#utility.yul\":4869:4901   */\n      slt\n        /* \"#utility.yul\":4866:4985   */\n      iszero\n      tag_169\n      jumpi\n        /* \"#utility.yul\":4904:4983   */\n      tag_170\n      tag_73\n      jump\t// in\n    tag_170:\n        /* \"#utility.yul\":4866:4985   */\n    tag_169:\n        /* \"#utility.yul\":5024:5025   */\n      0x00\n        /* \"#utility.yul\":5049:5102   */\n      tag_171\n        /* \"#utility.yul\":5094:5101   */\n      dup6\n        /* \"#utility.yul\":5085:5091   */\n      dup3\n        /* \"#utility.yul\":5074:5083   */\n      dup7\n        /* \"#utility.yul\":5070:5092   */\n      add\n        /* \"#utility.yul\":5049:5102   */\n      tag_77\n      jump\t// in\n    tag_171:\n        /* \"#utility.yul\":5039:5102   */\n      swap3\n      pop\n        /* \"#utility.yul\":4995:5112   */\n      pop\n        /* \"#utility.yul\":5151:5153   */\n      0x20\n        /* \"#utility.yul\":5177:5230   */\n      tag_172\n        /* \"#utility.yul\":5222:5229   */\n      dup6\n        /* \"#utility.yul\":5213:5219   */\n      dup3\n        /* \"#utility.yul\":5202:5211   */\n      dup7\n        /* \"#utility.yul\":5198:5220   */\n      add\n        /* \"#utility.yul\":5177:5230   */\n      tag_77\n      jump\t// in\n    tag_172:\n        /* \"#utility.yul\":5167:5230   */\n      swap2\n      pop\n        /* \"#utility.yul\":5122:5240   */\n      pop\n        /* \"#utility.yul\":4773:5247   */\n      swap3\n      pop\n      swap3\n      swap1\n      pop\n      jump\t// out\n        /* \"#utility.yul\":5253:5352   */\n    tag_89:\n        /* \"#utility.yul\":5305:5311   */\n      0x00\n        /* \"#utility.yul\":5339:5344   */\n      dup2\n        /* \"#utility.yul\":5333:5345   */\n      mload\n        /* \"#utility.yul\":5323:5345   */\n      swap1\n      pop\n        /* \"#utility.yul\":5253:5352   */\n      swap2\n      swap1\n      pop\n      jump\t// out\n        /* \"#utility.yul\":5358:5527   */\n    tag_90:\n        /* \"#utility.yul\":5442:5453   */\n      0x00\n        /* \"#utility.yul\":5476:5482   */\n      dup3\n        /* \"#utility.yul\":5471:5474   */\n      dup3\n        /* \"#utility.yul\":5464:5483   */\n      mstore\n        /* \"#utility.yul\":5516:5520   */\n      0x20\n        /* \"#utility.yul\":5511:5514   */\n      dup3\n        /* \"#utility.yul\":5507:5521   */\n      add\n        /* \"#utility.yul\":5492:5521   */\n      swap1\n      pop\n        /* \"#utility.yul\":5358:5527   */\n      swap3\n      swap2\n      pop\n      pop\n      jump\t// out\n        /* \"#utility.yul\":5533:5672   */\n    tag_91:\n        /* \"#utility.yul\":5622:5628   */\n      dup3\n        /* \"#utility.yul\":5617:5620   */\n      dup2\n        /* \"#utility.yul\":5612:5615   */\n      dup4\n        /* \"#utility.yul\":5606:5629   */\n      mcopy\n        /* \"#utility.yul\":5663:5664   */\n      0x00\n        /* \"#utility.yul\":5654:5660   */\n      dup4\n        /* \"#utility.yul\":5649:5652   */\n      dup4\n        /* \"#utility.yul\":5645:5661   */\n      add\n        /* \"#utility.yul\":5638:5665   */\n      mstore\n        /* \"#utility.yul\":5533:5672   */\n      pop\n      pop\n      pop\n      jump\t// out\n        /* \"#utility.yul\":5678:6055   */\n    tag_92:\n        /* \"#utility.yul\":5766:5769   */\n      0x00\n        /* \"#utility.yul\":5794:5833   */\n      tag_177\n        /* \"#utility.yul\":5827:5832   */\n      dup3\n        /* \"#utility.yul\":5794:5833   */\n      tag_89\n      jump\t// in\n    tag_177:\n        /* \"#utility.yul\":5849:5920   */\n      tag_178\n        /* \"#utility.yul\":5913:5919   */\n      dup2\n        /* \"#utility.yul\":5908:5911   */\n      dup6\n        /* \"#utility.yul\":5849:5920   */\n      tag_90\n      jump\t// in\n    tag_178:\n        /* \"#utility.yul\":5842:5920   */\n      swap4\n      pop\n        /* \"#utility.yul\":5929:5994   */\n      tag_179\n        /* \"#utility.yul\":5987:5993   */\n      dup2\n        /* \"#utility.yul\":5982:5985   */\n      dup6\n        /* \"#utility.yul\":5975:5979   */\n      0x20\n        /* \"#utility.yul\":5968:5973   */\n      dup7\n        /* \"#utility.yul\":5964:5980   */\n      add\n        /* \"#utility.yul\":5929:5994   */\n      tag_91\n      jump\t// in\n    tag_179:\n        /* \"#utility.yul\":6019:6048   */\n      tag_180\n        /* \"#utility.yul\":6041:6047   */\n      dup2\n        /* \"#utility.yul\":6019:6048   */\n      tag_81\n      jump\t// in\n    tag_180:\n        /* \"#utility.yul\":6014:6017   */\n      dup5\n        /* \"#utility.yul\":6010:6049   */\n      add\n        /* \"#utility.yul\":6003:6049   */\n      swap2\n      pop\n        /* \"#utility.yul\":5770:6055   */\n      pop\n        /* \"#utility.yul\":5678:6055   */\n      swap3\n      swap2\n      pop\n      pop\n      jump\t// out\n        /* \"#utility.yul\":6061:6484   */\n    tag_42:\n        /* \"#utility.yul\":6202:6206   */\n      0x00\n        /* \"#utility.yul\":6240:6242   */\n      0x40\n        /* \"#utility.yul\":6229:6238   */\n      dup3\n        /* \"#utility.yul\":6225:6243   */\n      add\n        /* \"#utility.yul\":6217:6243   */\n      swap1\n      pop\n        /* \"#utility.yul\":6289:6298   */\n      dup2\n        /* \"#utility.yul\":6283:6287   */\n      dup2\n        /* \"#utility.yul\":6279:6299   */\n      sub\n        /* \"#utility.yul\":6275:6276   */\n      0x00\n        /* \"#utility.yul\":6264:6273   */\n      dup4\n        /* \"#utility.yul\":6260:6277   */\n      add\n        /* \"#utility.yul\":6253:6300   */\n      mstore\n        /* \"#utility.yul\":6317:6395   */\n      tag_182\n        /* \"#utility.yul\":6390:6394   */\n      dup2\n        /* \"#utility.yul\":6381:6387   */\n      dup6\n        /* \"#utility.yul\":6317:6395   */\n      tag_92\n      jump\t// in\n    tag_182:\n        /* \"#utility.yul\":6309:6395   */\n      swap1\n      pop\n        /* \"#utility.yul\":6405:6477   */\n      tag_183\n        /* \"#utility.yul\":6473:6475   */\n      0x20\n        /* \"#utility.yul\":6462:6471   */\n      dup4\n        /* \"#utility.yul\":6458:6476   */\n      add\n        /* \"#utility.yul\":6449:6455   */\n      dup5\n        /* \"#utility.yul\":6405:6477   */\n      tag_78\n      jump\t// in\n    tag_183:\n        /* \"#utility.yul\":6061:6484   */\n      swap4\n      swap3\n      pop\n      pop\n      pop\n      jump\t// out\n        /* \"#utility.yul\":6490:6638   */\n    tag_93:\n        /* \"#utility.yul\":6592:6603   */\n      0x00\n        /* \"#utility.yul\":6629:6632   */\n      dup2\n        /* \"#utility.yul\":6614:6632   */\n      swap1\n      pop\n        /* \"#utility.yul\":6490:6638   */\n      swap3\n      swap2\n      pop\n      pop\n      jump\t// out\n        /* \"#utility.yul\":6644:7034   */\n    tag_94:\n        /* \"#utility.yul\":6750:6753   */\n      0x00\n        /* \"#utility.yul\":6778:6817   */\n      tag_186\n        /* \"#utility.yul\":6811:6816   */\n      dup3\n        /* \"#utility.yul\":6778:6817   */\n      tag_89\n      jump\t// in\n    tag_186:\n        /* \"#utility.yul\":6833:6922   */\n      tag_187\n        /* \"#utility.yul\":6915:6921   */\n      dup2\n        /* \"#utility.yul\":6910:6913   */\n      dup6\n        /* \"#utility.yul\":6833:6922   */\n      tag_93\n      jump\t// in\n    tag_187:\n        /* \"#utility.yul\":6826:6922   */\n      swap4\n      pop\n        /* \"#utility.yul\":6931:6996   */\n      tag_188\n        /* \"#utility.yul\":6989:6995   */\n      dup2\n        /* \"#utility.yul\":6984:6987   */\n      dup6\n        /* \"#utility.yul\":6977:6981   */\n      0x20\n        /* \"#utility.yul\":6970:6975   */\n      dup7\n        /* \"#utility.yul\":6966:6982   */\n      add\n        /* \"#utility.yul\":6931:6996   */\n      tag_91\n      jump\t// in\n    tag_188:\n        /* \"#utility.yul\":7021:7027   */\n      dup1\n        /* \"#utility.yul\":7016:7019   */\n      dup5\n        /* \"#utility.yul\":7012:7028   */\n      add\n        /* \"#utility.yul\":7005:7028   */\n      swap2\n      pop\n        /* \"#utility.yul\":6754:7034   */\n      pop\n        /* \"#utility.yul\":6644:7034   */\n      swap3\n      swap2\n      pop\n      pop\n      jump\t// out\n        /* \"#utility.yul\":7040:7315   */\n    tag_50:\n        /* \"#utility.yul\":7172:7175   */\n      0x00\n        /* \"#utility.yul\":7194:7289   */\n      tag_190\n        /* \"#utility.yul\":7285:7288   */\n      dup3\n        /* \"#utility.yul\":7276:7282   */\n      dup5\n        /* \"#utility.yul\":7194:7289   */\n      tag_94\n      jump\t// in\n    tag_190:\n        /* \"#utility.yul\":7187:7289   */\n      swap2\n      pop\n        /* \"#utility.yul\":7306:7309   */\n      dup2\n        /* \"#utility.yul\":7299:7309   */\n      swap1\n      pop\n        /* \"#utility.yul\":7040:7315   */\n      swap3\n      swap2\n      pop\n      pop\n      jump\t// out\n        /* \"#utility.yul\":7321:7501   */\n    tag_54:\n        /* \"#utility.yul\":7369:7446   */\n      0x4e487b7100000000000000000000000000000000000000000000000000000000\n        /* \"#utility.yul\":7366:7367   */\n      0x00\n        /* \"#utility.yul\":7359:7447   */\n      mstore\n        /* \"#utility.yul\":7466:7470   */\n      0x32\n        /* \"#utility.yul\":7463:7464   */\n      0x04\n        /* \"#utility.yul\":7456:7471   */\n      mstore\n        /* \"#utility.yul\":7490:7494   */\n      0x24\n        /* \"#utility.yul\":7487:7488   */\n      0x00\n        /* \"#utility.yul\":7480:7495   */\n      revert\n        /* \"#utility.yul\":7507:7687   */\n    tag_95:\n        /* \"#utility.yul\":7555:7632   */\n      0x4e487b7100000000000000000000000000000000000000000000000000000000\n        /* \"#utility.yul\":7552:7553   */\n      0x00\n        /* \"#utility.yul\":7545:7633   */\n      mstore\n        /* \"#utility.yul\":7652:7656   */\n      0x22\n        /* \"#utility.yul\":7649:7650   */\n      0x04\n        /* \"#utility.yul\":7642:7657   */\n      mstore\n        /* \"#utility.yul\":7676:7680   */\n      0x24\n        /* \"#utility.yul\":7673:7674   */\n      0x00\n        /* \"#utility.yul\":7666:7681   */\n      revert\n        /* \"#utility.yul\":7693:8013   */\n    tag_65:\n        /* \"#utility.yul\":7737:7743   */\n      0x00\n        /* \"#utility.yul\":7774:7775   */\n      0x02\n        /* \"#utility.yul\":7768:7772   */\n      dup3\n        /* \"#utility.yul\":7764:7776   */\n      div\n        /* \"#utility.yul\":7754:7776   */\n      swap1\n      pop\n        /* \"#utility.yul\":7821:7822   */\n      0x01\n        /* \"#utility.yul\":7815:7819   */\n      dup3\n        /* \"#utility.yul\":7811:7823   */\n      and\n        /* \"#utility.yul\":7842:7860   */\n      dup1\n        /* \"#utility.yul\":7832:7913   */\n      tag_194\n      jumpi\n        /* \"#utility.yul\":7898:7902   */\n      0x7f\n        /* \"#utility.yul\":7890:7896   */\n      dup3\n        /* \"#utility.yul\":7886:7903   */\n      and\n        /* \"#utility.yul\":7876:7903   */\n      swap2\n      pop\n        /* \"#utility.yul\":7832:7913   */\n    tag_194:\n        /* \"#utility.yul\":7960:7962   */\n      0x20\n        /* \"#utility.yul\":7952:7958   */\n      dup3\n        /* \"#utility.yul\":7949:7963   */\n      lt\n        /* \"#utility.yul\":7929:7947   */\n      dup2\n        /* \"#utility.yul\":7926:7964   */\n      sub\n        /* \"#utility.yul\":7923:8007   */\n      tag_195\n      jumpi\n        /* \"#utility.yul\":7979:7997   */\n      tag_196\n      tag_95\n      jump\t// in\n    tag_196:\n        /* \"#utility.yul\":7923:8007   */\n    tag_195:\n        /* \"#utility.yul\":7744:8013   */\n      pop\n        /* \"#utility.yul\":7693:8013   */\n      swap2\n      swap1\n      pop\n      jump\t// out\n        /* \"#utility.yul\":8019:8160   */\n    tag_96:\n        /* \"#utility.yul\":8068:8072   */\n      0x00\n        /* \"#utility.yul\":8091:8094   */\n      dup2\n        /* \"#utility.yul\":8083:8094   */\n      swap1\n      pop\n        /* \"#utility.yul\":8114:8117   */\n      dup2\n        /* \"#utility.yul\":8111:8112   */\n      0x00\n        /* \"#utility.yul\":8104:8118   */\n      mstore\n        /* \"#utility.yul\":8148:8152   */\n      0x20\n        /* \"#utility.yul\":8145:8146   */\n      0x00\n        /* \"#utility.yul\":8135:8153   */\n      keccak256\n        /* \"#utility.yul\":8127:8153   */\n      swap1\n      pop\n        /* \"#utility.yul\":8019:8160   */\n      swap2\n      swap1\n      pop\n      jump\t// out\n        /* \"#utility.yul\":8166:8259   */\n    tag_97:\n        /* \"#utility.yul\":8203:8209   */\n      0x00\n        /* \"#utility.yul\":8250:8252   */\n      0x20\n        /* \"#utility.yul\":8245:8247   */\n      0x1f\n        /* \"#utility.yul\":8238:8243   */\n      dup4\n        /* \"#utility.yul\":8234:8248   */\n      add\n        /* \"#utility.yul\":8230:8253   */\n      div\n        /* \"#utility.yul\":8220:8253   */\n      swap1\n      pop\n        /* \"#utility.yul\":8166:8259   */\n      swap2\n      swap1\n      pop\n      jump\t// out\n        /* \"#utility.yul\":8265:8372   */\n    tag_98:\n        /* \"#utility.yul\":8309:8317   */\n      0x00\n        /* \"#utility.yul\":8359:8364   */\n      dup3\n        /* \"#utility.yul\":8353:8357   */\n      dup3\n        /* \"#utility.yul\":8349:8365   */\n      shl\n        /* \"#utility.yul\":8328:8365   */\n      swap1\n      pop\n        /* \"#utility.yul\":8265:8372   */\n      swap3\n      swap2\n      pop\n      pop\n      jump\t// out\n        /* \"#utility.yul\":8378:8771   */\n    tag_99:\n        /* \"#utility.yul\":8447:8453   */\n      0x00\n        /* \"#utility.yul\":8497:8498   */\n      0x08\n        /* \"#utility.yul\":8485:8495   */\n      dup4\n        /* \"#utility.yul\":8481:8499   */\n      mul\n        /* \"#utility.yul\":8520:8617   */\n      tag_201\n        /* \"#utility.yul\":8550:8616   */\n      0xffffffffffffffffffffffffffffffffffffffffffffffffffffffffffffffff\n        /* \"#utility.yul\":8539:8548   */\n      dup3\n        /* \"#utility.yul\":8520:8617   */\n      tag_98\n      jump\t// in\n    tag_201:\n        /* \"#utility.yul\":8638:8677   */\n      tag_202\n        /* \"#utility.yul\":8668:8676   */\n      dup7\n        /* \"#utility.yul\":8657:8666   */\n      dup4\n        /* \"#utility.yul\":8638:8677   */\n      tag_98\n      jump\t// in\n    tag_202:\n        /* \"#utility.yul\":8626:8677   */\n      swap6\n      pop\n        /* \"#utility.yul\":8710:8714   */\n      dup1\n        /* \"#utility.yul\":8706:8715   */\n      not\n        /* \"#utility.yul\":8699:8704   */\n      dup5\n        /* \"#utility.yul\":8695:8716   */\n      and\n        /* \"#utility.yul\":8686:8716   */\n      swap4\n      pop\n        /* \"#utility.yul\":8759:8763   */\n      dup1\n        /* \"#utility.yul\":8749:8757   */\n      dup7\n        /* \"#utility.yul\":8745:8764   */\n      and\n        /* \"#utility.yul\":8738:8743   */\n      dup5\n        /* \"#utility.yul\":8735:8765   */\n      or\n        /* \"#utility.yul\":8725:8765   */\n      swap3\n      pop\n        /* \"#utility.yul\":8454:8771   */\n      pop\n      pop\n        /* \"#utility.yul\":8378:8771   */\n      swap4\n      swap3\n      pop\n      pop\n      pop\n      jump\t// out\n        /* \"#utility.yul\":8777:8837   */\n    tag_100:\n        /* \"#utility.yul\":8805:8808   */\n      0x00\n        /* \"#utility.yul\":8826:8831   */\n      dup2\n        /* \"#utility.yul\":8819:8831   */\n      swap1\n      pop\n        /* \"#utility.yul\":8777:8837   */\n      swap2\n      swap1\n      pop\n      jump\t// out\n        /* \"#utility.yul\":8843:8985   */\n    tag_101:\n        /* \"#utility.yul\":8893:8902   */\n      0x00\n        /* \"#utility.yul\":8926:8979   */\n      tag_205\n        /* \"#utility.yul\":8944:8978   */\n      tag_206\n        /* \"#utility.yul\":8953:8977   */\n      tag_207\n        /* \"#utility.yul\":8971:8976   */\n      dup5\n        /* \"#utility.yul\":8953:8977   */\n      tag_75\n      jump\t// in\n    tag_207:\n        /* \"#utility.yul\":8944:8978   */\n      tag_100\n      jump\t// in\n    tag_206:\n        /* \"#utility.yul\":8926:8979   */\n      tag_75\n      jump\t// in\n    tag_205:\n        /* \"#utility.yul\":8913:8979   */\n      swap1\n      pop\n        /* \"#utility.yul\":8843:8985   */\n      swap2\n      swap1\n      pop\n      jump\t// out\n        /* \"#utility.yul\":8991:9066   */\n    tag_102:\n        /* \"#utility.yul\":9034:9037   */\n      0x00\n        /* \"#utility.yul\":9055:9060   */\n      dup2\n        /* \"#utility.yul\":9048:9060   */\n      swap1\n      pop\n        /* \"#utility.yul\":8991:9066   */\n      swap2\n      swap1\n      pop\n      jump\t// out\n        /* \"#utility.yul\":9072:9341   */\n    tag_103:\n        /* \"#utility.yul\":9182:9221   */\n      tag_210\n        /* \"#utility.yul\":9213:9220   */\n      dup4\n        /* \"#utility.yul\":9182:9221   */\n      tag_101\n      jump\t// in\n    tag_210:\n        /* \"#utility.yul\":9243:9334   */\n      tag_211\n        /* \"#utility.yul\":9292:9333   */\n      tag_212\n        /* \"#utility.yul\":9316:9332   */\n      dup3\n        /* \"#utility.yul\":9292:9333   */\n      tag_102\n      jump\t// in\n    tag_212:\n        /* \"#utility.yul\":9284:9290   */\n      dup5\n        /* \"#utility.yul\":9277:9281   */\n      dup5\n        /* \"#utility.yul\":9271:9282   */\n      sload\n        /* \"#utility.yul\":9243:9334   */\n      tag_99\n      jump\t// in\n    tag_211:\n        /* \"#utility.yul\":9237:9241   */\n      dup3\n        /* \"#utility.yul\":9230:9335   */\n      sstore\n        /* \"#utility.yul\":9148:9341   */\n      pop\n        /* \"#utility.yul\":9072:9341   */\n      pop\n      pop\n      pop\n      jump\t// out\n        /* \"#utility.yul\":9347:9420   */\n    tag_104:\n        /* \"#utility.yul\":9392:9395   */\n      0x00\n        /* \"#utility.yul\":9413:9414   */\n      0x00\n        /* \"#utility.yul\":9406:9414   */\n      swap1\n      pop\n        /* \"#utility.yul\":9347:9420   */\n      swap1\n      jump\t// out\n        /* \"#utility.yul\":9426:9615   */\n    tag_105:\n        /* \"#utility.yul\":9503:9535   */\n      tag_215\n      tag_104\n      jump\t// in\n    tag_215:\n        /* \"#utility.yul\":9544:9609   */\n      tag_216\n        /* \"#utility.yul\":9602:9608   */\n      dup2\n        /* \"#utility.yul\":9594:9600   */\n      dup5\n        /* \"#utility.yul\":9588:9592   */\n      dup5\n        /* \"#utility.yul\":9544:9609   */\n      tag_103\n      jump\t// in\n    tag_216:\n        /* \"#utility.yul\":9479:9615   */\n      pop\n        /* \"#utility.yul\":9426:9615   */\n      pop\n      pop\n      jump\t// out\n        /* \"#utility.yul\":9621:9807   */\n    tag_106:\n        /* \"#utility.yul\":9681:9801   */\n    tag_218:\n        /* \"#utility.yul\":9698:9701   */\n      dup2\n        /* \"#utility.yul\":9691:9696   */\n      dup2\n        /* \"#utility.yul\":9688:9702   */\n      lt\n        /* \"#utility.yul\":9681:9801   */\n      iszero\n      tag_220\n      jumpi\n        /* \"#utility.yul\":9752:9791   */\n      tag_221\n        /* \"#utility.yul\":9789:9790   */\n      0x00\n        /* \"#utility.yul\":9782:9787   */\n      dup3\n        /* \"#utility.yul\":9752:9791   */\n      tag_105\n      jump\t// in\n    tag_221:\n        /* \"#utility.yul\":9725:9726   */\n      0x01\n        /* \"#utility.yul\":9718:9723   */\n      dup2\n        /* \"#utility.yul\":9714:9727   */\n      add\n        /* \"#utility.yul\":9705:9727   */\n      swap1\n      pop\n        /* \"#utility.yul\":9681:9801   */\n      jump(tag_218)\n    tag_220:\n        /* \"#utility.yul\":9621:9807   */\n      pop\n      pop\n      jump\t// out\n        /* \"#utility.yul\":9813:10356   */\n    tag_107:\n        /* \"#utility.yul\":9914:9916   */\n      0x1f\n        /* \"#utility.yul\":9909:9912   */\n      dup3\n        /* \"#utility.yul\":9906:9917   */\n      gt\n        /* \"#utility.yul\":9903:10349   */\n      iszero\n      tag_223\n      jumpi\n        /* \"#utility.yul\":9948:9986   */\n      tag_224\n        /* \"#utility.yul\":9980:9985   */\n      dup2\n        /* \"#utility.yul\":9948:9986   */\n      tag_96\n      jump\t// in\n    tag_224:\n        /* \"#utility.yul\":10032:10061   */\n      tag_225\n        /* \"#utility.yul\":10050:10060   */\n      dup5\n        /* \"#utility.yul\":10032:10061   */\n      tag_97\n      jump\t// in\n    tag_225:\n        /* \"#utility.yul\":10022:10030   */\n      dup2\n        /* \"#utility.yul\":10018:10062   */\n      add\n        /* \"#utility.yul\":10215:10217   */\n      0x20\n        /* \"#utility.yul\":10203:10213   */\n      dup6\n        /* \"#utility.yul\":10200:10218   */\n      lt\n        /* \"#utility.yul\":10197:10246   */\n      iszero\n      tag_226\n      jumpi\n        /* \"#utility.yul\":10236:10244   */\n      dup2\n        /* \"#utility.yul\":10221:10244   */\n      swap1\n      pop\n        /* \"#utility.yul\":10197:10246   */\n    tag_226:\n        /* \"#utility.yul\":10259:10339   */\n      tag_227\n        /* \"#utility.yul\":10315:10337   */\n      tag_228\n        /* \"#utility.yul\":10333:10336   */\n      dup6\n        /* \"#utility.yul\":10315:10337   */\n      tag_97\n      jump\t// in\n    tag_228:\n        /* \"#utility.yul\":10305:10313   */\n      dup4\n        /* \"#utility.yul\":10301:10338   */\n      add\n        /* \"#utility.yul\":10288:10299   */\n      dup3\n        /* \"#utility.yul\":10259:10339   */\n      tag_106\n      jump\t// in\n    tag_227:\n        /* \"#utility.yul\":9918:10349   */\n      pop\n      pop\n        /* \"#utility.yul\":9903:10349   */\n    tag_223:\n        /* \"#utility.yul\":9813:10356   */\n      pop\n      pop\n      pop\n      jump\t// out\n        /* \"#utility.yul\":10362:10479   */\n    tag_108:\n        /* \"#utility.yul\":10416:10424   */\n      0x00\n        /* \"#utility.yul\":10466:10471   */\n      dup3\n        /* \"#utility.yul\":10460:10464   */\n      dup3\n        /* \"#utility.yul\":10456:10472   */\n      shr\n        /* \"#utility.yul\":10435:10472   */\n      swap1\n      pop\n        /* \"#utility.yul\":10362:10479   */\n      swap3\n      swap2\n      pop\n      pop\n      jump\t// out\n        /* \"#utility.yul\":10485:10654   */\n    tag_109:\n        /* \"#utility.yul\":10529:10535   */\n      0x00\n        /* \"#utility.yul\":10562:10613   */\n      tag_231\n        /* \"#utility.yul\":10610:10611   */\n      0x00\n        /* \"#utility.yul\":10606:10612   */\n      not\n        /* \"#utility.yul\":10598:10603   */\n      dup5\n        /* \"#utility.yul\":10595:10596   */\n      0x08\n        /* \"#utility.yul\":10591:10604   */\n      mul\n        /* \"#utility.yul\":10562:10613   */\n      tag_108\n      jump\t// in\n    tag_231:\n        /* \"#utility.yul\":10558:10614   */\n      not\n        /* \"#utility.yul\":10643:10647   */\n      dup1\n        /* \"#utility.yul\":10637:10641   */\n      dup4\n        /* \"#utility.yul\":10633:10648   */\n      and\n        /* \"#utility.yul\":10623:10648   */\n      swap2\n      pop\n        /* \"#utility.yul\":10536:10654   */\n      pop\n        /* \"#utility.yul\":10485:10654   */\n      swap3\n      swap2\n      pop\n      pop\n      jump\t// out\n        /* \"#utility.yul\":10659:10954   */\n    tag_110:\n        /* \"#utility.yul\":10735:10739   */\n      0x00\n        /* \"#utility.yul\":10881:10910   */\n      tag_233\n        /* \"#utility.yul\":10906:10909   */\n      dup4\n        /* \"#utility.yul\":10900:10904   */\n      dup4\n        /* \"#utility.yul\":10881:10910   */\n      tag_109\n      jump\t// in\n    tag_233:\n        /* \"#utility.yul\":10873:10910   */\n      swap2\n      pop\n        /* \"#utility.yul\":10943:10946   */\n      dup3\n        /* \"#utility.yul\":10940:10941   */\n      0x02\n        /* \"#utility.yul\":10936:10947   */\n      mul\n        /* \"#utility.yul\":10930:10934   */\n      dup3\n        /* \"#utility.yul\":10927:10948   */\n      or\n        /* \"#utility.yul\":10919:10948   */\n      swap1\n      pop\n        /* \"#utility.yul\":10659:10954   */\n      swap3\n      swap2\n      pop\n      pop\n      jump\t// out\n        /* \"#utility.yul\":10959:12354   */\n    tag_59:\n        /* \"#utility.yul\":11076:11113   */\n      tag_235\n        /* \"#utility.yul\":11109:11112   */\n      dup3\n        /* \"#utility.yul\":11076:11113   */\n      tag_89\n      jump\t// in\n    tag_235:\n        /* \"#utility.yul\":11178:11196   */\n      0xffffffffffffffff\n        /* \"#utility.yul\":11170:11176   */\n      dup2\n        /* \"#utility.yul\":11167:11197   */\n      gt\n        /* \"#utility.yul\":11164:11220   */\n      iszero\n      tag_236\n      jumpi\n        /* \"#utility.yul\":11200:11218   */\n      tag_237\n      tag_82\n      jump\t// in\n    tag_237:\n        /* \"#utility.yul\":11164:11220   */\n    tag_236:\n        /* \"#utility.yul\":11244:11282   */\n      tag_238\n        /* \"#utility.yul\":11276:11280   */\n      dup3\n        /* \"#utility.yul\":11270:11281   */\n      sload\n        /* \"#utility.yul\":11244:11282   */\n      tag_65\n      jump\t// in\n    tag_238:\n        /* \"#utility.yul\":11329:11396   */\n      tag_239\n        /* \"#utility.yul\":11389:11395   */\n      dup3\n        /* \"#utility.yul\":11381:11387   */\n      dup3\n        /* \"#utility.yul\":11375:11379   */\n      dup6\n        /* \"#utility.yul\":11329:11396   */\n      tag_107\n      jump\t// in\n    tag_239:\n        /* \"#utility.yul\":11423:11424   */\n      0x00\n        /* \"#utility.yul\":11447:11451   */\n      0x20\n        /* \"#utility.yul\":11434:11451   */\n      swap1\n      pop\n        /* \"#utility.yul\":11479:11481   */\n      0x1f\n        /* \"#utility.yul\":11471:11477   */\n      dup4\n        /* \"#utility.yul\":11468:11482   */\n      gt\n        /* \"#utility.yul\":11496:11497   */\n      0x01\n        /* \"#utility.yul\":11491:12109   */\n      dup2\n      eq\n      tag_241\n      jumpi\n        /* \"#utility.yul\":12153:12154   */\n      0x00\n        /* \"#utility.yul\":12170:12176   */\n      dup5\n        /* \"#utility.yul\":12167:12244   */\n      iszero\n      tag_242\n      jumpi\n        /* \"#utility.yul\":12219:12228   */\n      dup3\n        /* \"#utility.yul\":12214:12217   */\n      dup8\n        /* \"#utility.yul\":12210:12229   */\n      add\n        /* \"#utility.yul\":12204:12230   */\n      mload\n        /* \"#utility.yul\":12195:12230   */\n      swap1\n      pop\n        /* \"#utility.yul\":12167:12244   */\n    tag_242:\n        /* \"#utility.yul\":12270:12337   */\n      tag_243\n        /* \"#utility.yul\":12330:12336   */\n      dup6\n        /* \"#utility.yul\":12323:12328   */\n      dup3\n        /* \"#utility.yul\":12270:12337   */\n      tag_110\n      jump\t// in\n    tag_243:\n        /* \"#utility.yul\":12264:12268   */\n      dup7\n        /* \"#utility.yul\":12257:12338   */\n      sstore\n        /* \"#utility.yul\":12126:12348   */\n      pop\n        /* \"#utility.yul\":11461:12348   */\n      jump(tag_240)\n        /* \"#utility.yul\":11491:12109   */\n    tag_241:\n        /* \"#utility.yul\":11543:11547   */\n      0x1f\n        /* \"#utility.yul\":11539:11548   */\n      not\n        /* \"#utility.yul\":11531:11537   */\n      dup5\n        /* \"#utility.yul\":11527:11549   */\n      and\n        /* \"#utility.yul\":11577:11614   */\n      tag_244\n        /* \"#utility.yul\":11609:11613   */\n      dup7\n        /* \"#utility.yul\":11577:11614   */\n      tag_96\n      jump\t// in\n    tag_244:\n        /* \"#utility.yul\":11636:11637   */\n      0x00\n        /* \"#utility.yul\":11650:11858   */\n    tag_245:\n        /* \"#utility.yul\":11664:11671   */\n      dup3\n        /* \"#utility.yul\":11661:11662   */\n      dup2\n        /* \"#utility.yul\":11658:11672   */\n      lt\n        /* \"#utility.yul\":11650:11858   */\n      iszero\n      tag_247\n      jumpi\n        /* \"#utility.yul\":11743:11752   */\n      dup5\n        /* \"#utility.yul\":11738:11741   */\n      dup10\n        /* \"#utility.yul\":11734:11753   */\n      add\n        /* \"#utility.yul\":11728:11754   */\n      mload\n        /* \"#utility.yul\":11720:11726   */\n      dup3\n        /* \"#utility.yul\":11713:11755   */\n      sstore\n        /* \"#utility.yul\":11794:11795   */\n      0x01\n        /* \"#utility.yul\":11786:11792   */\n      dup3\n        /* \"#utility.yul\":11782:11796   */\n      add\n        /* \"#utility.yul\":11772:11796   */\n      swap2\n      pop\n        /* \"#utility.yul\":11841:11843   */\n      0x20\n        /* \"#utility.yul\":11830:11839   */\n      dup6\n        /* \"#utility.yul\":11826:11844   */\n      add\n        /* \"#utility.yul\":11813:11844   */\n      swap5\n      pop\n        /* \"#utility.yul\":11687:11691   */\n      0x20\n        /* \"#utility.yul\":11684:11685   */\n      dup2\n        /* \"#utility.yul\":11680:11692   */\n      add\n        /* \"#utility.yul\":11675:11692   */\n      swap1\n      pop\n        /* \"#utility.yul\":11650:11858   */\n      jump(tag_245)\n    tag_247:\n        /* \"#utility.yul\":11886:11892   */\n      dup7\n        /* \"#utility.yul\":11877:11884   */\n      dup4\n        /* \"#utility.yul\":11874:11893   */\n      lt\n        /* \"#utility.yul\":11871:12050   */\n      iszero\n      tag_248\n      jumpi\n        /* \"#utility.yul\":11944:11953   */\n      dup5\n        /* \"#utility.yul\":11939:11942   */\n      dup10\n        /* \"#utility.yul\":11935:11954   */\n      add\n        /* \"#utility.yul\":11929:11955   */\n      mload\n        /* \"#utility.yul\":11987:12035   */\n      tag_249\n        /* \"#utility.yul\":12029:12033   */\n      0x1f\n        /* \"#utility.yul\":12021:12027   */\n      dup10\n        /* \"#utility.yul\":12017:12034   */\n      and\n        /* \"#utility.yul\":12006:12015   */\n      dup3\n        /* \"#utility.yul\":11987:12035   */\n      tag_109\n      jump\t// in\n    tag_249:\n        /* \"#utility.yul\":11979:11985   */\n      dup4\n        /* \"#utility.yul\":11972:12036   */\n      sstore\n        /* \"#utility.yul\":11894:12050   */\n      pop\n        /* \"#utility.yul\":11871:12050   */\n    tag_248:\n        /* \"#utility.yul\":12096:12097   */\n      0x01\n        /* \"#utility.yul\":12092:12093   */\n      0x02\n        /* \"#utility.yul\":12084:12090   */\n      dup9\n        /* \"#utility.yul\":12080:12094   */\n      mul\n        /* \"#utility.yul\":12076:12098   */\n      add\n        /* \"#utility.yul\":12070:12074   */\n      dup9\n        /* \"#utility.yul\":12063:12099   */\n      sstore\n        /* \"#utility.yul\":11498:12109   */\n      pop\n      pop\n      pop\n        /* \"#utility.yul\":11461:12348   */\n    tag_240:\n      pop\n        /* \"#utility.yul\":11051:12354   */\n      pop\n      pop\n      pop\n        /* \"#utility.yul\":10959:12354   */\n      pop\n      pop\n      jump\t// out\n\n    auxdata: 0xa2646970667358221220a0c88308a0df9329b3c4fde25312312d0bbcd5c517015908eafdb50798a6534d64736f6c634300081c0033\n}\n",
				"bytecode": {
					"linkReferences": {},
					"object": "6080604052348015600e575f5ffd5b50610a628061001c5f395ff3fe608060405234801561000f575f5ffd5b5060043610610086575f3560e01c806361d1e7d51161005957806361d1e7d51461012257806395623ec41461013e5780639b66e0ef1461016e578063ea08f61f1461019f57610086565b80630c5787991461008a578063246a960a146100ba5780632fae4ffd146100d657806360323a7814610106575b5f5ffd5b6100a4600480360381019061009f91906103e7565b6101bb565b6040516100b19190610421565b60405180910390f35b6100d460048036038101906100cf9190610576565b6101da565b005b6100f060048036038101906100eb91906105d0565b610201565b6040516100fd9190610421565b60405180910390f35b610120600480360381019061011b9190610617565b61022e565b005b61013c60048036038101906101379190610576565b61024c565b005b610158600480360381019061015391906103e7565b6102ad565b6040516101659190610421565b60405180910390f35b610188600480360381019061018391906103e7565b6102c6565b6040516101969291906106b5565b60405180910390f35b6101b960048036038101906101b491906103e7565b61037b565b005b5f81815481106101c9575f80fd5b905f5260205f20015f915090505481565b806007836040516101eb919061071d565b9081526020016040518091039020819055505050565b6007818051602081018201805184825260208301602085012081835280955050505050505f915090505481565b806001836005811061024357610242610733565b5b01819055505050565b6006604051806040016040528084815260200183815250908060018154018082558091505060019003905f5260205f2090600202015f909190919091505f820151815f01908161029c919061095d565b506020820151816001015550505050565b600181600581106102bc575f80fd5b015f915090505481565b600681815481106102d5575f80fd5b905f5260205f2090600202015f91509050805f0180546102f49061078d565b80601f01602080910402602001604051908101604052809291908181526020018280546103209061078d565b801561036b5780601f106103425761010080835404028352916020019161036b565b820191905f5260205f20905b81548152906001019060200180831161034e57829003601f168201915b5050505050908060010154905082565b5f81908060018154018082558091505060019003905f5260205f20015f909190919091505550565b5f604051905090565b5f5ffd5b5f5ffd5b5f819050919050565b6103c6816103b4565b81146103d0575f5ffd5b50565b5f813590506103e1816103bd565b92915050565b5f602082840312156103fc576103fb6103ac565b5b5f610409848285016103d3565b91505092915050565b61041b816103b4565b82525050565b5f6020820190506104345f830184610412565b92915050565b5f5ffd5b5f5ffd5b5f601f19601f8301169050919050565b7f4e487b71000000000000000000000000000000000000000000000000000000005f52604160045260245ffd5b61048882610442565b810181811067ffffffffffffffff821117156104a7576104a6610452565b5b80604052505050565b5f6104b96103a3565b90506104c5828261047f565b919050565b5f67ffffffffffffffff8211156104e4576104e3610452565b5b6104ed82610442565b9050602081019050919050565b828183375f83830152505050565b5f61051a610515846104ca565b6104b0565b9050828152602081018484840111156105365761053561043e565b5b6105418482856104fa565b509392505050565b5f82601f83011261055d5761055c61043a565b5b813561056d848260208601610508565b91505092915050565b5f5f6040838503121561058c5761058b6103ac565b5b5f83013567ffffffffffffffff8111156105a9576105a86103b0565b5b6105b585828601610549565b92505060206105c6858286016103d3565b9150509250929050565b5f602082840312156105e5576105e46103ac565b5b5f82013567ffffffffffffffff811115610602576106016103b0565b5b61060e84828501610549565b91505092915050565b5f5f6040838503121561062d5761062c6103ac565b5b5f61063a858286016103d3565b925050602061064b858286016103d3565b9150509250929050565b5f81519050919050565b5f82825260208201905092915050565b8281835e5f83830152505050565b5f61068782610655565b610691818561065f565b93506106a181856020860161066f565b6106aa81610442565b840191505092915050565b5f6040820190508181035f8301526106cd818561067d565b90506106dc6020830184610412565b9392505050565b5f81905092915050565b5f6106f782610655565b61070181856106e3565b935061071181856020860161066f565b80840191505092915050565b5f61072882846106ed565b915081905092915050565b7f4e487b71000000000000000000000000000000000000000000000000000000005f52603260045260245ffd5b7f4e487b71000000000000000000000000000000000000000000000000000000005f52602260045260245ffd5b5f60028204905060018216806107a457607f821691505b6020821081036107b7576107b6610760565b5b50919050565b5f819050815f5260205f209050919050565b5f6020601f8301049050919050565b5f82821b905092915050565b5f600883026108197fffffffffffffffffffffffffffffffffffffffffffffffffffffffffffffffff826107de565b61082386836107de565b95508019841693508086168417925050509392505050565b5f819050919050565b5f61085e610859610854846103b4565b61083b565b6103b4565b9050919050565b5f819050919050565b61087783610844565b61088b61088382610865565b8484546107ea565b825550505050565b5f5f905090565b6108a2610893565b6108ad81848461086e565b505050565b5b818110156108d0576108c55f8261089a565b6001810190506108b3565b5050565b601f821115610915576108e6816107bd565b6108ef846107cf565b810160208510156108fe578190505b61091261090a856107cf565b8301826108b2565b50505b505050565b5f82821c905092915050565b5f6109355f198460080261091a565b1980831691505092915050565b5f61094d8383610926565b9150826002028217905092915050565b61096682610655565b67ffffffffffffffff81111561097f5761097e610452565b5b610989825461078d565b6109948282856108d4565b5f60209050601f8311600181146109c5575f84156109b3578287015190505b6109bd8582610942565b865550610a24565b601f1984166109d3866107bd565b5f5b828110156109fa578489015182556001820191506020850194506020810190506109d5565b86831015610a175784890151610a13601f891682610926565b8355505b6001600288020188555050505b50505050505056fea2646970667358221220a0c88308a0df9329b3c4fde25312312d0bbcd5c517015908eafdb50798a6534d64736f6c634300081c0033",
					"opcodes": "PUSH1 0x80 PUSH1 0x40 MSTORE CALLVALUE DUP1 ISZERO PUSH1 0xE JUMPI PUSH0 PUSH0 REVERT JUMPDEST POP PUSH2 0xA62 DUP1 PUSH2 0x1C PUSH0 CODECOPY PUSH0 RETURN INVALID PUSH1 0x80 PUSH1 0x40 MSTORE CALLVALUE DUP1 ISZERO PUSH2 0xF JUMPI PUSH0 PUSH0 REVERT JUMPDEST POP PUSH1 0x4 CALLDATASIZE LT PUSH2 0x86 JUMPI PUSH0 CALLDATALOAD PUSH1 0xE0 SHR DUP1 PUSH4 0x61D1E7D5 GT PUSH2 0x59 JUMPI DUP1 PUSH4 0x61D1E7D5 EQ PUSH2 0x122 JUMPI DUP1 PUSH4 0x95623EC4 EQ PUSH2 0x13E JUMPI DUP1 PUSH4 0x9B66E0EF EQ PUSH2 0x16E JUMPI DUP1 PUSH4 0xEA08F61F EQ PUSH2 0x19F JUMPI PUSH2 0x86 JUMP JUMPDEST DUP1 PUSH4 0xC578799 EQ PUSH2 0x8A JUMPI DUP1 PUSH4 0x246A960A EQ PUSH2 0xBA JUMPI DUP1 PUSH4 0x2FAE4FFD EQ PUSH2 0xD6 JUMPI DUP1 PUSH4 0x60323A78 EQ PUSH2 0x106 JUMPI JUMPDEST PUSH0 PUSH0 REVERT JUMPDEST PUSH2 0xA4 PUSH1 0x4 DUP1 CALLDATASIZE SUB DUP2 ADD SWAP1 PUSH2 0x9F SWAP2 SWAP1 PUSH2 0x3E7 JUMP JUMPDEST PUSH2 0x1BB JUMP JUMPDEST PUSH1 0x40 MLOAD PUSH2 0xB1 SWAP2 SWAP1 PUSH2 0x421 JUMP JUMPDEST PUSH1 0x40 MLOAD DUP1 SWAP2 SUB SWAP1 RETURN JUMPDEST PUSH2 0xD4 PUSH1 0x4 DUP1 CALLDATASIZE SUB DUP2 ADD SWAP1 PUSH2 0xCF SWAP2 SWAP1 PUSH2 0x576 JUMP JUMPDEST PUSH2 0x1DA JUMP JUMPDEST STOP JUMPDEST PUSH2 0xF0 PUSH1 0x4 DUP1 CALLDATASIZE SUB DUP2 ADD SWAP1 PUSH2 0xEB SWAP2 SWAP1 PUSH2 0x5D0 JUMP JUMPDEST PUSH2 0x201 JUMP JUMPDEST PUSH1 0x40 MLOAD PUSH2 0xFD SWAP2 SWAP1 PUSH2 0x421 JUMP JUMPDEST PUSH1 0x40 MLOAD DUP1 SWAP2 SUB SWAP1 RETURN JUMPDEST PUSH2 0x120 PUSH1 0x4 DUP1 CALLDATASIZE SUB DUP2 ADD SWAP1 PUSH2 0x11B SWAP2 SWAP1 PUSH2 0x617 JUMP JUMPDEST PUSH2 0x22E JUMP JUMPDEST STOP JUMPDEST PUSH2 0x13C PUSH1 0x4 DUP1 CALLDATASIZE SUB DUP2 ADD SWAP1 PUSH2 0x137 SWAP2 SWAP1 PUSH2 0x576 JUMP JUMPDEST PUSH2 0x24C JUMP JUMPDEST STOP JUMPDEST PUSH2 0x158 PUSH1 0x4 DUP1 CALLDATASIZE SUB DUP2 ADD SWAP1 PUSH2 0x153 SWAP2 SWAP1 PUSH2 0x3E7 JUMP JUMPDEST PUSH2 0x2AD JUMP JUMPDEST PUSH1 0x40 MLOAD PUSH2 0x165 SWAP2 SWAP1 PUSH2 0x421 JUMP JUMPDEST PUSH1 0x40 MLOAD DUP1 SWAP2 SUB SWAP1 RETURN JUMPDEST PUSH2 0x188 PUSH1 0x4 DUP1 CALLDATASIZE SUB DUP2 ADD SWAP1 PUSH2 0x183 SWAP2 SWAP1 PUSH2 0x3E7 JUMP JUMPDEST PUSH2 0x2C6 JUMP JUMPDEST PUSH1 0x40 MLOAD PUSH2 0x196 SWAP3 SWAP2 SWAP1 PUSH2 0x6B5 JUMP JUMPDEST PUSH1 0x40 MLOAD DUP1 SWAP2 SUB SWAP1 RETURN JUMPDEST PUSH2 0x1B9 PUSH1 0x4 DUP1 CALLDATASIZE SUB DUP2 ADD SWAP1 PUSH2 0x1B4 SWAP2 SWAP1 PUSH2 0x3E7 JUMP JUMPDEST PUSH2 0x37B JUMP JUMPDEST STOP JUMPDEST PUSH0 DUP2 DUP2 SLOAD DUP2 LT PUSH2 0x1C9 JUMPI PUSH0 DUP1 REVERT JUMPDEST SWAP1 PUSH0 MSTORE PUSH1 0x20 PUSH0 KECCAK256 ADD PUSH0 SWAP2 POP SWAP1 POP SLOAD DUP2 JUMP JUMPDEST DUP1 PUSH1 0x7 DUP4 PUSH1 0x40 MLOAD PUSH2 0x1EB SWAP2 SWAP1 PUSH2 0x71D JUMP JUMPDEST SWAP1 DUP2 MSTORE PUSH1 0x20 ADD PUSH1 0x40 MLOAD DUP1 SWAP2 SUB SWAP1 KECCAK256 DUP2 SWAP1 SSTORE POP POP POP JUMP JUMPDEST PUSH1 0x7 DUP2 DUP1 MLOAD PUSH1 0x20 DUP2 ADD DUP3 ADD DUP1 MLOAD DUP5 DUP3 MSTORE PUSH1 0x20 DUP4 ADD PUSH1 0x20 DUP6 ADD KECCAK256 DUP2 DUP4 MSTORE DUP1 SWAP6 POP POP POP POP POP POP PUSH0 SWAP2 POP SWAP1 POP SLOAD DUP2 JUMP JUMPDEST DUP1 PUSH1 0x1 DUP4 PUSH1 0x5 DUP2 LT PUSH2 0x243 JUMPI PUSH2 0x242 PUSH2 0x733 JUMP JUMPDEST JUMPDEST ADD DUP2 SWAP1 SSTORE POP POP POP JUMP JUMPDEST PUSH1 0x6 PUSH1 0x40 MLOAD DUP1 PUSH1 0x40 ADD PUSH1 0x40 MSTORE DUP1 DUP5 DUP2 MSTORE PUSH1 0x20 ADD DUP4 DUP2 MSTORE POP SWAP1 DUP1 PUSH1 0x1 DUP2 SLOAD ADD DUP1 DUP3 SSTORE DUP1 SWAP2 POP POP PUSH1 0x1 SWAP1 SUB SWAP1 PUSH0 MSTORE PUSH1 0x20 PUSH0 KECCAK256 SWAP1 PUSH1 0x2 MUL ADD PUSH0 SWAP1 SWAP2 SWAP1 SWAP2 SWAP1 SWAP2 POP PUSH0 DUP3 ADD MLOAD DUP2 PUSH0 ADD SWAP1 DUP2 PUSH2 0x29C SWAP2 SWAP1 PUSH2 0x95D JUMP JUMPDEST POP PUSH1 0x20 DUP3 ADD MLOAD DUP2 PUSH1 0x1 ADD SSTORE POP POP POP POP JUMP JUMPDEST PUSH1 0x1 DUP2 PUSH1 0x5 DUP2 LT PUSH2 0x2BC JUMPI PUSH0 DUP1 REVERT JUMPDEST ADD PUSH0 SWAP2 POP SWAP1 POP SLOAD DUP2 JUMP JUMPDEST PUSH1 0x6 DUP2 DUP2 SLOAD DUP2 LT PUSH2 0x2D5 JUMPI PUSH0 DUP1 REVERT JUMPDEST SWAP1 PUSH0 MSTORE PUSH1 0x20 PUSH0 KECCAK256 SWAP1 PUSH1 0x2 MUL ADD PUSH0 SWAP2 POP SWAP1 POP DUP1 PUSH0 ADD DUP1 SLOAD PUSH2 0x2F4 SWAP1 PUSH2 0x78D JUMP JUMPDEST DUP1 PUSH1 0x1F ADD PUSH1 0x20 DUP1 SWAP2 DIV MUL PUSH1 0x20 ADD PUSH1 0x40 MLOAD SWAP1 DUP2 ADD PUSH1 0x40 MSTORE DUP1 SWAP3 SWAP2 SWAP1 DUP2 DUP2 MSTORE PUSH1 0x20 ADD DUP3 DUP1 SLOAD PUSH2 0x320 SWAP1 PUSH2 0x78D JUMP JUMPDEST DUP1 ISZERO PUSH2 0x36B JUMPI DUP1 PUSH1 0x1F LT PUSH2 0x342 JUMPI PUSH2 0x100 DUP1 DUP4 SLOAD DIV MUL DUP4 MSTORE SWAP2 PUSH1 0x20 ADD SWAP2 PUSH2 0x36B JUMP JUMPDEST DUP3 ADD SWAP2 SWAP1 PUSH0 MSTORE PUSH1 0x20 PUSH0 KECCAK256 SWAP1 JUMPDEST DUP2 SLOAD DUP2 MSTORE SWAP1 PUSH1 0x1 ADD SWAP1 PUSH1 0x20 ADD DUP1 DUP4 GT PUSH2 0x34E JUMPI DUP3 SWAP1 SUB PUSH1 0x1F AND DUP3 ADD SWAP2 JUMPDEST POP POP POP POP POP SWAP1 DUP1 PUSH1 0x1 ADD SLOAD SWAP1 POP DUP3 JUMP JUMPDEST PUSH0 DUP2 SWAP1 DUP1 PUSH1 0x1 DUP2 SLOAD ADD DUP1 DUP3 SSTORE DUP1 SWAP2 POP POP PUSH1 0x1 SWAP1 SUB SWAP1 PUSH0 MSTORE PUSH1 0x20 PUSH0 KECCAK256 ADD PUSH0 SWAP1 SWAP2 SWAP1 SWAP2 SWAP1 SWAP2 POP SSTORE POP JUMP JUMPDEST PUSH0 PUSH1 0x40 MLOAD SWAP1 POP SWAP1 JUMP JUMPDEST PUSH0 PUSH0 REVERT JUMPDEST PUSH0 PUSH0 REVERT JUMPDEST PUSH0 DUP2 SWAP1 POP SWAP2 SWAP1 POP JUMP JUMPDEST PUSH2 0x3C6 DUP2 PUSH2 0x3B4 JUMP JUMPDEST DUP2 EQ PUSH2 0x3D0 JUMPI PUSH0 PUSH0 REVERT JUMPDEST POP JUMP JUMPDEST PUSH0 DUP2 CALLDATALOAD SWAP1 POP PUSH2 0x3E1 DUP2 PUSH2 0x3BD JUMP JUMPDEST SWAP3 SWAP2 POP POP JUMP JUMPDEST PUSH0 PUSH1 0x20 DUP3 DUP5 SUB SLT ISZERO PUSH2 0x3FC JUMPI PUSH2 0x3FB PUSH2 0x3AC JUMP JUMPDEST JUMPDEST PUSH0 PUSH2 0x409 DUP5 DUP3 DUP6 ADD PUSH2 0x3D3 JUMP JUMPDEST SWAP2 POP POP SWAP3 SWAP2 POP POP JUMP JUMPDEST PUSH2 0x41B DUP2 PUSH2 0x3B4 JUMP JUMPDEST DUP3 MSTORE POP POP JUMP JUMPDEST PUSH0 PUSH1 0x20 DUP3 ADD SWAP1 POP PUSH2 0x434 PUSH0 DUP4 ADD DUP5 PUSH2 0x412 JUMP JUMPDEST SWAP3 SWAP2 POP POP JUMP JUMPDEST PUSH0 PUSH0 REVERT JUMPDEST PUSH0 PUSH0 REVERT JUMPDEST PUSH0 PUSH1 0x1F NOT PUSH1 0x1F DUP4 ADD AND SWAP1 POP SWAP2 SWAP1 POP JUMP JUMPDEST PUSH32 0x4E487B7100000000000000000000000000000000000000000000000000000000 PUSH0 MSTORE PUSH1 0x41 PUSH1 0x4 MSTORE PUSH1 0x24 PUSH0 REVERT JUMPDEST PUSH2 0x488 DUP3 PUSH2 0x442 JUMP JUMPDEST DUP2 ADD DUP2 DUP2 LT PUSH8 0xFFFFFFFFFFFFFFFF DUP3 GT OR ISZERO PUSH2 0x4A7 JUMPI PUSH2 0x4A6 PUSH2 0x452 JUMP JUMPDEST JUMPDEST DUP1 PUSH1 0x40 MSTORE POP POP POP JUMP JUMPDEST PUSH0 PUSH2 0x4B9 PUSH2 0x3A3 JUMP JUMPDEST SWAP1 POP PUSH2 0x4C5 DUP3 DUP3 PUSH2 0x47F JUMP JUMPDEST SWAP2 SWAP1 POP JUMP JUMPDEST PUSH0 PUSH8 0xFFFFFFFFFFFFFFFF DUP3 GT ISZERO PUSH2 0x4E4 JUMPI PUSH2 0x4E3 PUSH2 0x452 JUMP JUMPDEST JUMPDEST PUSH2 0x4ED DUP3 PUSH2 0x442 JUMP JUMPDEST SWAP1 POP PUSH1 0x20 DUP2 ADD SWAP1 POP SWAP2 SWAP1 POP JUMP JUMPDEST DUP3 DUP2 DUP4 CALLDATACOPY PUSH0 DUP4 DUP4 ADD MSTORE POP POP POP JUMP JUMPDEST PUSH0 PUSH2 0x51A PUSH2 0x515 DUP5 PUSH2 0x4CA JUMP JUMPDEST PUSH2 0x4B0 JUMP JUMPDEST SWAP1 POP DUP3 DUP2 MSTORE PUSH1 0x20 DUP2 ADD DUP5 DUP5 DUP5 ADD GT ISZERO PUSH2 0x536 JUMPI PUSH2 0x535 PUSH2 0x43E JUMP JUMPDEST JUMPDEST PUSH2 0x541 DUP5 DUP3 DUP6 PUSH2 0x4FA JUMP JUMPDEST POP SWAP4 SWAP3 POP POP POP JUMP JUMPDEST PUSH0 DUP3 PUSH1 0x1F DUP4 ADD SLT PUSH2 0x55D JUMPI PUSH2 0x55C PUSH2 0x43A JUMP JUMPDEST JUMPDEST DUP2 CALLDATALOAD PUSH2 0x56D DUP5 DUP3 PUSH1 0x20 DUP7 ADD PUSH2 0x508 JUMP JUMPDEST SWAP2 POP POP SWAP3 SWAP2 POP POP JUMP JUMPDEST PUSH0 PUSH0 PUSH1 0x40 DUP4 DUP6 SUB SLT ISZERO PUSH2 0x58C JUMPI PUSH2 0x58B PUSH2 0x3AC JUMP JUMPDEST JUMPDEST PUSH0 DUP4 ADD CALLDATALOAD PUSH8 0xFFFFFFFFFFFFFFFF DUP2 GT ISZERO PUSH2 0x5A9 JUMPI PUSH2 0x5A8 PUSH2 0x3B0 JUMP JUMPDEST JUMPDEST PUSH2 0x5B5 DUP6 DUP3 DUP7 ADD PUSH2 0x549 JUMP JUMPDEST SWAP3 POP POP PUSH1 0x20 PUSH2 0x5C6 DUP6 DUP3 DUP7 ADD PUSH2 0x3D3 JUMP JUMPDEST SWAP2 POP POP SWAP3 POP SWAP3 SWAP1 POP JUMP JUMPDEST PUSH0 PUSH1 0x20 DUP3 DUP5 SUB SLT ISZERO PUSH2 0x5E5 JUMPI PUSH2 0x5E4 PUSH2 0x3AC JUMP JUMPDEST JUMPDEST PUSH0 DUP3 ADD CALLDATALOAD PUSH8 0xFFFFFFFFFFFFFFFF DUP2 GT ISZERO PUSH2 0x602 JUMPI PUSH2 0x601 PUSH2 0x3B0 JUMP JUMPDEST JUMPDEST PUSH2 0x60E DUP5 DUP3 DUP6 ADD PUSH2 0x549 JUMP JUMPDEST SWAP2 POP POP SWAP3 SWAP2 POP POP JUMP JUMPDEST PUSH0 PUSH0 PUSH1 0x40 DUP4 DUP6 SUB SLT ISZERO PUSH2 0x62D JUMPI PUSH2 0x62C PUSH2 0x3AC JUMP JUMPDEST JUMPDEST PUSH0 PUSH2 0x63A DUP6 DUP3 DUP7 ADD PUSH2 0x3D3 JUMP JUMPDEST SWAP3 POP POP PUSH1 0x20 PUSH2 0x64B DUP6 DUP3 DUP7 ADD PUSH2 0x3D3 JUMP JUMPDEST SWAP2 POP POP SWAP3 POP SWAP3 SWAP1 POP JUMP JUMPDEST PUSH0 DUP2 MLOAD SWAP1 POP SWAP2 SWAP1 POP JUMP JUMPDEST PUSH0 DUP3 DUP3 MSTORE PUSH1 0x20 DUP3 ADD SWAP1 POP SWAP3 SWAP2 POP POP JUMP JUMPDEST DUP3 DUP2 DUP4 MCOPY PUSH0 DUP4 DUP4 ADD MSTORE POP POP POP JUMP JUMPDEST PUSH0 PUSH2 0x687 DUP3 PUSH2 0x655 JUMP JUMPDEST PUSH2 0x691 DUP2 DUP6 PUSH2 0x65F JUMP JUMPDEST SWAP4 POP PUSH2 0x6A1 DUP2 DUP6 PUSH1 0x20 DUP7 ADD PUSH2 0x66F JUMP JUMPDEST PUSH2 0x6AA DUP2 PUSH2 0x442 JUMP JUMPDEST DUP5 ADD SWAP2 POP POP SWAP3 SWAP2 POP POP JUMP JUMPDEST PUSH0 PUSH1 0x40 DUP3 ADD SWAP1 POP DUP2 DUP2 SUB PUSH0 DUP4 ADD MSTORE PUSH2 0x6CD DUP2 DUP6 PUSH2 0x67D JUMP JUMPDEST SWAP1 POP PUSH2 0x6DC PUSH1 0x20 DUP4 ADD DUP5 PUSH2 0x412 JUMP JUMPDEST SWAP4 SWAP3 POP POP POP JUMP JUMPDEST PUSH0 DUP2 SWAP1 POP SWAP3 SWAP2 POP POP JUMP JUMPDEST PUSH0 PUSH2 0x6F7 DUP3 PUSH2 0x655 JUMP JUMPDEST PUSH2 0x701 DUP2 DUP6 PUSH2 0x6E3 JUMP JUMPDEST SWAP4 POP PUSH2 0x711 DUP2 DUP6 PUSH1 0x20 DUP7 ADD PUSH2 0x66F JUMP JUMPDEST DUP1 DUP5 ADD SWAP2 POP POP SWAP3 SWAP2 POP POP JUMP JUMPDEST PUSH0 PUSH2 0x728 DUP3 DUP5 PUSH2 0x6ED JUMP JUMPDEST SWAP2 POP DUP2 SWAP1 POP SWAP3 SWAP2 POP POP JUMP JUMPDEST PUSH32 0x4E487B7100000000000000000000000000000000000000000000000000000000 PUSH0 MSTORE PUSH1 0x32 PUSH1 0x4 MSTORE PUSH1 0x24 PUSH0 REVERT JUMPDEST PUSH32 0x4E487B7100000000000000000000000000000000000000000000000000000000 PUSH0 MSTORE PUSH1 0x22 PUSH1 0x4 MSTORE PUSH1 0x24 PUSH0 REVERT JUMPDEST PUSH0 PUSH1 0x2 DUP3 DIV SWAP1 POP PUSH1 0x1 DUP3 AND DUP1 PUSH2 0x7A4 JUMPI PUSH1 0x7F DUP3 AND SWAP2 POP JUMPDEST PUSH1 0x20 DUP3 LT DUP2 SUB PUSH2 0x7B7 JUMPI PUSH2 0x7B6 PUSH2 0x760 JUMP JUMPDEST JUMPDEST POP SWAP2 SWAP1 POP JUMP JUMPDEST PUSH0 DUP2 SWAP1 POP DUP2 PUSH0 MSTORE PUSH1 0x20 PUSH0 KECCAK256 SWAP1 POP SWAP2 SWAP1 POP JUMP JUMPDEST PUSH0 PUSH1 0x20 PUSH1 0x1F DUP4 ADD DIV SWAP1 POP SWAP2 SWAP1 POP JUMP JUMPDEST PUSH0 DUP3 DUP3 SHL SWAP1 POP SWAP3 SWAP2 POP POP JUMP JUMPDEST PUSH0 PUSH1 0x8 DUP4 MUL PUSH2 0x819 PUSH32 0xFFFFFFFFFFFFFFFFFFFFFFFFFFFFFFFFFFFFFFFFFFFFFFFFFFFFFFFFFFFFFFFF DUP3 PUSH2 0x7DE JUMP JUMPDEST PUSH2 0x823 DUP7 DUP4 PUSH2 0x7DE JUMP JUMPDEST SWAP6 POP DUP1 NOT DUP5 AND SWAP4 POP DUP1 DUP7 AND DUP5 OR SWAP3 POP POP POP SWAP4 SWAP3 POP POP POP JUMP JUMPDEST PUSH0 DUP2 SWAP1 POP SWAP2 SWAP1 POP JUMP JUMPDEST PUSH0 PUSH2 0x85E PUSH2 0x859 PUSH2 0x854 DUP5 PUSH2 0x3B4 JUMP JUMPDEST PUSH2 0x83B JUMP JUMPDEST PUSH2 0x3B4 JUMP JUMPDEST SWAP1 POP SWAP2 SWAP1 POP JUMP JUMPDEST PUSH0 DUP2 SWAP1 POP SWAP2 SWAP1 POP JUMP JUMPDEST PUSH2 0x877 DUP4 PUSH2 0x844 JUMP JUMPDEST PUSH2 0x88B PUSH2 0x883 DUP3 PUSH2 0x865 JUMP JUMPDEST DUP5 DUP5 SLOAD PUSH2 0x7EA JUMP JUMPDEST DUP3 SSTORE POP POP POP POP JUMP JUMPDEST PUSH0 PUSH0 SWAP1 POP SWAP1 JUMP JUMPDEST PUSH2 0x8A2 PUSH2 0x893 JUMP JUMPDEST PUSH2 0x8AD DUP2 DUP5 DUP5 PUSH2 0x86E JUMP JUMPDEST POP POP POP JUMP JUMPDEST JUMPDEST DUP2 DUP2 LT ISZERO PUSH2 0x8D0 JUMPI PUSH2 0x8C5 PUSH0 DUP3 PUSH2 0x89A JUMP JUMPDEST PUSH1 0x1 DUP2 ADD SWAP1 POP PUSH2 0x8B3 JUMP JUMPDEST POP POP JUMP JUMPDEST PUSH1 0x1F DUP3 GT ISZERO PUSH2 0x915 JUMPI PUSH2 0x8E6 DUP2 PUSH2 0x7BD JUMP JUMPDEST PUSH2 0x8EF DUP5 PUSH2 0x7CF JUMP JUMPDEST DUP2 ADD PUSH1 0x20 DUP6 LT ISZERO PUSH2 0x8FE JUMPI DUP2 SWAP1 POP JUMPDEST PUSH2 0x912 PUSH2 0x90A DUP6 PUSH2 0x7CF JUMP JUMPDEST DUP4 ADD DUP3 PUSH2 0x8B2 JUMP JUMPDEST POP POP JUMPDEST POP POP POP JUMP JUMPDEST PUSH0 DUP3 DUP3 SHR SWAP1 POP SWAP3 SWAP2 POP POP JUMP JUMPDEST PUSH0 PUSH2 0x935 PUSH0 NOT DUP5 PUSH1 0x8 MUL PUSH2 0x91A JUMP JUMPDEST NOT DUP1 DUP4 AND SWAP2 POP POP SWAP3 SWAP2 POP POP JUMP JUMPDEST PUSH0 PUSH2 0x94D DUP4 DUP4 PUSH2 0x926 JUMP JUMPDEST SWAP2 POP DUP3 PUSH1 0x2 MUL DUP3 OR SWAP1 POP SWAP3 SWAP2 POP POP JUMP JUMPDEST PUSH2 0x966 DUP3 PUSH2 0x655 JUMP JUMPDEST PUSH8 0xFFFFFFFFFFFFFFFF DUP2 GT ISZERO PUSH2 0x97F JUMPI PUSH2 0x97E PUSH2 0x452 JUMP JUMPDEST JUMPDEST PUSH2 0x989 DUP3 SLOAD PUSH2 0x78D JUMP JUMPDEST PUSH2 0x994 DUP3 DUP3 DUP6 PUSH2 0x8D4 JUMP JUMPDEST PUSH0 PUSH1 0x20 SWAP1 POP PUSH1 0x1F DUP4 GT PUSH1 0x1 DUP2 EQ PUSH2 0x9C5 JUMPI PUSH0 DUP5 ISZERO PUSH2 0x9B3 JUMPI DUP3 DUP8 ADD MLOAD SWAP1 POP JUMPDEST PUSH2 0x9BD DUP6 DUP3 PUSH2 0x942 JUMP JUMPDEST DUP7 SSTORE POP PUSH2 0xA24 JUMP JUMPDEST PUSH1 0x1F NOT DUP5 AND PUSH2 0x9D3 DUP7 PUSH2 0x7BD JUMP JUMPDEST PUSH0 JUMPDEST DUP3 DUP2 LT ISZERO PUSH2 0x9FA JUMPI DUP5 DUP10 ADD MLOAD DUP3 SSTORE PUSH1 0x1 DUP3 ADD SWAP2 POP PUSH1 0x20 DUP6 ADD SWAP5 POP PUSH1 0x20 DUP2 ADD SWAP1 POP PUSH2 0x9D5 JUMP JUMPDEST DUP7 DUP4 LT ISZERO PUSH2 0xA17 JUMPI DUP5 DUP10 ADD MLOAD PUSH2 0xA13 PUSH1 0x1F DUP10 AND DUP3 PUSH2 0x926 JUMP JUMPDEST DUP4 SSTORE POP JUMPDEST PUSH1 0x1 PUSH1 0x2 DUP9 MUL ADD DUP9 SSTORE POP POP POP JUMPDEST POP POP POP POP POP POP JUMP INVALID LOG2 PUSH5 0x6970667358 0x22 SLT KECCAK256 LOG0 0xC8 DUP4 ADDMOD LOG0 0xDF SWAP4 0x29 0xB3 0xC4 REVERT 0xE2 MSTORE8 SLT BALANCE 0x2D SIGNEXTEND 0xBC 0xD5 0xC5 OR ADD MSIZE ADDMOD 0xEA REVERT 0xB5 SMOD SWAP9 0xA6 MSTORE8 0x4D PUSH5 0x736F6C6343 STOP ADDMOD SHR STOP CALLER "
				},
				"gasEstimates": {
					"creation": {
						"codeDepositCost": "531600",
						"executionCost": "566",
						"totalCost": "532166"
					},
					"external": {
						"_arrayOfNumber(uint256)": "infinite",
						"_fixedArrayOfNumber(uint256)": "infinite",
						"addNumberForName(string,uint256)": "infinite",
						"dynamicArrayOfPerson(uint256)": "infinite",
						"nameToNumber(string)": "infinite",
						"pushToArrayOfNumer(uint256)": "46886",
						"pushToDynamicArrayOfPerson(string,uint256)": "infinite",
						"pushToFixedArrayOfNumer(uint256,uint256)": "infinite"
					}
				},
				"methodIdentifiers": {
					"_arrayOfNumber(uint256)": "0c578799",
					"_fixedArrayOfNumber(uint256)": "95623ec4",
					"addNumberForName(string,uint256)": "246a960a",
					"dynamicArrayOfPerson(uint256)": "9b66e0ef",
					"nameToNumber(string)": "2fae4ffd",
					"pushToArrayOfNumer(uint256)": "ea08f61f",
					"pushToDynamicArrayOfPerson(string,uint256)": "61d1e7d5",
					"pushToFixedArrayOfNumer(uint256,uint256)": "60323a78"
				}
			},
			"storageLayout": {
				"storage": [
					{
						"astId": 4,
						"contract": "test.sol:Storage",
						"label": "_arrayOfNumber",
						"offset": 0,
						"slot": "0",
						"type": "t_array(t_uint256)dyn_storage"
					},
					{
						"astId": 8,
						"contract": "test.sol:Storage",
						"label": "_fixedArrayOfNumber",
						"offset": 0,
						"slot": "1",
						"type": "t_array(t_uint256)5_storage"
					},
					{
						"astId": 17,
						"contract": "test.sol:Storage",
						"label": "dynamicArrayOfPerson",
						"offset": 0,
						"slot": "6",
						"type": "t_array(t_struct(Person)13_storage)dyn_storage"
					},
					{
						"astId": 21,
						"contract": "test.sol:Storage",
						"label": "nameToNumber",
						"offset": 0,
						"slot": "7",
						"type": "t_mapping(t_string_memory_ptr,t_uint256)"
					}
				],
				"types": {
					"t_array(t_struct(Person)13_storage)dyn_storage": {
						"base": "t_struct(Person)13_storage",
						"encoding": "dynamic_array",
						"label": "struct Storage.Person[]",
						"numberOfBytes": "32"
					},
					"t_array(t_uint256)5_storage": {
						"base": "t_uint256",
						"encoding": "inplace",
						"label": "uint256[5]",
						"numberOfBytes": "160"
					},
					"t_array(t_uint256)dyn_storage": {
						"base": "t_uint256",
						"encoding": "dynamic_array",
						"label": "uint256[]",
						"numberOfBytes": "32"
					},
					"t_mapping(t_string_memory_ptr,t_uint256)": {
						"encoding": "mapping",
						"key": "t_string_memory_ptr",
						"label": "mapping(string => uint256)",
						"numberOfBytes": "32",
						"value": "t_uint256"
					},
					"t_string_memory_ptr": {
						"encoding": "bytes",
						"label": "string",
						"numberOfBytes": "32"
					},
					"t_string_storage": {
						"encoding": "bytes",
						"label": "string",
						"numberOfBytes": "32"
					},
					"t_struct(Person)13_storage": {
						"encoding": "inplace",
						"label": "struct Storage.Person",
						"members": [
							{
								"astId": 10,
								"contract": "test.sol:Storage",
								"label": "name",
								"offset": 0,
								"slot": "0",
								"type": "t_string_storage"
							},
							{
								"astId": 12,
								"contract": "test.sol:Storage",
								"label": "number",
								"offset": 0,
								"slot": "1",
								"type": "t_uint256"
							}
						],
						"numberOfBytes": "64"
					},
					"t_uint256": {
						"encoding": "inplace",
						"label": "uint256",
						"numberOfBytes": "32"
					}
				}
			},
			"userdoc": {
				"kind": "user",
				"methods": {},
				"version": 1
			}
		}
	}
}