{
	"CrowdFunding/CrownFunding.sol": {
		"CrownFunding": {
			"abi": [
				{
					"inputs": [
						{
							"internalType": "address",
							"name": "_dataFeed",
							"type": "address"
						}
					],
					"stateMutability": "nonpayable",
					"type": "constructor"
				},
				{
					"inputs": [],
					"name": "NoAvailableAmount",
					"type": "error"
				},
				{
					"stateMutability": "payable",
					"type": "fallback"
				},
				{
					"inputs": [],
					"name": "MINIMUM_FUND",
					"outputs": [
						{
							"internalType": "uint256",
							"name": "",
							"type": "uint256"
						}
					],
					"stateMutability": "view",
					"type": "function"
				},
				{
					"inputs": [],
					"name": "fund",
					"outputs": [],
					"stateMutability": "payable",
					"type": "function"
				},
				{
					"inputs": [],
					"name": "getBalance",
					"outputs": [
						{
							"internalType": "uint256",
							"name": "",
							"type": "uint256"
						}
					],
					"stateMutability": "view",
					"type": "function"
				},
				{
					"inputs": [],
					"name": "getLatestAnswer",
					"outputs": [
						{
							"internalType": "int256",
							"name": "",
							"type": "int256"
						}
					],
					"stateMutability": "view",
					"type": "function"
				},
				{
					"inputs": [],
					"name": "i_owner",
					"outputs": [
						{
							"internalType": "address",
							"name": "",
							"type": "address"
						}
					],
					"stateMutability": "view",
					"type": "function"
				},
				{
					"inputs": [],
					"name": "withdraw",
					"outputs": [],
					"stateMutability": "nonpayable",
					"type": "function"
				},
				{
					"stateMutability": "payable",
					"type": "receive"
				}
			],
			"devdoc": {
				"kind": "dev",
				"methods": {},
				"version": 1
			},
			"evm": {
				"assembly": "    /* \"CrowdFunding/CrownFunding.sol\":171:1780  contract CrownFunding {... */\n  mstore(0x40, 0xa0)\n    /* \"CrowdFunding/CrownFunding.sol\":260:264  5e18 */\n  0x4563918244f40000\n    /* \"CrowdFunding/CrownFunding.sol\":230:264  uint256 public MINIMUM_FUND = 5e18 */\n  0x00\n  sstore\n    /* \"CrowdFunding/CrownFunding.sol\":482:603  constructor(address _dataFeed) {... */\n  callvalue\n  dup1\n  iszero\n  tag_1\n  jumpi\n  revert(0x00, 0x00)\ntag_1:\n  pop\n  mload(0x40)\n  sub(codesize, bytecodeSize)\n  dup1\n  bytecodeSize\n  dup4\n  codecopy\n  dup2\n  dup2\n  add\n  0x40\n  mstore\n  dup2\n  add\n  swap1\n  tag_2\n  swap2\n  swap1\n  tag_3\n  jump\t// in\ntag_2:\n    /* \"CrowdFunding/CrownFunding.sol\":533:543  msg.sender */\n  caller\n    /* \"CrowdFunding/CrownFunding.sol\":523:543  i_owner = msg.sender */\n  0xffffffffffffffffffffffffffffffffffffffff\n  and\n  0x80\n  dup2\n  0xffffffffffffffffffffffffffffffffffffffff\n  and\n  dup2\n  mstore\n  pop\n  pop\n    /* \"CrowdFunding/CrownFunding.sol\":586:595  _dataFeed */\n  dup1\n    /* \"CrowdFunding/CrownFunding.sol\":553:561  dataFeed */\n  0x01\n  0x00\n    /* \"CrowdFunding/CrownFunding.sol\":553:596  dataFeed = AggregatorV3Interface(_dataFeed) */\n  0x0100\n  exp\n  dup2\n  sload\n  dup2\n  0xffffffffffffffffffffffffffffffffffffffff\n  mul\n  not\n  and\n  swap1\n  dup4\n  0xffffffffffffffffffffffffffffffffffffffff\n  and\n  mul\n  or\n  swap1\n  sstore\n  pop\n    /* \"CrowdFunding/CrownFunding.sol\":482:603  constructor(address _dataFeed) {... */\n  pop\n    /* \"CrowdFunding/CrownFunding.sol\":171:1780  contract CrownFunding {... */\n  jump(tag_6)\n    /* \"#utility.yul\":88:205   */\ntag_8:\n    /* \"#utility.yul\":197:198   */\n  0x00\n    /* \"#utility.yul\":194:195   */\n  0x00\n    /* \"#utility.yul\":187:199   */\n  revert\n    /* \"#utility.yul\":334:460   */\ntag_10:\n    /* \"#utility.yul\":371:378   */\n  0x00\n    /* \"#utility.yul\":411:453   */\n  0xffffffffffffffffffffffffffffffffffffffff\n    /* \"#utility.yul\":404:409   */\n  dup3\n    /* \"#utility.yul\":400:454   */\n  and\n    /* \"#utility.yul\":389:454   */\n  swap1\n  pop\n    /* \"#utility.yul\":334:460   */\n  swap2\n  swap1\n  pop\n  jump\t// out\n    /* \"#utility.yul\":466:562   */\ntag_11:\n    /* \"#utility.yul\":503:510   */\n  0x00\n    /* \"#utility.yul\":532:556   */\n  tag_20\n    /* \"#utility.yul\":550:555   */\n  dup3\n    /* \"#utility.yul\":532:556   */\n  tag_10\n  jump\t// in\ntag_20:\n    /* \"#utility.yul\":521:556   */\n  swap1\n  pop\n    /* \"#utility.yul\":466:562   */\n  swap2\n  swap1\n  pop\n  jump\t// out\n    /* \"#utility.yul\":568:690   */\ntag_12:\n    /* \"#utility.yul\":641:665   */\n  tag_22\n    /* \"#utility.yul\":659:664   */\n  dup2\n    /* \"#utility.yul\":641:665   */\n  tag_11\n  jump\t// in\ntag_22:\n    /* \"#utility.yul\":634:639   */\n  dup2\n    /* \"#utility.yul\":631:666   */\n  eq\n    /* \"#utility.yul\":621:684   */\n  tag_23\n  jumpi\n    /* \"#utility.yul\":680:681   */\n  0x00\n    /* \"#utility.yul\":677:678   */\n  0x00\n    /* \"#utility.yul\":670:682   */\n  revert\n    /* \"#utility.yul\":621:684   */\ntag_23:\n    /* \"#utility.yul\":568:690   */\n  pop\n  jump\t// out\n    /* \"#utility.yul\":696:839   */\ntag_13:\n    /* \"#utility.yul\":753:758   */\n  0x00\n    /* \"#utility.yul\":784:790   */\n  dup2\n    /* \"#utility.yul\":778:791   */\n  mload\n    /* \"#utility.yul\":769:791   */\n  swap1\n  pop\n    /* \"#utility.yul\":800:833   */\n  tag_25\n    /* \"#utility.yul\":827:832   */\n  dup2\n    /* \"#utility.yul\":800:833   */\n  tag_12\n  jump\t// in\ntag_25:\n    /* \"#utility.yul\":696:839   */\n  swap3\n  swap2\n  pop\n  pop\n  jump\t// out\n    /* \"#utility.yul\":845:1196   */\ntag_3:\n    /* \"#utility.yul\":915:921   */\n  0x00\n    /* \"#utility.yul\":964:966   */\n  0x20\n    /* \"#utility.yul\":952:961   */\n  dup3\n    /* \"#utility.yul\":943:950   */\n  dup5\n    /* \"#utility.yul\":939:962   */\n  sub\n    /* \"#utility.yul\":935:967   */\n  slt\n    /* \"#utility.yul\":932:1051   */\n  iszero\n  tag_27\n  jumpi\n    /* \"#utility.yul\":970:1049   */\n  tag_28\n  tag_8\n  jump\t// in\ntag_28:\n    /* \"#utility.yul\":932:1051   */\ntag_27:\n    /* \"#utility.yul\":1090:1091   */\n  0x00\n    /* \"#utility.yul\":1115:1179   */\n  tag_29\n    /* \"#utility.yul\":1171:1178   */\n  dup5\n    /* \"#utility.yul\":1162:1168   */\n  dup3\n    /* \"#utility.yul\":1151:1160   */\n  dup6\n    /* \"#utility.yul\":1147:1169   */\n  add\n    /* \"#utility.yul\":1115:1179   */\n  tag_13\n  jump\t// in\ntag_29:\n    /* \"#utility.yul\":1105:1179   */\n  swap2\n  pop\n    /* \"#utility.yul\":1061:1189   */\n  pop\n    /* \"#utility.yul\":845:1196   */\n  swap3\n  swap2\n  pop\n  pop\n  jump\t// out\n    /* \"CrowdFunding/CrownFunding.sol\":171:1780  contract CrownFunding {... */\ntag_6:\n  mload(0x80)\n  codecopy(0x00, dataOffset(sub_0), dataSize(sub_0))\n  0x00\n  assignImmutable(\"0x32da71dbd53bc029835bc5ecdd3e688035cc92bb61b1811d1685e67ba974e19f\")\n  return(0x00, dataSize(sub_0))\nstop\n\nsub_0: assembly {\n        /* \"CrowdFunding/CrownFunding.sol\":171:1780  contract CrownFunding {... */\n      mstore(0x40, 0x80)\n      jumpi(tag_1, lt(calldatasize, 0x04))\n      shr(0xe0, calldataload(0x00))\n      dup1\n      0x12065fe0\n      eq\n      tag_3\n      jumpi\n      dup1\n      0x3ccfd60b\n      eq\n      tag_4\n      jumpi\n      dup1\n      0x5deb0172\n      eq\n      tag_5\n      jumpi\n      dup1\n      0x96237c02\n      eq\n      tag_6\n      jumpi\n      dup1\n      0xb60d4288\n      eq\n      tag_7\n      jumpi\n      dup1\n      0xdba6335f\n      eq\n      tag_8\n      jumpi\n      jump(tag_2)\n    tag_1:\n      jumpi(tag_2, calldatasize)\n        /* \"CrowdFunding/CrownFunding.sol\":406:412  fund() */\n      tag_11\n        /* \"CrowdFunding/CrownFunding.sol\":406:410  fund */\n      tag_12\n        /* \"CrowdFunding/CrownFunding.sol\":406:412  fund() */\n      jump\t// in\n    tag_11:\n        /* \"CrowdFunding/CrownFunding.sol\":171:1780  contract CrownFunding {... */\n      stop\n    tag_2:\n        /* \"CrowdFunding/CrownFunding.sol\":463:469  fund() */\n      tag_15\n        /* \"CrowdFunding/CrownFunding.sol\":463:467  fund */\n      tag_12\n        /* \"CrowdFunding/CrownFunding.sol\":463:469  fund() */\n      jump\t// in\n    tag_15:\n        /* \"CrowdFunding/CrownFunding.sol\":171:1780  contract CrownFunding {... */\n      stop\n        /* \"CrowdFunding/CrownFunding.sol\":1344:1441  function getBalance() public view returns (uint256) {... */\n    tag_3:\n      callvalue\n      dup1\n      iszero\n      tag_16\n      jumpi\n      revert(0x00, 0x00)\n    tag_16:\n      pop\n      tag_17\n      tag_18\n      jump\t// in\n    tag_17:\n      mload(0x40)\n      tag_19\n      swap2\n      swap1\n      tag_20\n      jump\t// in\n    tag_19:\n      mload(0x40)\n      dup1\n      swap2\n      sub\n      swap1\n      return\n        /* \"CrowdFunding/CrownFunding.sol\":1100:1338  function withdraw() public ownerOnly {... */\n    tag_4:\n      callvalue\n      dup1\n      iszero\n      tag_21\n      jumpi\n      revert(0x00, 0x00)\n    tag_21:\n      pop\n      tag_22\n      tag_23\n      jump\t// in\n    tag_22:\n      stop\n        /* \"CrowdFunding/CrownFunding.sol\":230:264  uint256 public MINIMUM_FUND = 5e18 */\n    tag_5:\n      callvalue\n      dup1\n      iszero\n      tag_24\n      jumpi\n      revert(0x00, 0x00)\n    tag_24:\n      pop\n      tag_25\n      tag_26\n      jump\t// in\n    tag_25:\n      mload(0x40)\n      tag_27\n      swap2\n      swap1\n      tag_20\n      jump\t// in\n    tag_27:\n      mload(0x40)\n      dup1\n      swap2\n      sub\n      swap1\n      return\n        /* \"CrowdFunding/CrownFunding.sol\":1447:1778  function getLatestAnswer() public view returns (int256) {... */\n    tag_6:\n      callvalue\n      dup1\n      iszero\n      tag_28\n      jumpi\n      revert(0x00, 0x00)\n    tag_28:\n      pop\n      tag_29\n      tag_30\n      jump\t// in\n    tag_29:\n      mload(0x40)\n      tag_31\n      swap2\n      swap1\n      tag_32\n      jump\t// in\n    tag_31:\n      mload(0x40)\n      dup1\n      swap2\n      sub\n      swap1\n      return\n        /* \"CrowdFunding/CrownFunding.sol\":741:1094  function fund() public payable {... */\n    tag_7:\n      tag_33\n      tag_12\n      jump\t// in\n    tag_33:\n      stop\n        /* \"CrowdFunding/CrownFunding.sol\":285:317  address public immutable i_owner */\n    tag_8:\n      callvalue\n      dup1\n      iszero\n      tag_34\n      jumpi\n      revert(0x00, 0x00)\n    tag_34:\n      pop\n      tag_35\n      tag_36\n      jump\t// in\n    tag_35:\n      mload(0x40)\n      tag_37\n      swap2\n      swap1\n      tag_38\n      jump\t// in\n    tag_37:\n      mload(0x40)\n      dup1\n      swap2\n      sub\n      swap1\n      return\n        /* \"CrowdFunding/CrownFunding.sol\":741:1094  function fund() public payable {... */\n    tag_12:\n        /* \"CrowdFunding/CrownFunding.sol\":782:798  uint256 ethPrice */\n      0x00\n        /* \"CrowdFunding/CrownFunding.sol\":809:826  getLatestAnswer() */\n      tag_40\n        /* \"CrowdFunding/CrownFunding.sol\":809:824  getLatestAnswer */\n      tag_30\n        /* \"CrowdFunding/CrownFunding.sol\":809:826  getLatestAnswer() */\n      jump\t// in\n    tag_40:\n        /* \"CrowdFunding/CrownFunding.sol\":782:827  uint256 ethPrice = uint256(getLatestAnswer()) */\n      swap1\n      pop\n        /* \"CrowdFunding/CrownFunding.sol\":888:906  uint256 valueInUSD */\n      0x00\n        /* \"CrowdFunding/CrownFunding.sol\":934:938  1e18 */\n      0x0de0b6b3a7640000\n        /* \"CrowdFunding/CrownFunding.sol\":922:930  ethPrice */\n      dup3\n        /* \"CrowdFunding/CrownFunding.sol\":910:919  msg.value */\n      callvalue\n        /* \"CrowdFunding/CrownFunding.sol\":910:930  msg.value * ethPrice */\n      tag_41\n      swap2\n      swap1\n      tag_42\n      jump\t// in\n    tag_41:\n        /* \"CrowdFunding/CrownFunding.sol\":909:938  (msg.value * ethPrice) / 1e18 */\n      tag_43\n      swap2\n      swap1\n      tag_44\n      jump\t// in\n    tag_43:\n        /* \"CrowdFunding/CrownFunding.sol\":888:938  uint256 valueInUSD = (msg.value * ethPrice) / 1e18 */\n      swap1\n      pop\n        /* \"CrowdFunding/CrownFunding.sol\":983:995  MINIMUM_FUND */\n      sload(0x00)\n        /* \"CrowdFunding/CrownFunding.sol\":969:979  valueInUSD */\n      dup2\n        /* \"CrowdFunding/CrownFunding.sol\":969:995  valueInUSD >= MINIMUM_FUND */\n      lt\n      iszero\n        /* \"CrowdFunding/CrownFunding.sol\":948:1087  require(... */\n      tag_45\n      jumpi\n      mload(0x40)\n      0x08c379a000000000000000000000000000000000000000000000000000000000\n      dup2\n      mstore\n      0x04\n      add\n      tag_46\n      swap1\n      tag_47\n      jump\t// in\n    tag_46:\n      mload(0x40)\n      dup1\n      swap2\n      sub\n      swap1\n      revert\n    tag_45:\n        /* \"CrowdFunding/CrownFunding.sol\":772:1094  {... */\n      pop\n      pop\n        /* \"CrowdFunding/CrownFunding.sol\":741:1094  function fund() public payable {... */\n      jump\t// out\n        /* \"CrowdFunding/CrownFunding.sol\":1344:1441  function getBalance() public view returns (uint256) {... */\n    tag_18:\n        /* \"CrowdFunding/CrownFunding.sol\":1387:1394  uint256 */\n      0x00\n        /* \"CrowdFunding/CrownFunding.sol\":1413:1434  address(this).balance */\n      selfbalance\n        /* \"CrowdFunding/CrownFunding.sol\":1406:1434  return address(this).balance */\n      swap1\n      pop\n        /* \"CrowdFunding/CrownFunding.sol\":1344:1441  function getBalance() public view returns (uint256) {... */\n      swap1\n      jump\t// out\n        /* \"CrowdFunding/CrownFunding.sol\":1100:1338  function withdraw() public ownerOnly {... */\n    tag_23:\n        /* \"CrowdFunding/CrownFunding.sol\":655:665  msg.sender */\n      caller\n        /* \"CrowdFunding/CrownFunding.sol\":644:665  i_owner != msg.sender */\n      0xffffffffffffffffffffffffffffffffffffffff\n      and\n        /* \"CrowdFunding/CrownFunding.sol\":644:651  i_owner */\n      immutable(\"0x32da71dbd53bc029835bc5ecdd3e688035cc92bb61b1811d1685e67ba974e19f\")\n        /* \"CrowdFunding/CrownFunding.sol\":644:665  i_owner != msg.sender */\n      0xffffffffffffffffffffffffffffffffffffffff\n      and\n      eq\n        /* \"CrowdFunding/CrownFunding.sol\":640:718  if (i_owner != msg.sender) {... */\n      tag_50\n      jumpi\n        /* \"CrowdFunding/CrownFunding.sol\":688:707  NoAvailableAmount() */\n      mload(0x40)\n      0x6d70620500000000000000000000000000000000000000000000000000000000\n      dup2\n      mstore\n      0x04\n      add\n      mload(0x40)\n      dup1\n      swap2\n      sub\n      swap1\n      revert\n        /* \"CrowdFunding/CrownFunding.sol\":640:718  if (i_owner != msg.sender) {... */\n    tag_50:\n        /* \"CrowdFunding/CrownFunding.sol\":1209:1218  bool sent */\n      0x00\n        /* \"CrowdFunding/CrownFunding.sol\":1232:1239  i_owner */\n      immutable(\"0x32da71dbd53bc029835bc5ecdd3e688035cc92bb61b1811d1685e67ba974e19f\")\n        /* \"CrowdFunding/CrownFunding.sol\":1224:1245  payable(i_owner).call */\n      0xffffffffffffffffffffffffffffffffffffffff\n      and\n        /* \"CrowdFunding/CrownFunding.sol\":1253:1274  address(this).balance */\n      selfbalance\n        /* \"CrowdFunding/CrownFunding.sol\":1224:1279  payable(i_owner).call{value: address(this).balance}(\"\") */\n      mload(0x40)\n      tag_52\n      swap1\n      tag_53\n      jump\t// in\n    tag_52:\n      0x00\n      mload(0x40)\n      dup1\n      dup4\n      sub\n      dup2\n      dup6\n      dup8\n      gas\n      call\n      swap3\n      pop\n      pop\n      pop\n      returndatasize\n      dup1\n      0x00\n      dup2\n      eq\n      tag_56\n      jumpi\n      mload(0x40)\n      swap2\n      pop\n      and(add(returndatasize, 0x3f), not(0x1f))\n      dup3\n      add\n      0x40\n      mstore\n      returndatasize\n      dup3\n      mstore\n      returndatasize\n      0x00\n      0x20\n      dup5\n      add\n      returndatacopy\n      jump(tag_55)\n    tag_56:\n      0x60\n      swap2\n      pop\n    tag_55:\n      pop\n        /* \"CrowdFunding/CrownFunding.sol\":1208:1279  (bool sent, ) = payable(i_owner).call{value: address(this).balance}(\"\") */\n      pop\n      swap1\n      pop\n        /* \"CrowdFunding/CrownFunding.sol\":1297:1301  sent */\n      dup1\n        /* \"CrowdFunding/CrownFunding.sol\":1289:1331  require(sent, \"Failed to withdraw Ethers\") */\n      tag_57\n      jumpi\n      mload(0x40)\n      0x08c379a000000000000000000000000000000000000000000000000000000000\n      dup2\n      mstore\n      0x04\n      add\n      tag_58\n      swap1\n      tag_59\n      jump\t// in\n    tag_58:\n      mload(0x40)\n      dup1\n      swap2\n      sub\n      swap1\n      revert\n    tag_57:\n        /* \"CrowdFunding/CrownFunding.sol\":1137:1338  {... */\n      pop\n        /* \"CrowdFunding/CrownFunding.sol\":1100:1338  function withdraw() public ownerOnly {... */\n      jump\t// out\n        /* \"CrowdFunding/CrownFunding.sol\":230:264  uint256 public MINIMUM_FUND = 5e18 */\n    tag_26:\n      sload(0x00)\n      dup2\n      jump\t// out\n        /* \"CrowdFunding/CrownFunding.sol\":1447:1778  function getLatestAnswer() public view returns (int256) {... */\n    tag_30:\n        /* \"CrowdFunding/CrownFunding.sol\":1495:1501  int256 */\n      0x00\n        /* \"CrowdFunding/CrownFunding.sol\":1588:1598  int answer */\n      0x00\n        /* \"CrowdFunding/CrownFunding.sol\":1715:1723  dataFeed */\n      0x01\n      0x00\n      swap1\n      sload\n      swap1\n      0x0100\n      exp\n      swap1\n      div\n      0xffffffffffffffffffffffffffffffffffffffff\n      and\n        /* \"CrowdFunding/CrownFunding.sol\":1715:1739  dataFeed.latestRoundData */\n      0xffffffffffffffffffffffffffffffffffffffff\n      and\n      0xfeaf968c\n        /* \"CrowdFunding/CrownFunding.sol\":1715:1741  dataFeed.latestRoundData() */\n      mload(0x40)\n      dup2\n      0xffffffff\n      and\n      0xe0\n      shl\n      dup2\n      mstore\n      0x04\n      add\n      0xa0\n      mload(0x40)\n      dup1\n      dup4\n      sub\n      dup2\n      dup7\n      gas\n      staticcall\n      iszero\n      dup1\n      iszero\n      tag_62\n      jumpi\n      returndatacopy(0x00, 0x00, returndatasize)\n      revert(0x00, returndatasize)\n    tag_62:\n      pop\n      pop\n      pop\n      pop\n      mload(0x40)\n      returndatasize\n      not(0x1f)\n      0x1f\n      dup3\n      add\n      and\n      dup3\n      add\n      dup1\n      0x40\n      mstore\n      pop\n      dup2\n      add\n      swap1\n      tag_63\n      swap2\n      swap1\n      tag_64\n      jump\t// in\n    tag_63:\n        /* \"CrowdFunding/CrownFunding.sol\":1540:1741  (... */\n      pop\n      pop\n      pop\n      swap2\n      pop\n      pop\n        /* \"CrowdFunding/CrownFunding.sol\":1767:1771  1e10 */\n      0x02540be400\n        /* \"CrowdFunding/CrownFunding.sol\":1758:1764  answer */\n      dup2\n        /* \"CrowdFunding/CrownFunding.sol\":1758:1771  answer * 1e10 */\n      tag_65\n      swap2\n      swap1\n      tag_66\n      jump\t// in\n    tag_65:\n        /* \"CrowdFunding/CrownFunding.sol\":1751:1771  return answer * 1e10 */\n      swap2\n      pop\n      pop\n        /* \"CrowdFunding/CrownFunding.sol\":1447:1778  function getLatestAnswer() public view returns (int256) {... */\n      swap1\n      jump\t// out\n        /* \"CrowdFunding/CrownFunding.sol\":285:317  address public immutable i_owner */\n    tag_36:\n      immutable(\"0x32da71dbd53bc029835bc5ecdd3e688035cc92bb61b1811d1685e67ba974e19f\")\n      dup2\n      jump\t// out\n        /* \"#utility.yul\":7:84   */\n    tag_67:\n        /* \"#utility.yul\":44:51   */\n      0x00\n        /* \"#utility.yul\":73:78   */\n      dup2\n        /* \"#utility.yul\":62:78   */\n      swap1\n      pop\n        /* \"#utility.yul\":7:84   */\n      swap2\n      swap1\n      pop\n      jump\t// out\n        /* \"#utility.yul\":90:208   */\n    tag_68:\n        /* \"#utility.yul\":177:201   */\n      tag_97\n        /* \"#utility.yul\":195:200   */\n      dup2\n        /* \"#utility.yul\":177:201   */\n      tag_67\n      jump\t// in\n    tag_97:\n        /* \"#utility.yul\":172:175   */\n      dup3\n        /* \"#utility.yul\":165:202   */\n      mstore\n        /* \"#utility.yul\":90:208   */\n      pop\n      pop\n      jump\t// out\n        /* \"#utility.yul\":214:436   */\n    tag_20:\n        /* \"#utility.yul\":307:311   */\n      0x00\n        /* \"#utility.yul\":345:347   */\n      0x20\n        /* \"#utility.yul\":334:343   */\n      dup3\n        /* \"#utility.yul\":330:348   */\n      add\n        /* \"#utility.yul\":322:348   */\n      swap1\n      pop\n        /* \"#utility.yul\":358:429   */\n      tag_99\n        /* \"#utility.yul\":426:427   */\n      0x00\n        /* \"#utility.yul\":415:424   */\n      dup4\n        /* \"#utility.yul\":411:428   */\n      add\n        /* \"#utility.yul\":402:408   */\n      dup5\n        /* \"#utility.yul\":358:429   */\n      tag_68\n      jump\t// in\n    tag_99:\n        /* \"#utility.yul\":214:436   */\n      swap3\n      swap2\n      pop\n      pop\n      jump\t// out\n        /* \"#utility.yul\":442:518   */\n    tag_69:\n        /* \"#utility.yul\":478:485   */\n      0x00\n        /* \"#utility.yul\":507:512   */\n      dup2\n        /* \"#utility.yul\":496:512   */\n      swap1\n      pop\n        /* \"#utility.yul\":442:518   */\n      swap2\n      swap1\n      pop\n      jump\t// out\n        /* \"#utility.yul\":524:639   */\n    tag_70:\n        /* \"#utility.yul\":609:632   */\n      tag_102\n        /* \"#utility.yul\":626:631   */\n      dup2\n        /* \"#utility.yul\":609:632   */\n      tag_69\n      jump\t// in\n    tag_102:\n        /* \"#utility.yul\":604:607   */\n      dup3\n        /* \"#utility.yul\":597:633   */\n      mstore\n        /* \"#utility.yul\":524:639   */\n      pop\n      pop\n      jump\t// out\n        /* \"#utility.yul\":645:863   */\n    tag_32:\n        /* \"#utility.yul\":736:740   */\n      0x00\n        /* \"#utility.yul\":774:776   */\n      0x20\n        /* \"#utility.yul\":763:772   */\n      dup3\n        /* \"#utility.yul\":759:777   */\n      add\n        /* \"#utility.yul\":751:777   */\n      swap1\n      pop\n        /* \"#utility.yul\":787:856   */\n      tag_104\n        /* \"#utility.yul\":853:854   */\n      0x00\n        /* \"#utility.yul\":842:851   */\n      dup4\n        /* \"#utility.yul\":838:855   */\n      add\n        /* \"#utility.yul\":829:835   */\n      dup5\n        /* \"#utility.yul\":787:856   */\n      tag_70\n      jump\t// in\n    tag_104:\n        /* \"#utility.yul\":645:863   */\n      swap3\n      swap2\n      pop\n      pop\n      jump\t// out\n        /* \"#utility.yul\":869:995   */\n    tag_71:\n        /* \"#utility.yul\":906:913   */\n      0x00\n        /* \"#utility.yul\":946:988   */\n      0xffffffffffffffffffffffffffffffffffffffff\n        /* \"#utility.yul\":939:944   */\n      dup3\n        /* \"#utility.yul\":935:989   */\n      and\n        /* \"#utility.yul\":924:989   */\n      swap1\n      pop\n        /* \"#utility.yul\":869:995   */\n      swap2\n      swap1\n      pop\n      jump\t// out\n        /* \"#utility.yul\":1001:1097   */\n    tag_72:\n        /* \"#utility.yul\":1038:1045   */\n      0x00\n        /* \"#utility.yul\":1067:1091   */\n      tag_107\n        /* \"#utility.yul\":1085:1090   */\n      dup3\n        /* \"#utility.yul\":1067:1091   */\n      tag_71\n      jump\t// in\n    tag_107:\n        /* \"#utility.yul\":1056:1091   */\n      swap1\n      pop\n        /* \"#utility.yul\":1001:1097   */\n      swap2\n      swap1\n      pop\n      jump\t// out\n        /* \"#utility.yul\":1103:1221   */\n    tag_73:\n        /* \"#utility.yul\":1190:1214   */\n      tag_109\n        /* \"#utility.yul\":1208:1213   */\n      dup2\n        /* \"#utility.yul\":1190:1214   */\n      tag_72\n      jump\t// in\n    tag_109:\n        /* \"#utility.yul\":1185:1188   */\n      dup3\n        /* \"#utility.yul\":1178:1215   */\n      mstore\n        /* \"#utility.yul\":1103:1221   */\n      pop\n      pop\n      jump\t// out\n        /* \"#utility.yul\":1227:1449   */\n    tag_38:\n        /* \"#utility.yul\":1320:1324   */\n      0x00\n        /* \"#utility.yul\":1358:1360   */\n      0x20\n        /* \"#utility.yul\":1347:1356   */\n      dup3\n        /* \"#utility.yul\":1343:1361   */\n      add\n        /* \"#utility.yul\":1335:1361   */\n      swap1\n      pop\n        /* \"#utility.yul\":1371:1442   */\n      tag_111\n        /* \"#utility.yul\":1439:1440   */\n      0x00\n        /* \"#utility.yul\":1428:1437   */\n      dup4\n        /* \"#utility.yul\":1424:1441   */\n      add\n        /* \"#utility.yul\":1415:1421   */\n      dup5\n        /* \"#utility.yul\":1371:1442   */\n      tag_73\n      jump\t// in\n    tag_111:\n        /* \"#utility.yul\":1227:1449   */\n      swap3\n      swap2\n      pop\n      pop\n      jump\t// out\n        /* \"#utility.yul\":1455:1635   */\n    tag_74:\n        /* \"#utility.yul\":1503:1580   */\n      0x4e487b7100000000000000000000000000000000000000000000000000000000\n        /* \"#utility.yul\":1500:1501   */\n      0x00\n        /* \"#utility.yul\":1493:1581   */\n      mstore\n        /* \"#utility.yul\":1600:1604   */\n      0x11\n        /* \"#utility.yul\":1597:1598   */\n      0x04\n        /* \"#utility.yul\":1590:1605   */\n      mstore\n        /* \"#utility.yul\":1624:1628   */\n      0x24\n        /* \"#utility.yul\":1621:1622   */\n      0x00\n        /* \"#utility.yul\":1614:1629   */\n      revert\n        /* \"#utility.yul\":1641:2051   */\n    tag_42:\n        /* \"#utility.yul\":1681:1688   */\n      0x00\n        /* \"#utility.yul\":1704:1724   */\n      tag_114\n        /* \"#utility.yul\":1722:1723   */\n      dup3\n        /* \"#utility.yul\":1704:1724   */\n      tag_67\n      jump\t// in\n    tag_114:\n        /* \"#utility.yul\":1699:1724   */\n      swap2\n      pop\n        /* \"#utility.yul\":1738:1758   */\n      tag_115\n        /* \"#utility.yul\":1756:1757   */\n      dup4\n        /* \"#utility.yul\":1738:1758   */\n      tag_67\n      jump\t// in\n    tag_115:\n        /* \"#utility.yul\":1733:1758   */\n      swap3\n      pop\n        /* \"#utility.yul\":1793:1794   */\n      dup3\n        /* \"#utility.yul\":1790:1791   */\n      dup3\n        /* \"#utility.yul\":1786:1795   */\n      mul\n        /* \"#utility.yul\":1815:1845   */\n      tag_116\n        /* \"#utility.yul\":1833:1844   */\n      dup2\n        /* \"#utility.yul\":1815:1845   */\n      tag_67\n      jump\t// in\n    tag_116:\n        /* \"#utility.yul\":1804:1845   */\n      swap2\n      pop\n        /* \"#utility.yul\":1994:1995   */\n      dup3\n        /* \"#utility.yul\":1985:1992   */\n      dup3\n        /* \"#utility.yul\":1981:1996   */\n      div\n        /* \"#utility.yul\":1978:1979   */\n      dup5\n        /* \"#utility.yul\":1975:1997   */\n      eq\n        /* \"#utility.yul\":1955:1956   */\n      dup4\n        /* \"#utility.yul\":1948:1957   */\n      iszero\n        /* \"#utility.yul\":1928:2011   */\n      or\n        /* \"#utility.yul\":1905:2044   */\n      tag_117\n      jumpi\n        /* \"#utility.yul\":2024:2042   */\n      tag_118\n      tag_74\n      jump\t// in\n    tag_118:\n        /* \"#utility.yul\":1905:2044   */\n    tag_117:\n        /* \"#utility.yul\":1689:2051   */\n      pop\n        /* \"#utility.yul\":1641:2051   */\n      swap3\n      swap2\n      pop\n      pop\n      jump\t// out\n        /* \"#utility.yul\":2057:2237   */\n    tag_75:\n        /* \"#utility.yul\":2105:2182   */\n      0x4e487b7100000000000000000000000000000000000000000000000000000000\n        /* \"#utility.yul\":2102:2103   */\n      0x00\n        /* \"#utility.yul\":2095:2183   */\n      mstore\n        /* \"#utility.yul\":2202:2206   */\n      0x12\n        /* \"#utility.yul\":2199:2200   */\n      0x04\n        /* \"#utility.yul\":2192:2207   */\n      mstore\n        /* \"#utility.yul\":2226:2230   */\n      0x24\n        /* \"#utility.yul\":2223:2224   */\n      0x00\n        /* \"#utility.yul\":2216:2231   */\n      revert\n        /* \"#utility.yul\":2243:2428   */\n    tag_44:\n        /* \"#utility.yul\":2283:2284   */\n      0x00\n        /* \"#utility.yul\":2300:2320   */\n      tag_121\n        /* \"#utility.yul\":2318:2319   */\n      dup3\n        /* \"#utility.yul\":2300:2320   */\n      tag_67\n      jump\t// in\n    tag_121:\n        /* \"#utility.yul\":2295:2320   */\n      swap2\n      pop\n        /* \"#utility.yul\":2334:2354   */\n      tag_122\n        /* \"#utility.yul\":2352:2353   */\n      dup4\n        /* \"#utility.yul\":2334:2354   */\n      tag_67\n      jump\t// in\n    tag_122:\n        /* \"#utility.yul\":2329:2354   */\n      swap3\n      pop\n        /* \"#utility.yul\":2373:2374   */\n      dup3\n        /* \"#utility.yul\":2363:2398   */\n      tag_123\n      jumpi\n        /* \"#utility.yul\":2378:2396   */\n      tag_124\n      tag_75\n      jump\t// in\n    tag_124:\n        /* \"#utility.yul\":2363:2398   */\n    tag_123:\n        /* \"#utility.yul\":2420:2421   */\n      dup3\n        /* \"#utility.yul\":2417:2418   */\n      dup3\n        /* \"#utility.yul\":2413:2422   */\n      div\n        /* \"#utility.yul\":2408:2422   */\n      swap1\n      pop\n        /* \"#utility.yul\":2243:2428   */\n      swap3\n      swap2\n      pop\n      pop\n      jump\t// out\n        /* \"#utility.yul\":2434:2603   */\n    tag_76:\n        /* \"#utility.yul\":2518:2529   */\n      0x00\n        /* \"#utility.yul\":2552:2558   */\n      dup3\n        /* \"#utility.yul\":2547:2550   */\n      dup3\n        /* \"#utility.yul\":2540:2559   */\n      mstore\n        /* \"#utility.yul\":2592:2596   */\n      0x20\n        /* \"#utility.yul\":2587:2590   */\n      dup3\n        /* \"#utility.yul\":2583:2597   */\n      add\n        /* \"#utility.yul\":2568:2597   */\n      swap1\n      pop\n        /* \"#utility.yul\":2434:2603   */\n      swap3\n      swap2\n      pop\n      pop\n      jump\t// out\n        /* \"#utility.yul\":2609:2899   */\n    tag_77:\n        /* \"#utility.yul\":2749:2783   */\n      0x596f757220616d6f756e7420697320696e73756666696369656e742c20617420\n        /* \"#utility.yul\":2745:2746   */\n      0x00\n        /* \"#utility.yul\":2737:2743   */\n      dup3\n        /* \"#utility.yul\":2733:2747   */\n      add\n        /* \"#utility.yul\":2726:2784   */\n      mstore\n        /* \"#utility.yul\":2818:2852   */\n      0x6c6561737420302e303031206574686572206f6e6365207472616e7361637469\n        /* \"#utility.yul\":2813:2815   */\n      0x20\n        /* \"#utility.yul\":2805:2811   */\n      dup3\n        /* \"#utility.yul\":2801:2816   */\n      add\n        /* \"#utility.yul\":2794:2853   */\n      mstore\n        /* \"#utility.yul\":2887:2891   */\n      0x6f6e000000000000000000000000000000000000000000000000000000000000\n        /* \"#utility.yul\":2882:2884   */\n      0x40\n        /* \"#utility.yul\":2874:2880   */\n      dup3\n        /* \"#utility.yul\":2870:2885   */\n      add\n        /* \"#utility.yul\":2863:2892   */\n      mstore\n        /* \"#utility.yul\":2609:2899   */\n      pop\n      jump\t// out\n        /* \"#utility.yul\":2905:3271   */\n    tag_78:\n        /* \"#utility.yul\":3047:3050   */\n      0x00\n        /* \"#utility.yul\":3068:3135   */\n      tag_128\n        /* \"#utility.yul\":3132:3134   */\n      0x42\n        /* \"#utility.yul\":3127:3130   */\n      dup4\n        /* \"#utility.yul\":3068:3135   */\n      tag_76\n      jump\t// in\n    tag_128:\n        /* \"#utility.yul\":3061:3135   */\n      swap2\n      pop\n        /* \"#utility.yul\":3144:3237   */\n      tag_129\n        /* \"#utility.yul\":3233:3236   */\n      dup3\n        /* \"#utility.yul\":3144:3237   */\n      tag_77\n      jump\t// in\n    tag_129:\n        /* \"#utility.yul\":3262:3264   */\n      0x60\n        /* \"#utility.yul\":3257:3260   */\n      dup3\n        /* \"#utility.yul\":3253:3265   */\n      add\n        /* \"#utility.yul\":3246:3265   */\n      swap1\n      pop\n        /* \"#utility.yul\":2905:3271   */\n      swap2\n      swap1\n      pop\n      jump\t// out\n        /* \"#utility.yul\":3277:3696   */\n    tag_47:\n        /* \"#utility.yul\":3443:3447   */\n      0x00\n        /* \"#utility.yul\":3481:3483   */\n      0x20\n        /* \"#utility.yul\":3470:3479   */\n      dup3\n        /* \"#utility.yul\":3466:3484   */\n      add\n        /* \"#utility.yul\":3458:3484   */\n      swap1\n      pop\n        /* \"#utility.yul\":3530:3539   */\n      dup2\n        /* \"#utility.yul\":3524:3528   */\n      dup2\n        /* \"#utility.yul\":3520:3540   */\n      sub\n        /* \"#utility.yul\":3516:3517   */\n      0x00\n        /* \"#utility.yul\":3505:3514   */\n      dup4\n        /* \"#utility.yul\":3501:3518   */\n      add\n        /* \"#utility.yul\":3494:3541   */\n      mstore\n        /* \"#utility.yul\":3558:3689   */\n      tag_131\n        /* \"#utility.yul\":3684:3688   */\n      dup2\n        /* \"#utility.yul\":3558:3689   */\n      tag_78\n      jump\t// in\n    tag_131:\n        /* \"#utility.yul\":3550:3689   */\n      swap1\n      pop\n        /* \"#utility.yul\":3277:3696   */\n      swap2\n      swap1\n      pop\n      jump\t// out\n        /* \"#utility.yul\":3702:3849   */\n    tag_79:\n        /* \"#utility.yul\":3803:3814   */\n      0x00\n        /* \"#utility.yul\":3840:3843   */\n      dup2\n        /* \"#utility.yul\":3825:3843   */\n      swap1\n      pop\n        /* \"#utility.yul\":3702:3849   */\n      swap3\n      swap2\n      pop\n      pop\n      jump\t// out\n        /* \"#utility.yul\":3855:3969   */\n    tag_80:\n      pop\n      jump\t// out\n        /* \"#utility.yul\":3975:4373   */\n    tag_81:\n        /* \"#utility.yul\":4134:4137   */\n      0x00\n        /* \"#utility.yul\":4155:4238   */\n      tag_135\n        /* \"#utility.yul\":4236:4237   */\n      0x00\n        /* \"#utility.yul\":4231:4234   */\n      dup4\n        /* \"#utility.yul\":4155:4238   */\n      tag_79\n      jump\t// in\n    tag_135:\n        /* \"#utility.yul\":4148:4238   */\n      swap2\n      pop\n        /* \"#utility.yul\":4247:4340   */\n      tag_136\n        /* \"#utility.yul\":4336:4339   */\n      dup3\n        /* \"#utility.yul\":4247:4340   */\n      tag_80\n      jump\t// in\n    tag_136:\n        /* \"#utility.yul\":4365:4366   */\n      0x00\n        /* \"#utility.yul\":4360:4363   */\n      dup3\n        /* \"#utility.yul\":4356:4367   */\n      add\n        /* \"#utility.yul\":4349:4367   */\n      swap1\n      pop\n        /* \"#utility.yul\":3975:4373   */\n      swap2\n      swap1\n      pop\n      jump\t// out\n        /* \"#utility.yul\":4379:4758   */\n    tag_53:\n        /* \"#utility.yul\":4563:4566   */\n      0x00\n        /* \"#utility.yul\":4585:4732   */\n      tag_138\n        /* \"#utility.yul\":4728:4731   */\n      dup3\n        /* \"#utility.yul\":4585:4732   */\n      tag_81\n      jump\t// in\n    tag_138:\n        /* \"#utility.yul\":4578:4732   */\n      swap2\n      pop\n        /* \"#utility.yul\":4749:4752   */\n      dup2\n        /* \"#utility.yul\":4742:4752   */\n      swap1\n      pop\n        /* \"#utility.yul\":4379:4758   */\n      swap2\n      swap1\n      pop\n      jump\t// out\n        /* \"#utility.yul\":4764:4939   */\n    tag_82:\n        /* \"#utility.yul\":4904:4931   */\n      0x4661696c656420746f2077697468647261772045746865727300000000000000\n        /* \"#utility.yul\":4900:4901   */\n      0x00\n        /* \"#utility.yul\":4892:4898   */\n      dup3\n        /* \"#utility.yul\":4888:4902   */\n      add\n        /* \"#utility.yul\":4881:4932   */\n      mstore\n        /* \"#utility.yul\":4764:4939   */\n      pop\n      jump\t// out\n        /* \"#utility.yul\":4945:5311   */\n    tag_83:\n        /* \"#utility.yul\":5087:5090   */\n      0x00\n        /* \"#utility.yul\":5108:5175   */\n      tag_141\n        /* \"#utility.yul\":5172:5174   */\n      0x19\n        /* \"#utility.yul\":5167:5170   */\n      dup4\n        /* \"#utility.yul\":5108:5175   */\n      tag_76\n      jump\t// in\n    tag_141:\n        /* \"#utility.yul\":5101:5175   */\n      swap2\n      pop\n        /* \"#utility.yul\":5184:5277   */\n      tag_142\n        /* \"#utility.yul\":5273:5276   */\n      dup3\n        /* \"#utility.yul\":5184:5277   */\n      tag_82\n      jump\t// in\n    tag_142:\n        /* \"#utility.yul\":5302:5304   */\n      0x20\n        /* \"#utility.yul\":5297:5300   */\n      dup3\n        /* \"#utility.yul\":5293:5305   */\n      add\n        /* \"#utility.yul\":5286:5305   */\n      swap1\n      pop\n        /* \"#utility.yul\":4945:5311   */\n      swap2\n      swap1\n      pop\n      jump\t// out\n        /* \"#utility.yul\":5317:5736   */\n    tag_59:\n        /* \"#utility.yul\":5483:5487   */\n      0x00\n        /* \"#utility.yul\":5521:5523   */\n      0x20\n        /* \"#utility.yul\":5510:5519   */\n      dup3\n        /* \"#utility.yul\":5506:5524   */\n      add\n        /* \"#utility.yul\":5498:5524   */\n      swap1\n      pop\n        /* \"#utility.yul\":5570:5579   */\n      dup2\n        /* \"#utility.yul\":5564:5568   */\n      dup2\n        /* \"#utility.yul\":5560:5580   */\n      sub\n        /* \"#utility.yul\":5556:5557   */\n      0x00\n        /* \"#utility.yul\":5545:5554   */\n      dup4\n        /* \"#utility.yul\":5541:5558   */\n      add\n        /* \"#utility.yul\":5534:5581   */\n      mstore\n        /* \"#utility.yul\":5598:5729   */\n      tag_144\n        /* \"#utility.yul\":5724:5728   */\n      dup2\n        /* \"#utility.yul\":5598:5729   */\n      tag_83\n      jump\t// in\n    tag_144:\n        /* \"#utility.yul\":5590:5729   */\n      swap1\n      pop\n        /* \"#utility.yul\":5317:5736   */\n      swap2\n      swap1\n      pop\n      jump\t// out\n        /* \"#utility.yul\":5823:5940   */\n    tag_85:\n        /* \"#utility.yul\":5932:5933   */\n      0x00\n        /* \"#utility.yul\":5929:5930   */\n      0x00\n        /* \"#utility.yul\":5922:5934   */\n      revert\n        /* \"#utility.yul\":6069:6174   */\n    tag_87:\n        /* \"#utility.yul\":6105:6112   */\n      0x00\n        /* \"#utility.yul\":6145:6167   */\n      0xffffffffffffffffffff\n        /* \"#utility.yul\":6138:6143   */\n      dup3\n        /* \"#utility.yul\":6134:6168   */\n      and\n        /* \"#utility.yul\":6123:6168   */\n      swap1\n      pop\n        /* \"#utility.yul\":6069:6174   */\n      swap2\n      swap1\n      pop\n      jump\t// out\n        /* \"#utility.yul\":6180:6300   */\n    tag_88:\n        /* \"#utility.yul\":6252:6275   */\n      tag_150\n        /* \"#utility.yul\":6269:6274   */\n      dup2\n        /* \"#utility.yul\":6252:6275   */\n      tag_87\n      jump\t// in\n    tag_150:\n        /* \"#utility.yul\":6245:6250   */\n      dup2\n        /* \"#utility.yul\":6242:6276   */\n      eq\n        /* \"#utility.yul\":6232:6294   */\n      tag_151\n      jumpi\n        /* \"#utility.yul\":6290:6291   */\n      0x00\n        /* \"#utility.yul\":6287:6288   */\n      0x00\n        /* \"#utility.yul\":6280:6292   */\n      revert\n        /* \"#utility.yul\":6232:6294   */\n    tag_151:\n        /* \"#utility.yul\":6180:6300   */\n      pop\n      jump\t// out\n        /* \"#utility.yul\":6306:6447   */\n    tag_89:\n        /* \"#utility.yul\":6362:6367   */\n      0x00\n        /* \"#utility.yul\":6393:6399   */\n      dup2\n        /* \"#utility.yul\":6387:6400   */\n      mload\n        /* \"#utility.yul\":6378:6400   */\n      swap1\n      pop\n        /* \"#utility.yul\":6409:6441   */\n      tag_153\n        /* \"#utility.yul\":6435:6440   */\n      dup2\n        /* \"#utility.yul\":6409:6441   */\n      tag_88\n      jump\t// in\n    tag_153:\n        /* \"#utility.yul\":6306:6447   */\n      swap3\n      swap2\n      pop\n      pop\n      jump\t// out\n        /* \"#utility.yul\":6453:6573   */\n    tag_90:\n        /* \"#utility.yul\":6525:6548   */\n      tag_155\n        /* \"#utility.yul\":6542:6547   */\n      dup2\n        /* \"#utility.yul\":6525:6548   */\n      tag_69\n      jump\t// in\n    tag_155:\n        /* \"#utility.yul\":6518:6523   */\n      dup2\n        /* \"#utility.yul\":6515:6549   */\n      eq\n        /* \"#utility.yul\":6505:6567   */\n      tag_156\n      jumpi\n        /* \"#utility.yul\":6563:6564   */\n      0x00\n        /* \"#utility.yul\":6560:6561   */\n      0x00\n        /* \"#utility.yul\":6553:6565   */\n      revert\n        /* \"#utility.yul\":6505:6567   */\n    tag_156:\n        /* \"#utility.yul\":6453:6573   */\n      pop\n      jump\t// out\n        /* \"#utility.yul\":6579:6720   */\n    tag_91:\n        /* \"#utility.yul\":6635:6640   */\n      0x00\n        /* \"#utility.yul\":6666:6672   */\n      dup2\n        /* \"#utility.yul\":6660:6673   */\n      mload\n        /* \"#utility.yul\":6651:6673   */\n      swap1\n      pop\n        /* \"#utility.yul\":6682:6714   */\n      tag_158\n        /* \"#utility.yul\":6708:6713   */\n      dup2\n        /* \"#utility.yul\":6682:6714   */\n      tag_90\n      jump\t// in\n    tag_158:\n        /* \"#utility.yul\":6579:6720   */\n      swap3\n      swap2\n      pop\n      pop\n      jump\t// out\n        /* \"#utility.yul\":6726:6848   */\n    tag_92:\n        /* \"#utility.yul\":6799:6823   */\n      tag_160\n        /* \"#utility.yul\":6817:6822   */\n      dup2\n        /* \"#utility.yul\":6799:6823   */\n      tag_67\n      jump\t// in\n    tag_160:\n        /* \"#utility.yul\":6792:6797   */\n      dup2\n        /* \"#utility.yul\":6789:6824   */\n      eq\n        /* \"#utility.yul\":6779:6842   */\n      tag_161\n      jumpi\n        /* \"#utility.yul\":6838:6839   */\n      0x00\n        /* \"#utility.yul\":6835:6836   */\n      0x00\n        /* \"#utility.yul\":6828:6840   */\n      revert\n        /* \"#utility.yul\":6779:6842   */\n    tag_161:\n        /* \"#utility.yul\":6726:6848   */\n      pop\n      jump\t// out\n        /* \"#utility.yul\":6854:6997   */\n    tag_93:\n        /* \"#utility.yul\":6911:6916   */\n      0x00\n        /* \"#utility.yul\":6942:6948   */\n      dup2\n        /* \"#utility.yul\":6936:6949   */\n      mload\n        /* \"#utility.yul\":6927:6949   */\n      swap1\n      pop\n        /* \"#utility.yul\":6958:6991   */\n      tag_163\n        /* \"#utility.yul\":6985:6990   */\n      dup2\n        /* \"#utility.yul\":6958:6991   */\n      tag_92\n      jump\t// in\n    tag_163:\n        /* \"#utility.yul\":6854:6997   */\n      swap3\n      swap2\n      pop\n      pop\n      jump\t// out\n        /* \"#utility.yul\":7003:7974   */\n    tag_64:\n        /* \"#utility.yul\":7106:7112   */\n      0x00\n        /* \"#utility.yul\":7114:7120   */\n      0x00\n        /* \"#utility.yul\":7122:7128   */\n      0x00\n        /* \"#utility.yul\":7130:7136   */\n      0x00\n        /* \"#utility.yul\":7138:7144   */\n      0x00\n        /* \"#utility.yul\":7187:7190   */\n      0xa0\n        /* \"#utility.yul\":7175:7184   */\n      dup7\n        /* \"#utility.yul\":7166:7173   */\n      dup9\n        /* \"#utility.yul\":7162:7185   */\n      sub\n        /* \"#utility.yul\":7158:7191   */\n      slt\n        /* \"#utility.yul\":7155:7275   */\n      iszero\n      tag_165\n      jumpi\n        /* \"#utility.yul\":7194:7273   */\n      tag_166\n      tag_85\n      jump\t// in\n    tag_166:\n        /* \"#utility.yul\":7155:7275   */\n    tag_165:\n        /* \"#utility.yul\":7314:7315   */\n      0x00\n        /* \"#utility.yul\":7339:7402   */\n      tag_167\n        /* \"#utility.yul\":7394:7401   */\n      dup9\n        /* \"#utility.yul\":7385:7391   */\n      dup3\n        /* \"#utility.yul\":7374:7383   */\n      dup10\n        /* \"#utility.yul\":7370:7392   */\n      add\n        /* \"#utility.yul\":7339:7402   */\n      tag_89\n      jump\t// in\n    tag_167:\n        /* \"#utility.yul\":7329:7402   */\n      swap6\n      pop\n        /* \"#utility.yul\":7285:7412   */\n      pop\n        /* \"#utility.yul\":7451:7453   */\n      0x20\n        /* \"#utility.yul\":7477:7540   */\n      tag_168\n        /* \"#utility.yul\":7532:7539   */\n      dup9\n        /* \"#utility.yul\":7523:7529   */\n      dup3\n        /* \"#utility.yul\":7512:7521   */\n      dup10\n        /* \"#utility.yul\":7508:7530   */\n      add\n        /* \"#utility.yul\":7477:7540   */\n      tag_91\n      jump\t// in\n    tag_168:\n        /* \"#utility.yul\":7467:7540   */\n      swap5\n      pop\n        /* \"#utility.yul\":7422:7550   */\n      pop\n        /* \"#utility.yul\":7589:7591   */\n      0x40\n        /* \"#utility.yul\":7615:7679   */\n      tag_169\n        /* \"#utility.yul\":7671:7678   */\n      dup9\n        /* \"#utility.yul\":7662:7668   */\n      dup3\n        /* \"#utility.yul\":7651:7660   */\n      dup10\n        /* \"#utility.yul\":7647:7669   */\n      add\n        /* \"#utility.yul\":7615:7679   */\n      tag_93\n      jump\t// in\n    tag_169:\n        /* \"#utility.yul\":7605:7679   */\n      swap4\n      pop\n        /* \"#utility.yul\":7560:7689   */\n      pop\n        /* \"#utility.yul\":7728:7730   */\n      0x60\n        /* \"#utility.yul\":7754:7818   */\n      tag_170\n        /* \"#utility.yul\":7810:7817   */\n      dup9\n        /* \"#utility.yul\":7801:7807   */\n      dup3\n        /* \"#utility.yul\":7790:7799   */\n      dup10\n        /* \"#utility.yul\":7786:7808   */\n      add\n        /* \"#utility.yul\":7754:7818   */\n      tag_93\n      jump\t// in\n    tag_170:\n        /* \"#utility.yul\":7744:7818   */\n      swap3\n      pop\n        /* \"#utility.yul\":7699:7828   */\n      pop\n        /* \"#utility.yul\":7867:7870   */\n      0x80\n        /* \"#utility.yul\":7894:7957   */\n      tag_171\n        /* \"#utility.yul\":7949:7956   */\n      dup9\n        /* \"#utility.yul\":7940:7946   */\n      dup3\n        /* \"#utility.yul\":7929:7938   */\n      dup10\n        /* \"#utility.yul\":7925:7947   */\n      add\n        /* \"#utility.yul\":7894:7957   */\n      tag_89\n      jump\t// in\n    tag_171:\n        /* \"#utility.yul\":7884:7957   */\n      swap2\n      pop\n        /* \"#utility.yul\":7838:7967   */\n      pop\n        /* \"#utility.yul\":7003:7974   */\n      swap3\n      swap6\n      pop\n      swap3\n      swap6\n      swap1\n      swap4\n      pop\n      jump\t// out\n        /* \"#utility.yul\":7980:8536   */\n    tag_66:\n        /* \"#utility.yul\":8019:8026   */\n      0x00\n        /* \"#utility.yul\":8042:8061   */\n      tag_173\n        /* \"#utility.yul\":8059:8060   */\n      dup3\n        /* \"#utility.yul\":8042:8061   */\n      tag_69\n      jump\t// in\n    tag_173:\n        /* \"#utility.yul\":8037:8061   */\n      swap2\n      pop\n        /* \"#utility.yul\":8075:8094   */\n      tag_174\n        /* \"#utility.yul\":8092:8093   */\n      dup4\n        /* \"#utility.yul\":8075:8094   */\n      tag_69\n      jump\t// in\n    tag_174:\n        /* \"#utility.yul\":8070:8094   */\n      swap3\n      pop\n        /* \"#utility.yul\":8129:8130   */\n      dup3\n        /* \"#utility.yul\":8126:8127   */\n      dup3\n        /* \"#utility.yul\":8122:8131   */\n      mul\n        /* \"#utility.yul\":8151:8180   */\n      tag_175\n        /* \"#utility.yul\":8168:8179   */\n      dup2\n        /* \"#utility.yul\":8151:8180   */\n      tag_69\n      jump\t// in\n    tag_175:\n        /* \"#utility.yul\":8140:8180   */\n      swap2\n      pop\n        /* \"#utility.yul\":8238:8304   */\n      0x8000000000000000000000000000000000000000000000000000000000000000\n        /* \"#utility.yul\":8235:8236   */\n      dup5\n        /* \"#utility.yul\":8232:8305   */\n      eq\n        /* \"#utility.yul\":8228:8229   */\n      0x00\n        /* \"#utility.yul\":8225:8226   */\n      dup5\n        /* \"#utility.yul\":8221:8230   */\n      slt\n        /* \"#utility.yul\":8217:8306   */\n      and\n        /* \"#utility.yul\":8214:8329   */\n      iszero\n      tag_176\n      jumpi\n        /* \"#utility.yul\":8309:8327   */\n      tag_177\n      tag_74\n      jump\t// in\n    tag_177:\n        /* \"#utility.yul\":8214:8329   */\n    tag_176:\n        /* \"#utility.yul\":8479:8480   */\n      dup3\n        /* \"#utility.yul\":8470:8477   */\n      dup3\n        /* \"#utility.yul\":8465:8481   */\n      sdiv\n        /* \"#utility.yul\":8462:8463   */\n      dup5\n        /* \"#utility.yul\":8459:8482   */\n      eq\n        /* \"#utility.yul\":8439:8440   */\n      dup4\n        /* \"#utility.yul\":8432:8441   */\n      iszero\n        /* \"#utility.yul\":8412:8496   */\n      or\n        /* \"#utility.yul\":8389:8529   */\n      tag_178\n      jumpi\n        /* \"#utility.yul\":8509:8527   */\n      tag_179\n      tag_74\n      jump\t// in\n    tag_179:\n        /* \"#utility.yul\":8389:8529   */\n    tag_178:\n        /* \"#utility.yul\":8027:8536   */\n      pop\n        /* \"#utility.yul\":7980:8536   */\n      swap3\n      swap2\n      pop\n      pop\n      jump\t// out\n\n    auxdata: 0xa2646970667358221220c83c69e6432e6f977794170810b017c02f89a065f4dff13d4fd4075497659cb464736f6c634300081c0033\n}\n",
				"bytecode": {
					"linkReferences": {},
					"object": "60a0604052674563918244f400005f5534801561001a575f5ffd5b506040516109ec3803806109ec833981810160405281019061003c9190610114565b3373ffffffffffffffffffffffffffffffffffffffff1660808173ffffffffffffffffffffffffffffffffffffffff16815250508060015f6101000a81548173ffffffffffffffffffffffffffffffffffffffff021916908373ffffffffffffffffffffffffffffffffffffffff1602179055505061013f565b5f5ffd5b5f73ffffffffffffffffffffffffffffffffffffffff82169050919050565b5f6100e3826100ba565b9050919050565b6100f3816100d9565b81146100fd575f5ffd5b50565b5f8151905061010e816100ea565b92915050565b5f60208284031215610129576101286100b6565b5b5f61013684828501610100565b91505092915050565b6080516108876101655f395f81816101ce0152818161023d01526103b901526108875ff3fe608060405260043610610058575f3560e01c806312065fe0146100715780633ccfd60b1461009b5780635deb0172146100b157806396237c02146100db578063b60d428814610105578063dba6335f1461010f57610067565b3661006757610065610139565b005b61006f610139565b005b34801561007c575f5ffd5b506100856101ae565b60405161009291906103f3565b60405180910390f35b3480156100a6575f5ffd5b506100af6101b5565b005b3480156100bc575f5ffd5b506100c5610305565b6040516100d291906103f3565b60405180910390f35b3480156100e6575f5ffd5b506100ef61030a565b6040516100fc9190610424565b60405180910390f35b61010d610139565b005b34801561011a575f5ffd5b506101236103b7565b604051610130919061047c565b60405180910390f35b5f61014261030a565b90505f670de0b6b3a7640000823461015a91906104c2565b6101649190610530565b90505f548110156101aa576040517f08c379a00000000000000000000000000000000000000000000000000000000081526004016101a190610606565b60405180910390fd5b5050565b5f47905090565b3373ffffffffffffffffffffffffffffffffffffffff167f000000000000000000000000000000000000000000000000000000000000000073ffffffffffffffffffffffffffffffffffffffff161461023a576040517f6d70620500000000000000000000000000000000000000000000000000000000815260040160405180910390fd5b5f7f000000000000000000000000000000000000000000000000000000000000000073ffffffffffffffffffffffffffffffffffffffff164760405161027f90610651565b5f6040518083038185875af1925050503d805f81146102b9576040519150601f19603f3d011682016040523d82523d5f602084013e6102be565b606091505b5050905080610302576040517f08c379a00000000000000000000000000000000000000000000000000000000081526004016102f9906106af565b60405180910390fd5b50565b5f5481565b5f5f60015f9054906101000a900473ffffffffffffffffffffffffffffffffffffffff1673ffffffffffffffffffffffffffffffffffffffff1663feaf968c6040518163ffffffff1660e01b815260040160a060405180830381865afa158015610376573d5f5f3e3d5ffd5b505050506040513d601f19601f8201168201806040525081019061039a9190610764565b5050509150506402540be400816103b191906107db565b91505090565b7f000000000000000000000000000000000000000000000000000000000000000081565b5f819050919050565b6103ed816103db565b82525050565b5f6020820190506104065f8301846103e4565b92915050565b5f819050919050565b61041e8161040c565b82525050565b5f6020820190506104375f830184610415565b92915050565b5f73ffffffffffffffffffffffffffffffffffffffff82169050919050565b5f6104668261043d565b9050919050565b6104768161045c565b82525050565b5f60208201905061048f5f83018461046d565b92915050565b7f4e487b71000000000000000000000000000000000000000000000000000000005f52601160045260245ffd5b5f6104cc826103db565b91506104d7836103db565b92508282026104e5816103db565b915082820484148315176104fc576104fb610495565b5b5092915050565b7f4e487b71000000000000000000000000000000000000000000000000000000005f52601260045260245ffd5b5f61053a826103db565b9150610545836103db565b92508261055557610554610503565b5b828204905092915050565b5f82825260208201905092915050565b7f596f757220616d6f756e7420697320696e73756666696369656e742c206174205f8201527f6c6561737420302e303031206574686572206f6e6365207472616e736163746960208201527f6f6e000000000000000000000000000000000000000000000000000000000000604082015250565b5f6105f0604283610560565b91506105fb82610570565b606082019050919050565b5f6020820190508181035f83015261061d816105e4565b9050919050565b5f81905092915050565b50565b5f61063c5f83610624565b91506106478261062e565b5f82019050919050565b5f61065b82610631565b9150819050919050565b7f4661696c656420746f20776974686472617720457468657273000000000000005f82015250565b5f610699601983610560565b91506106a482610665565b602082019050919050565b5f6020820190508181035f8301526106c68161068d565b9050919050565b5f5ffd5b5f69ffffffffffffffffffff82169050919050565b6106ef816106d1565b81146106f9575f5ffd5b50565b5f8151905061070a816106e6565b92915050565b6107198161040c565b8114610723575f5ffd5b50565b5f8151905061073481610710565b92915050565b610743816103db565b811461074d575f5ffd5b50565b5f8151905061075e8161073a565b92915050565b5f5f5f5f5f60a0868803121561077d5761077c6106cd565b5b5f61078a888289016106fc565b955050602061079b88828901610726565b94505060406107ac88828901610750565b93505060606107bd88828901610750565b92505060806107ce888289016106fc565b9150509295509295909350565b5f6107e58261040c565b91506107f08361040c565b92508282026107fe8161040c565b91507f800000000000000000000000000000000000000000000000000000000000000084145f8412161561083557610834610495565b5b828205841483151761084a57610849610495565b5b509291505056fea2646970667358221220c83c69e6432e6f977794170810b017c02f89a065f4dff13d4fd4075497659cb464736f6c634300081c0033",
					"opcodes": "PUSH1 0xA0 PUSH1 0x40 MSTORE PUSH8 0x4563918244F40000 PUSH0 SSTORE CALLVALUE DUP1 ISZERO PUSH2 0x1A JUMPI PUSH0 PUSH0 REVERT JUMPDEST POP PUSH1 0x40 MLOAD PUSH2 0x9EC CODESIZE SUB DUP1 PUSH2 0x9EC DUP4 CODECOPY DUP2 DUP2 ADD PUSH1 0x40 MSTORE DUP2 ADD SWAP1 PUSH2 0x3C SWAP2 SWAP1 PUSH2 0x114 JUMP JUMPDEST CALLER PUSH20 0xFFFFFFFFFFFFFFFFFFFFFFFFFFFFFFFFFFFFFFFF AND PUSH1 0x80 DUP2 PUSH20 0xFFFFFFFFFFFFFFFFFFFFFFFFFFFFFFFFFFFFFFFF AND DUP2 MSTORE POP POP DUP1 PUSH1 0x1 PUSH0 PUSH2 0x100 EXP DUP2 SLOAD DUP2 PUSH20 0xFFFFFFFFFFFFFFFFFFFFFFFFFFFFFFFFFFFFFFFF MUL NOT AND SWAP1 DUP4 PUSH20 0xFFFFFFFFFFFFFFFFFFFFFFFFFFFFFFFFFFFFFFFF AND MUL OR SWAP1 SSTORE POP POP PUSH2 0x13F JUMP JUMPDEST PUSH0 PUSH0 REVERT JUMPDEST PUSH0 PUSH20 0xFFFFFFFFFFFFFFFFFFFFFFFFFFFFFFFFFFFFFFFF DUP3 AND SWAP1 POP SWAP2 SWAP1 POP JUMP JUMPDEST PUSH0 PUSH2 0xE3 DUP3 PUSH2 0xBA JUMP JUMPDEST SWAP1 POP SWAP2 SWAP1 POP JUMP JUMPDEST PUSH2 0xF3 DUP2 PUSH2 0xD9 JUMP JUMPDEST DUP2 EQ PUSH2 0xFD JUMPI PUSH0 PUSH0 REVERT JUMPDEST POP JUMP JUMPDEST PUSH0 DUP2 MLOAD SWAP1 POP PUSH2 0x10E DUP2 PUSH2 0xEA JUMP JUMPDEST SWAP3 SWAP2 POP POP JUMP JUMPDEST PUSH0 PUSH1 0x20 DUP3 DUP5 SUB SLT ISZERO PUSH2 0x129 JUMPI PUSH2 0x128 PUSH2 0xB6 JUMP JUMPDEST JUMPDEST PUSH0 PUSH2 0x136 DUP5 DUP3 DUP6 ADD PUSH2 0x100 JUMP JUMPDEST SWAP2 POP POP SWAP3 SWAP2 POP POP JUMP JUMPDEST PUSH1 0x80 MLOAD PUSH2 0x887 PUSH2 0x165 PUSH0 CODECOPY PUSH0 DUP2 DUP2 PUSH2 0x1CE ADD MSTORE DUP2 DUP2 PUSH2 0x23D ADD MSTORE PUSH2 0x3B9 ADD MSTORE PUSH2 0x887 PUSH0 RETURN INVALID PUSH1 0x80 PUSH1 0x40 MSTORE PUSH1 0x4 CALLDATASIZE LT PUSH2 0x58 JUMPI PUSH0 CALLDATALOAD PUSH1 0xE0 SHR DUP1 PUSH4 0x12065FE0 EQ PUSH2 0x71 JUMPI DUP1 PUSH4 0x3CCFD60B EQ PUSH2 0x9B JUMPI DUP1 PUSH4 0x5DEB0172 EQ PUSH2 0xB1 JUMPI DUP1 PUSH4 0x96237C02 EQ PUSH2 0xDB JUMPI DUP1 PUSH4 0xB60D4288 EQ PUSH2 0x105 JUMPI DUP1 PUSH4 0xDBA6335F EQ PUSH2 0x10F JUMPI PUSH2 0x67 JUMP JUMPDEST CALLDATASIZE PUSH2 0x67 JUMPI PUSH2 0x65 PUSH2 0x139 JUMP JUMPDEST STOP JUMPDEST PUSH2 0x6F PUSH2 0x139 JUMP JUMPDEST STOP JUMPDEST CALLVALUE DUP1 ISZERO PUSH2 0x7C JUMPI PUSH0 PUSH0 REVERT JUMPDEST POP PUSH2 0x85 PUSH2 0x1AE JUMP JUMPDEST PUSH1 0x40 MLOAD PUSH2 0x92 SWAP2 SWAP1 PUSH2 0x3F3 JUMP JUMPDEST PUSH1 0x40 MLOAD DUP1 SWAP2 SUB SWAP1 RETURN JUMPDEST CALLVALUE DUP1 ISZERO PUSH2 0xA6 JUMPI PUSH0 PUSH0 REVERT JUMPDEST POP PUSH2 0xAF PUSH2 0x1B5 JUMP JUMPDEST STOP JUMPDEST CALLVALUE DUP1 ISZERO PUSH2 0xBC JUMPI PUSH0 PUSH0 REVERT JUMPDEST POP PUSH2 0xC5 PUSH2 0x305 JUMP JUMPDEST PUSH1 0x40 MLOAD PUSH2 0xD2 SWAP2 SWAP1 PUSH2 0x3F3 JUMP JUMPDEST PUSH1 0x40 MLOAD DUP1 SWAP2 SUB SWAP1 RETURN JUMPDEST CALLVALUE DUP1 ISZERO PUSH2 0xE6 JUMPI PUSH0 PUSH0 REVERT JUMPDEST POP PUSH2 0xEF PUSH2 0x30A JUMP JUMPDEST PUSH1 0x40 MLOAD PUSH2 0xFC SWAP2 SWAP1 PUSH2 0x424 JUMP JUMPDEST PUSH1 0x40 MLOAD DUP1 SWAP2 SUB SWAP1 RETURN JUMPDEST PUSH2 0x10D PUSH2 0x139 JUMP JUMPDEST STOP JUMPDEST CALLVALUE DUP1 ISZERO PUSH2 0x11A JUMPI PUSH0 PUSH0 REVERT JUMPDEST POP PUSH2 0x123 PUSH2 0x3B7 JUMP JUMPDEST PUSH1 0x40 MLOAD PUSH2 0x130 SWAP2 SWAP1 PUSH2 0x47C JUMP JUMPDEST PUSH1 0x40 MLOAD DUP1 SWAP2 SUB SWAP1 RETURN JUMPDEST PUSH0 PUSH2 0x142 PUSH2 0x30A JUMP JUMPDEST SWAP1 POP PUSH0 PUSH8 0xDE0B6B3A7640000 DUP3 CALLVALUE PUSH2 0x15A SWAP2 SWAP1 PUSH2 0x4C2 JUMP JUMPDEST PUSH2 0x164 SWAP2 SWAP1 PUSH2 0x530 JUMP JUMPDEST SWAP1 POP PUSH0 SLOAD DUP2 LT ISZERO PUSH2 0x1AA JUMPI PUSH1 0x40 MLOAD PUSH32 0x8C379A000000000000000000000000000000000000000000000000000000000 DUP2 MSTORE PUSH1 0x4 ADD PUSH2 0x1A1 SWAP1 PUSH2 0x606 JUMP JUMPDEST PUSH1 0x40 MLOAD DUP1 SWAP2 SUB SWAP1 REVERT JUMPDEST POP POP JUMP JUMPDEST PUSH0 SELFBALANCE SWAP1 POP SWAP1 JUMP JUMPDEST CALLER PUSH20 0xFFFFFFFFFFFFFFFFFFFFFFFFFFFFFFFFFFFFFFFF AND PUSH32 0x0 PUSH20 0xFFFFFFFFFFFFFFFFFFFFFFFFFFFFFFFFFFFFFFFF AND EQ PUSH2 0x23A JUMPI PUSH1 0x40 MLOAD PUSH32 0x6D70620500000000000000000000000000000000000000000000000000000000 DUP2 MSTORE PUSH1 0x4 ADD PUSH1 0x40 MLOAD DUP1 SWAP2 SUB SWAP1 REVERT JUMPDEST PUSH0 PUSH32 0x0 PUSH20 0xFFFFFFFFFFFFFFFFFFFFFFFFFFFFFFFFFFFFFFFF AND SELFBALANCE PUSH1 0x40 MLOAD PUSH2 0x27F SWAP1 PUSH2 0x651 JUMP JUMPDEST PUSH0 PUSH1 0x40 MLOAD DUP1 DUP4 SUB DUP2 DUP6 DUP8 GAS CALL SWAP3 POP POP POP RETURNDATASIZE DUP1 PUSH0 DUP2 EQ PUSH2 0x2B9 JUMPI PUSH1 0x40 MLOAD SWAP2 POP PUSH1 0x1F NOT PUSH1 0x3F RETURNDATASIZE ADD AND DUP3 ADD PUSH1 0x40 MSTORE RETURNDATASIZE DUP3 MSTORE RETURNDATASIZE PUSH0 PUSH1 0x20 DUP5 ADD RETURNDATACOPY PUSH2 0x2BE JUMP JUMPDEST PUSH1 0x60 SWAP2 POP JUMPDEST POP POP SWAP1 POP DUP1 PUSH2 0x302 JUMPI PUSH1 0x40 MLOAD PUSH32 0x8C379A000000000000000000000000000000000000000000000000000000000 DUP2 MSTORE PUSH1 0x4 ADD PUSH2 0x2F9 SWAP1 PUSH2 0x6AF JUMP JUMPDEST PUSH1 0x40 MLOAD DUP1 SWAP2 SUB SWAP1 REVERT JUMPDEST POP JUMP JUMPDEST PUSH0 SLOAD DUP2 JUMP JUMPDEST PUSH0 PUSH0 PUSH1 0x1 PUSH0 SWAP1 SLOAD SWAP1 PUSH2 0x100 EXP SWAP1 DIV PUSH20 0xFFFFFFFFFFFFFFFFFFFFFFFFFFFFFFFFFFFFFFFF AND PUSH20 0xFFFFFFFFFFFFFFFFFFFFFFFFFFFFFFFFFFFFFFFF AND PUSH4 0xFEAF968C PUSH1 0x40 MLOAD DUP2 PUSH4 0xFFFFFFFF AND PUSH1 0xE0 SHL DUP2 MSTORE PUSH1 0x4 ADD PUSH1 0xA0 PUSH1 0x40 MLOAD DUP1 DUP4 SUB DUP2 DUP7 GAS STATICCALL ISZERO DUP1 ISZERO PUSH2 0x376 JUMPI RETURNDATASIZE PUSH0 PUSH0 RETURNDATACOPY RETURNDATASIZE PUSH0 REVERT JUMPDEST POP POP POP POP PUSH1 0x40 MLOAD RETURNDATASIZE PUSH1 0x1F NOT PUSH1 0x1F DUP3 ADD AND DUP3 ADD DUP1 PUSH1 0x40 MSTORE POP DUP2 ADD SWAP1 PUSH2 0x39A SWAP2 SWAP1 PUSH2 0x764 JUMP JUMPDEST POP POP POP SWAP2 POP POP PUSH5 0x2540BE400 DUP2 PUSH2 0x3B1 SWAP2 SWAP1 PUSH2 0x7DB JUMP JUMPDEST SWAP2 POP POP SWAP1 JUMP JUMPDEST PUSH32 0x0 DUP2 JUMP JUMPDEST PUSH0 DUP2 SWAP1 POP SWAP2 SWAP1 POP JUMP JUMPDEST PUSH2 0x3ED DUP2 PUSH2 0x3DB JUMP JUMPDEST DUP3 MSTORE POP POP JUMP JUMPDEST PUSH0 PUSH1 0x20 DUP3 ADD SWAP1 POP PUSH2 0x406 PUSH0 DUP4 ADD DUP5 PUSH2 0x3E4 JUMP JUMPDEST SWAP3 SWAP2 POP POP JUMP JUMPDEST PUSH0 DUP2 SWAP1 POP SWAP2 SWAP1 POP JUMP JUMPDEST PUSH2 0x41E DUP2 PUSH2 0x40C JUMP JUMPDEST DUP3 MSTORE POP POP JUMP JUMPDEST PUSH0 PUSH1 0x20 DUP3 ADD SWAP1 POP PUSH2 0x437 PUSH0 DUP4 ADD DUP5 PUSH2 0x415 JUMP JUMPDEST SWAP3 SWAP2 POP POP JUMP JUMPDEST PUSH0 PUSH20 0xFFFFFFFFFFFFFFFFFFFFFFFFFFFFFFFFFFFFFFFF DUP3 AND SWAP1 POP SWAP2 SWAP1 POP JUMP JUMPDEST PUSH0 PUSH2 0x466 DUP3 PUSH2 0x43D JUMP JUMPDEST SWAP1 POP SWAP2 SWAP1 POP JUMP JUMPDEST PUSH2 0x476 DUP2 PUSH2 0x45C JUMP JUMPDEST DUP3 MSTORE POP POP JUMP JUMPDEST PUSH0 PUSH1 0x20 DUP3 ADD SWAP1 POP PUSH2 0x48F PUSH0 DUP4 ADD DUP5 PUSH2 0x46D JUMP JUMPDEST SWAP3 SWAP2 POP POP JUMP JUMPDEST PUSH32 0x4E487B7100000000000000000000000000000000000000000000000000000000 PUSH0 MSTORE PUSH1 0x11 PUSH1 0x4 MSTORE PUSH1 0x24 PUSH0 REVERT JUMPDEST PUSH0 PUSH2 0x4CC DUP3 PUSH2 0x3DB JUMP JUMPDEST SWAP2 POP PUSH2 0x4D7 DUP4 PUSH2 0x3DB JUMP JUMPDEST SWAP3 POP DUP3 DUP3 MUL PUSH2 0x4E5 DUP2 PUSH2 0x3DB JUMP JUMPDEST SWAP2 POP DUP3 DUP3 DIV DUP5 EQ DUP4 ISZERO OR PUSH2 0x4FC JUMPI PUSH2 0x4FB PUSH2 0x495 JUMP JUMPDEST JUMPDEST POP SWAP3 SWAP2 POP POP JUMP JUMPDEST PUSH32 0x4E487B7100000000000000000000000000000000000000000000000000000000 PUSH0 MSTORE PUSH1 0x12 PUSH1 0x4 MSTORE PUSH1 0x24 PUSH0 REVERT JUMPDEST PUSH0 PUSH2 0x53A DUP3 PUSH2 0x3DB JUMP JUMPDEST SWAP2 POP PUSH2 0x545 DUP4 PUSH2 0x3DB JUMP JUMPDEST SWAP3 POP DUP3 PUSH2 0x555 JUMPI PUSH2 0x554 PUSH2 0x503 JUMP JUMPDEST JUMPDEST DUP3 DUP3 DIV SWAP1 POP SWAP3 SWAP2 POP POP JUMP JUMPDEST PUSH0 DUP3 DUP3 MSTORE PUSH1 0x20 DUP3 ADD SWAP1 POP SWAP3 SWAP2 POP POP JUMP JUMPDEST PUSH32 0x596F757220616D6F756E7420697320696E73756666696369656E742C20617420 PUSH0 DUP3 ADD MSTORE PUSH32 0x6C6561737420302E303031206574686572206F6E6365207472616E7361637469 PUSH1 0x20 DUP3 ADD MSTORE PUSH32 0x6F6E000000000000000000000000000000000000000000000000000000000000 PUSH1 0x40 DUP3 ADD MSTORE POP JUMP JUMPDEST PUSH0 PUSH2 0x5F0 PUSH1 0x42 DUP4 PUSH2 0x560 JUMP JUMPDEST SWAP2 POP PUSH2 0x5FB DUP3 PUSH2 0x570 JUMP JUMPDEST PUSH1 0x60 DUP3 ADD SWAP1 POP SWAP2 SWAP1 POP JUMP JUMPDEST PUSH0 PUSH1 0x20 DUP3 ADD SWAP1 POP DUP2 DUP2 SUB PUSH0 DUP4 ADD MSTORE PUSH2 0x61D DUP2 PUSH2 0x5E4 JUMP JUMPDEST SWAP1 POP SWAP2 SWAP1 POP JUMP JUMPDEST PUSH0 DUP2 SWAP1 POP SWAP3 SWAP2 POP POP JUMP JUMPDEST POP JUMP JUMPDEST PUSH0 PUSH2 0x63C PUSH0 DUP4 PUSH2 0x624 JUMP JUMPDEST SWAP2 POP PUSH2 0x647 DUP3 PUSH2 0x62E JUMP JUMPDEST PUSH0 DUP3 ADD SWAP1 POP SWAP2 SWAP1 POP JUMP JUMPDEST PUSH0 PUSH2 0x65B DUP3 PUSH2 0x631 JUMP JUMPDEST SWAP2 POP DUP2 SWAP1 POP SWAP2 SWAP1 POP JUMP JUMPDEST PUSH32 0x4661696C656420746F2077697468647261772045746865727300000000000000 PUSH0 DUP3 ADD MSTORE POP JUMP JUMPDEST PUSH0 PUSH2 0x699 PUSH1 0x19 DUP4 PUSH2 0x560 JUMP JUMPDEST SWAP2 POP PUSH2 0x6A4 DUP3 PUSH2 0x665 JUMP JUMPDEST PUSH1 0x20 DUP3 ADD SWAP1 POP SWAP2 SWAP1 POP JUMP JUMPDEST PUSH0 PUSH1 0x20 DUP3 ADD SWAP1 POP DUP2 DUP2 SUB PUSH0 DUP4 ADD MSTORE PUSH2 0x6C6 DUP2 PUSH2 0x68D JUMP JUMPDEST SWAP1 POP SWAP2 SWAP1 POP JUMP JUMPDEST PUSH0 PUSH0 REVERT JUMPDEST PUSH0 PUSH10 0xFFFFFFFFFFFFFFFFFFFF DUP3 AND SWAP1 POP SWAP2 SWAP1 POP JUMP JUMPDEST PUSH2 0x6EF DUP2 PUSH2 0x6D1 JUMP JUMPDEST DUP2 EQ PUSH2 0x6F9 JUMPI PUSH0 PUSH0 REVERT JUMPDEST POP JUMP JUMPDEST PUSH0 DUP2 MLOAD SWAP1 POP PUSH2 0x70A DUP2 PUSH2 0x6E6 JUMP JUMPDEST SWAP3 SWAP2 POP POP JUMP JUMPDEST PUSH2 0x719 DUP2 PUSH2 0x40C JUMP JUMPDEST DUP2 EQ PUSH2 0x723 JUMPI PUSH0 PUSH0 REVERT JUMPDEST POP JUMP JUMPDEST PUSH0 DUP2 MLOAD SWAP1 POP PUSH2 0x734 DUP2 PUSH2 0x710 JUMP JUMPDEST SWAP3 SWAP2 POP POP JUMP JUMPDEST PUSH2 0x743 DUP2 PUSH2 0x3DB JUMP JUMPDEST DUP2 EQ PUSH2 0x74D JUMPI PUSH0 PUSH0 REVERT JUMPDEST POP JUMP JUMPDEST PUSH0 DUP2 MLOAD SWAP1 POP PUSH2 0x75E DUP2 PUSH2 0x73A JUMP JUMPDEST SWAP3 SWAP2 POP POP JUMP JUMPDEST PUSH0 PUSH0 PUSH0 PUSH0 PUSH0 PUSH1 0xA0 DUP7 DUP9 SUB SLT ISZERO PUSH2 0x77D JUMPI PUSH2 0x77C PUSH2 0x6CD JUMP JUMPDEST JUMPDEST PUSH0 PUSH2 0x78A DUP9 DUP3 DUP10 ADD PUSH2 0x6FC JUMP JUMPDEST SWAP6 POP POP PUSH1 0x20 PUSH2 0x79B DUP9 DUP3 DUP10 ADD PUSH2 0x726 JUMP JUMPDEST SWAP5 POP POP PUSH1 0x40 PUSH2 0x7AC DUP9 DUP3 DUP10 ADD PUSH2 0x750 JUMP JUMPDEST SWAP4 POP POP PUSH1 0x60 PUSH2 0x7BD DUP9 DUP3 DUP10 ADD PUSH2 0x750 JUMP JUMPDEST SWAP3 POP POP PUSH1 0x80 PUSH2 0x7CE DUP9 DUP3 DUP10 ADD PUSH2 0x6FC JUMP JUMPDEST SWAP2 POP POP SWAP3 SWAP6 POP SWAP3 SWAP6 SWAP1 SWAP4 POP JUMP JUMPDEST PUSH0 PUSH2 0x7E5 DUP3 PUSH2 0x40C JUMP JUMPDEST SWAP2 POP PUSH2 0x7F0 DUP4 PUSH2 0x40C JUMP JUMPDEST SWAP3 POP DUP3 DUP3 MUL PUSH2 0x7FE DUP2 PUSH2 0x40C JUMP JUMPDEST SWAP2 POP PUSH32 0x8000000000000000000000000000000000000000000000000000000000000000 DUP5 EQ PUSH0 DUP5 SLT AND ISZERO PUSH2 0x835 JUMPI PUSH2 0x834 PUSH2 0x495 JUMP JUMPDEST JUMPDEST DUP3 DUP3 SDIV DUP5 EQ DUP4 ISZERO OR PUSH2 0x84A JUMPI PUSH2 0x849 PUSH2 0x495 JUMP JUMPDEST JUMPDEST POP SWAP3 SWAP2 POP POP JUMP INVALID LOG2 PUSH5 0x6970667358 0x22 SLT KECCAK256 0xC8 EXTCODECOPY PUSH10 0xE6432E6F977794170810 0xB0 OR 0xC0 0x2F DUP10 LOG0 PUSH6 0xF4DFF13D4FD4 SMOD SLOAD SWAP8 PUSH6 0x9CB464736F6C PUSH4 0x4300081C STOP CALLER "
				},
				"gasEstimates": {
					"creation": {
						"codeDepositCost": "436600",
						"executionCost": "infinite",
						"totalCost": "infinite"
					},
					"external": {
						"": "infinite",
						"MINIMUM_FUND()": "2446",
						"fund()": "infinite",
						"getBalance()": "312",
						"getLatestAnswer()": "infinite",
						"i_owner()": "infinite",
						"withdraw()": "infinite"
					}
				},
				"methodIdentifiers": {
					"MINIMUM_FUND()": "5deb0172",
					"fund()": "b60d4288",
					"getBalance()": "12065fe0",
					"getLatestAnswer()": "96237c02",
					"i_owner()": "dba6335f",
					"withdraw()": "3ccfd60b"
				}
			},
			"storageLayout": {
				"storage": [
					{
						"astId": 54,
						"contract": "CrowdFunding/CrownFunding.sol:CrownFunding",
						"label": "MINIMUM_FUND",
						"offset": 0,
						"slot": "0",
						"type": "t_uint256"
					},
					{
						"astId": 59,
						"contract": "CrowdFunding/CrownFunding.sol:CrownFunding",
						"label": "dataFeed",
						"offset": 0,
						"slot": "1",
						"type": "t_contract(AggregatorV3Interface)45"
					}
				],
				"types": {
					"t_contract(AggregatorV3Interface)45": {
						"encoding": "inplace",
						"label": "contract AggregatorV3Interface",
						"numberOfBytes": "20"
					},
					"t_uint256": {
						"encoding": "inplace",
						"label": "uint256",
						"numberOfBytes": "32"
					}
				}
			},
			"userdoc": {
				"kind": "user",
				"methods": {},
				"version": 1
			}
		}
	}
}