{
	"CrowdFunding/CrownFunding.sol": {
		"CrownFunding": {
			"abi": [
				{
					"inputs": [],
					"stateMutability": "nonpayable",
					"type": "constructor"
				},
				{
					"inputs": [],
					"name": "NoAvailableAmount",
					"type": "error"
				},
				{
					"anonymous": false,
					"inputs": [
						{
							"indexed": true,
							"internalType": "address",
							"name": "funder",
							"type": "address"
						},
						{
							"indexed": false,
							"internalType": "uint256",
							"name": "value",
							"type": "uint256"
						}
					],
					"name": "Funded",
					"type": "event"
				},
				{
					"anonymous": false,
					"inputs": [
						{
							"indexed": true,
							"internalType": "address",
							"name": "owner",
							"type": "address"
						},
						{
							"indexed": false,
							"internalType": "uint256",
							"name": "value",
							"type": "uint256"
						}
					],
					"name": "Withdraw",
					"type": "event"
				},
				{
					"stateMutability": "payable",
					"type": "fallback"
				},
				{
					"inputs": [],
					"name": "MINIMUM_FUND",
					"outputs": [
						{
							"internalType": "uint256",
							"name": "",
							"type": "uint256"
						}
					],
					"stateMutability": "view",
					"type": "function"
				},
				{
					"inputs": [],
					"name": "fund",
					"outputs": [],
					"stateMutability": "payable",
					"type": "function"
				},
				{
					"inputs": [
						{
							"internalType": "address",
							"name": "funder",
							"type": "address"
						}
					],
					"name": "funderToAmount",
					"outputs": [
						{
							"internalType": "uint256",
							"name": "value",
							"type": "uint256"
						}
					],
					"stateMutability": "view",
					"type": "function"
				},
				{
					"inputs": [
						{
							"internalType": "uint256",
							"name": "",
							"type": "uint256"
						}
					],
					"name": "funders",
					"outputs": [
						{
							"internalType": "address",
							"name": "",
							"type": "address"
						}
					],
					"stateMutability": "view",
					"type": "function"
				},
				{
					"inputs": [],
					"name": "getBalance",
					"outputs": [
						{
							"internalType": "uint256",
							"name": "",
							"type": "uint256"
						}
					],
					"stateMutability": "view",
					"type": "function"
				},
				{
					"inputs": [],
					"name": "getNumberOfFunders",
					"outputs": [
						{
							"internalType": "uint256",
							"name": "",
							"type": "uint256"
						}
					],
					"stateMutability": "view",
					"type": "function"
				},
				{
					"inputs": [],
					"name": "i_owner",
					"outputs": [
						{
							"internalType": "address",
							"name": "",
							"type": "address"
						}
					],
					"stateMutability": "view",
					"type": "function"
				},
				{
					"inputs": [
						{
							"internalType": "address",
							"name": "funder",
							"type": "address"
						}
					],
					"name": "isFunders",
					"outputs": [
						{
							"internalType": "bool",
							"name": "isFunded",
							"type": "bool"
						}
					],
					"stateMutability": "view",
					"type": "function"
				},
				{
					"inputs": [],
					"name": "withdraw",
					"outputs": [],
					"stateMutability": "nonpayable",
					"type": "function"
				},
				{
					"stateMutability": "payable",
					"type": "receive"
				}
			],
			"devdoc": {
				"kind": "dev",
				"methods": {},
				"version": 1
			},
			"evm": {
				"assembly": "    /* \"CrowdFunding/CrownFunding.sol\":122:1882  contract CrownFunding {... */\n  mstore(0x40, 0xa0)\n    /* \"CrowdFunding/CrownFunding.sol\":249:253  5e18 */\n  0x4563918244f40000\n    /* \"CrowdFunding/CrownFunding.sol\":219:253  uint256 public MINIMUM_FUND = 5e18 */\n  0x00\n  sstore\n    /* \"CrowdFunding/CrownFunding.sol\":704:755  constructor() {... */\n  callvalue\n  dup1\n  iszero\n  tag_1\n  jumpi\n  revert(0x00, 0x00)\ntag_1:\n  pop\n    /* \"CrowdFunding/CrownFunding.sol\":738:748  msg.sender */\n  caller\n    /* \"CrowdFunding/CrownFunding.sol\":728:748  i_owner = msg.sender */\n  0xffffffffffffffffffffffffffffffffffffffff\n  and\n  0x80\n  dup2\n  0xffffffffffffffffffffffffffffffffffffffff\n  and\n  dup2\n  mstore\n  pop\n  pop\n    /* \"CrowdFunding/CrownFunding.sol\":122:1882  contract CrownFunding {... */\n  mload(0x80)\n  codecopy(0x00, dataOffset(sub_0), dataSize(sub_0))\n  0x00\n  assignImmutable(\"0xdec29173c70f4e70086d64e09cb72b415f3d6a1843817cff62483903f0e12f62\")\n  return(0x00, dataSize(sub_0))\nstop\n\nsub_0: assembly {\n        /* \"CrowdFunding/CrownFunding.sol\":122:1882  contract CrownFunding {... */\n      mstore(0x40, 0x80)\n      jumpi(tag_1, lt(calldatasize, 0x04))\n      shr(0xe0, calldataload(0x00))\n      dup1\n      0xb60d4288\n      gt\n      tag_12\n      jumpi\n      dup1\n      0xb60d4288\n      eq\n      tag_7\n      jumpi\n      dup1\n      0xcce8c26a\n      eq\n      tag_8\n      jumpi\n      dup1\n      0xcf718fdc\n      eq\n      tag_9\n      jumpi\n      dup1\n      0xdba6335f\n      eq\n      tag_10\n      jumpi\n      dup1\n      0xdc0d3dff\n      eq\n      tag_11\n      jumpi\n      jump(tag_2)\n    tag_12:\n      dup1\n      0x12065fe0\n      eq\n      tag_3\n      jumpi\n      dup1\n      0x3ccfd60b\n      eq\n      tag_4\n      jumpi\n      dup1\n      0x4407e1e8\n      eq\n      tag_5\n      jumpi\n      dup1\n      0x5deb0172\n      eq\n      tag_6\n      jumpi\n      jump(tag_2)\n    tag_1:\n      jumpi(tag_2, calldatasize)\n        /* \"CrowdFunding/CrownFunding.sol\":628:634  fund() */\n      tag_15\n        /* \"CrowdFunding/CrownFunding.sol\":628:632  fund */\n      tag_16\n        /* \"CrowdFunding/CrownFunding.sol\":628:634  fund() */\n      jump\t// in\n    tag_15:\n        /* \"CrowdFunding/CrownFunding.sol\":122:1882  contract CrownFunding {... */\n      stop\n    tag_2:\n        /* \"CrowdFunding/CrownFunding.sol\":685:691  fund() */\n      tag_19\n        /* \"CrowdFunding/CrownFunding.sol\":685:689  fund */\n      tag_16\n        /* \"CrowdFunding/CrownFunding.sol\":685:691  fund() */\n      jump\t// in\n    tag_19:\n        /* \"CrowdFunding/CrownFunding.sol\":122:1882  contract CrownFunding {... */\n      stop\n        /* \"CrowdFunding/CrownFunding.sol\":1679:1776  function getBalance() public view returns (uint256) {... */\n    tag_3:\n      callvalue\n      dup1\n      iszero\n      tag_20\n      jumpi\n      revert(0x00, 0x00)\n    tag_20:\n      pop\n      tag_21\n      tag_22\n      jump\t// in\n    tag_21:\n      mload(0x40)\n      tag_23\n      swap2\n      swap1\n      tag_24\n      jump\t// in\n    tag_23:\n      mload(0x40)\n      dup1\n      swap2\n      sub\n      swap1\n      return\n        /* \"CrowdFunding/CrownFunding.sol\":1364:1673  function withdraw() public ownerOnly {... */\n    tag_4:\n      callvalue\n      dup1\n      iszero\n      tag_25\n      jumpi\n      revert(0x00, 0x00)\n    tag_25:\n      pop\n      tag_26\n      tag_27\n      jump\t// in\n    tag_26:\n      stop\n        /* \"CrowdFunding/CrownFunding.sol\":376:438  mapping(address funder => uint256 value) public funderToAmount */\n    tag_5:\n      callvalue\n      dup1\n      iszero\n      tag_28\n      jumpi\n      revert(0x00, 0x00)\n    tag_28:\n      pop\n      tag_29\n      0x04\n      dup1\n      calldatasize\n      sub\n      dup2\n      add\n      swap1\n      tag_30\n      swap2\n      swap1\n      tag_31\n      jump\t// in\n    tag_30:\n      tag_32\n      jump\t// in\n    tag_29:\n      mload(0x40)\n      tag_33\n      swap2\n      swap1\n      tag_24\n      jump\t// in\n    tag_33:\n      mload(0x40)\n      dup1\n      swap2\n      sub\n      swap1\n      return\n        /* \"CrowdFunding/CrownFunding.sol\":219:253  uint256 public MINIMUM_FUND = 5e18 */\n    tag_6:\n      callvalue\n      dup1\n      iszero\n      tag_34\n      jumpi\n      revert(0x00, 0x00)\n    tag_34:\n      pop\n      tag_35\n      tag_36\n      jump\t// in\n    tag_35:\n      mload(0x40)\n      tag_37\n      swap2\n      swap1\n      tag_24\n      jump\t// in\n    tag_37:\n      mload(0x40)\n      dup1\n      swap2\n      sub\n      swap1\n      return\n        /* \"CrowdFunding/CrownFunding.sol\":893:1358  function fund() public payable {... */\n    tag_7:\n      tag_38\n      tag_16\n      jump\t// in\n    tag_38:\n      stop\n        /* \"CrowdFunding/CrownFunding.sol\":1782:1880  function getNumberOfFunders() public  view returns(uint256) {... */\n    tag_8:\n      callvalue\n      dup1\n      iszero\n      tag_39\n      jumpi\n      revert(0x00, 0x00)\n    tag_39:\n      pop\n      tag_40\n      tag_41\n      jump\t// in\n    tag_40:\n      mload(0x40)\n      tag_42\n      swap2\n      swap1\n      tag_24\n      jump\t// in\n    tag_42:\n      mload(0x40)\n      dup1\n      swap2\n      sub\n      swap1\n      return\n        /* \"CrowdFunding/CrownFunding.sol\":313:370  mapping(address funder => bool isFunded) public isFunders */\n    tag_9:\n      callvalue\n      dup1\n      iszero\n      tag_43\n      jumpi\n      revert(0x00, 0x00)\n    tag_43:\n      pop\n      tag_44\n      0x04\n      dup1\n      calldatasize\n      sub\n      dup2\n      add\n      swap1\n      tag_45\n      swap2\n      swap1\n      tag_31\n      jump\t// in\n    tag_45:\n      tag_46\n      jump\t// in\n    tag_44:\n      mload(0x40)\n      tag_47\n      swap2\n      swap1\n      tag_48\n      jump\t// in\n    tag_47:\n      mload(0x40)\n      dup1\n      swap2\n      sub\n      swap1\n      return\n        /* \"CrowdFunding/CrownFunding.sol\":274:306  address public immutable i_owner */\n    tag_10:\n      callvalue\n      dup1\n      iszero\n      tag_49\n      jumpi\n      revert(0x00, 0x00)\n    tag_49:\n      pop\n      tag_50\n      tag_51\n      jump\t// in\n    tag_50:\n      mload(0x40)\n      tag_52\n      swap2\n      swap1\n      tag_53\n      jump\t// in\n    tag_52:\n      mload(0x40)\n      dup1\n      swap2\n      sub\n      swap1\n      return\n        /* \"CrowdFunding/CrownFunding.sol\":444:468  address[] public funders */\n    tag_11:\n      callvalue\n      dup1\n      iszero\n      tag_54\n      jumpi\n      revert(0x00, 0x00)\n    tag_54:\n      pop\n      tag_55\n      0x04\n      dup1\n      calldatasize\n      sub\n      dup2\n      add\n      swap1\n      tag_56\n      swap2\n      swap1\n      tag_57\n      jump\t// in\n    tag_56:\n      tag_58\n      jump\t// in\n    tag_55:\n      mload(0x40)\n      tag_59\n      swap2\n      swap1\n      tag_53\n      jump\t// in\n    tag_59:\n      mload(0x40)\n      dup1\n      swap2\n      sub\n      swap1\n      return\n        /* \"CrowdFunding/CrownFunding.sol\":893:1358  function fund() public payable {... */\n    tag_16:\n        /* \"CrowdFunding/CrownFunding.sol\":990:1002  MINIMUM_FUND */\n      sload(0x00)\n        /* \"CrowdFunding/CrownFunding.sol\":955:986  msg.value.getConversationRate() */\n      tag_61\n        /* \"CrowdFunding/CrownFunding.sol\":955:964  msg.value */\n      callvalue\n        /* \"CrowdFunding/CrownFunding.sol\":955:984  msg.value.getConversationRate */\n      tag_62\n        /* \"CrowdFunding/CrownFunding.sol\":955:986  msg.value.getConversationRate() */\n      jump\t// in\n    tag_61:\n        /* \"CrowdFunding/CrownFunding.sol\":955:1002  msg.value.getConversationRate() >= MINIMUM_FUND */\n      lt\n      iszero\n        /* \"CrowdFunding/CrownFunding.sol\":934:1094  require(... */\n      tag_63\n      jumpi\n      mload(0x40)\n      0x08c379a000000000000000000000000000000000000000000000000000000000\n      dup2\n      mstore\n      0x04\n      add\n      tag_64\n      swap1\n      tag_65\n      jump\t// in\n    tag_64:\n      mload(0x40)\n      dup1\n      swap2\n      sub\n      swap1\n      revert\n    tag_63:\n        /* \"CrowdFunding/CrownFunding.sol\":1135:1144  msg.value */\n      callvalue\n        /* \"CrowdFunding/CrownFunding.sol\":1105:1119  funderToAmount */\n      0x02\n        /* \"CrowdFunding/CrownFunding.sol\":1105:1131  funderToAmount[msg.sender] */\n      0x00\n        /* \"CrowdFunding/CrownFunding.sol\":1120:1130  msg.sender */\n      caller\n        /* \"CrowdFunding/CrownFunding.sol\":1105:1131  funderToAmount[msg.sender] */\n      0xffffffffffffffffffffffffffffffffffffffff\n      and\n      0xffffffffffffffffffffffffffffffffffffffff\n      and\n      dup2\n      mstore\n      0x20\n      add\n      swap1\n      dup2\n      mstore\n      0x20\n      add\n      0x00\n      keccak256\n      0x00\n        /* \"CrowdFunding/CrownFunding.sol\":1105:1144  funderToAmount[msg.sender] += msg.value */\n      dup3\n      dup3\n      sload\n      tag_66\n      swap2\n      swap1\n      tag_67\n      jump\t// in\n    tag_66:\n      swap3\n      pop\n      pop\n      dup2\n      swap1\n      sstore\n      pop\n        /* \"CrowdFunding/CrownFunding.sol\":1154:1168  bool isFundded */\n      0x00\n        /* \"CrowdFunding/CrownFunding.sol\":1171:1180  isFunders */\n      0x01\n        /* \"CrowdFunding/CrownFunding.sol\":1171:1192  isFunders[msg.sender] */\n      0x00\n        /* \"CrowdFunding/CrownFunding.sol\":1181:1191  msg.sender */\n      caller\n        /* \"CrowdFunding/CrownFunding.sol\":1171:1192  isFunders[msg.sender] */\n      0xffffffffffffffffffffffffffffffffffffffff\n      and\n      0xffffffffffffffffffffffffffffffffffffffff\n      and\n      dup2\n      mstore\n      0x20\n      add\n      swap1\n      dup2\n      mstore\n      0x20\n      add\n      0x00\n      keccak256\n      0x00\n      swap1\n      sload\n      swap1\n      0x0100\n      exp\n      swap1\n      div\n      0xff\n      and\n        /* \"CrowdFunding/CrownFunding.sol\":1154:1192  bool isFundded = isFunders[msg.sender] */\n      swap1\n      pop\n        /* \"CrowdFunding/CrownFunding.sol\":1206:1215  isFundded */\n      dup1\n        /* \"CrowdFunding/CrownFunding.sol\":1202:1308  if(!isFundded) {... */\n      tag_68\n      jumpi\n        /* \"CrowdFunding/CrownFunding.sol\":1231:1238  funders */\n      0x03\n        /* \"CrowdFunding/CrownFunding.sol\":1244:1254  msg.sender */\n      caller\n        /* \"CrowdFunding/CrownFunding.sol\":1231:1255  funders.push(msg.sender) */\n      swap1\n      dup1\n      0x01\n      dup2\n      sload\n      add\n      dup1\n      dup3\n      sstore\n      dup1\n      swap2\n      pop\n      pop\n      0x01\n      swap1\n      sub\n      swap1\n      0x00\n      mstore\n      keccak256(0x00, 0x20)\n      add\n      0x00\n      swap1\n      swap2\n      swap1\n      swap2\n      swap1\n      swap2\n      0x0100\n      exp\n      dup2\n      sload\n      dup2\n      0xffffffffffffffffffffffffffffffffffffffff\n      mul\n      not\n      and\n      swap1\n      dup4\n      0xffffffffffffffffffffffffffffffffffffffff\n      and\n      mul\n      or\n      swap1\n      sstore\n      pop\n        /* \"CrowdFunding/CrownFunding.sol\":1293:1297  true */\n      0x01\n        /* \"CrowdFunding/CrownFunding.sol\":1269:1278  isFunders */\n      dup1\n        /* \"CrowdFunding/CrownFunding.sol\":1269:1290  isFunders[msg.sender] */\n      0x00\n        /* \"CrowdFunding/CrownFunding.sol\":1279:1289  msg.sender */\n      caller\n        /* \"CrowdFunding/CrownFunding.sol\":1269:1290  isFunders[msg.sender] */\n      0xffffffffffffffffffffffffffffffffffffffff\n      and\n      0xffffffffffffffffffffffffffffffffffffffff\n      and\n      dup2\n      mstore\n      0x20\n      add\n      swap1\n      dup2\n      mstore\n      0x20\n      add\n      0x00\n      keccak256\n      0x00\n        /* \"CrowdFunding/CrownFunding.sol\":1269:1297  isFunders[msg.sender] = true */\n      0x0100\n      exp\n      dup2\n      sload\n      dup2\n      0xff\n      mul\n      not\n      and\n      swap1\n      dup4\n      iszero\n      iszero\n      mul\n      or\n      swap1\n      sstore\n      pop\n        /* \"CrowdFunding/CrownFunding.sol\":1202:1308  if(!isFundded) {... */\n    tag_68:\n        /* \"CrowdFunding/CrownFunding.sol\":1329:1339  msg.sender */\n      caller\n        /* \"CrowdFunding/CrownFunding.sol\":1322:1351  Funded(msg.sender, msg.value) */\n      0xffffffffffffffffffffffffffffffffffffffff\n      and\n      0x5af8184bef8e4b45eb9f6ed7734d04da38ced226495548f46e0c8ff8d7d9a524\n        /* \"CrowdFunding/CrownFunding.sol\":1341:1350  msg.value */\n      callvalue\n        /* \"CrowdFunding/CrownFunding.sol\":1322:1351  Funded(msg.sender, msg.value) */\n      mload(0x40)\n      tag_70\n      swap2\n      swap1\n      tag_24\n      jump\t// in\n    tag_70:\n      mload(0x40)\n      dup1\n      swap2\n      sub\n      swap1\n      log2\n        /* \"CrowdFunding/CrownFunding.sol\":924:1358  {... */\n      pop\n        /* \"CrowdFunding/CrownFunding.sol\":893:1358  function fund() public payable {... */\n      jump\t// out\n        /* \"CrowdFunding/CrownFunding.sol\":1679:1776  function getBalance() public view returns (uint256) {... */\n    tag_22:\n        /* \"CrowdFunding/CrownFunding.sol\":1722:1729  uint256 */\n      0x00\n        /* \"CrowdFunding/CrownFunding.sol\":1748:1769  address(this).balance */\n      selfbalance\n        /* \"CrowdFunding/CrownFunding.sol\":1741:1769  return address(this).balance */\n      swap1\n      pop\n        /* \"CrowdFunding/CrownFunding.sol\":1679:1776  function getBalance() public view returns (uint256) {... */\n      swap1\n      jump\t// out\n        /* \"CrowdFunding/CrownFunding.sol\":1364:1673  function withdraw() public ownerOnly {... */\n    tag_27:\n        /* \"CrowdFunding/CrownFunding.sol\":807:817  msg.sender */\n      caller\n        /* \"CrowdFunding/CrownFunding.sol\":796:817  i_owner != msg.sender */\n      0xffffffffffffffffffffffffffffffffffffffff\n      and\n        /* \"CrowdFunding/CrownFunding.sol\":796:803  i_owner */\n      immutable(\"0xdec29173c70f4e70086d64e09cb72b415f3d6a1843817cff62483903f0e12f62\")\n        /* \"CrowdFunding/CrownFunding.sol\":796:817  i_owner != msg.sender */\n      0xffffffffffffffffffffffffffffffffffffffff\n      and\n      eq\n        /* \"CrowdFunding/CrownFunding.sol\":792:870  if (i_owner != msg.sender) {... */\n      tag_73\n      jumpi\n        /* \"CrowdFunding/CrownFunding.sol\":840:859  NoAvailableAmount() */\n      mload(0x40)\n      0x6d70620500000000000000000000000000000000000000000000000000000000\n      dup2\n      mstore\n      0x04\n      add\n      mload(0x40)\n      dup1\n      swap2\n      sub\n      swap1\n      revert\n        /* \"CrowdFunding/CrownFunding.sol\":792:870  if (i_owner != msg.sender) {... */\n    tag_73:\n        /* \"CrowdFunding/CrownFunding.sol\":1462:1471  bool sent */\n      0x00\n        /* \"CrowdFunding/CrownFunding.sol\":1485:1492  i_owner */\n      immutable(\"0xdec29173c70f4e70086d64e09cb72b415f3d6a1843817cff62483903f0e12f62\")\n        /* \"CrowdFunding/CrownFunding.sol\":1477:1498  payable(i_owner).call */\n      0xffffffffffffffffffffffffffffffffffffffff\n      and\n        /* \"CrowdFunding/CrownFunding.sol\":1506:1527  address(this).balance */\n      selfbalance\n        /* \"CrowdFunding/CrownFunding.sol\":1477:1532  payable(i_owner).call{value: address(this).balance}(\"\") */\n      mload(0x40)\n      tag_75\n      swap1\n      tag_76\n      jump\t// in\n    tag_75:\n      0x00\n      mload(0x40)\n      dup1\n      dup4\n      sub\n      dup2\n      dup6\n      dup8\n      gas\n      call\n      swap3\n      pop\n      pop\n      pop\n      returndatasize\n      dup1\n      0x00\n      dup2\n      eq\n      tag_79\n      jumpi\n      mload(0x40)\n      swap2\n      pop\n      and(add(returndatasize, 0x3f), not(0x1f))\n      dup3\n      add\n      0x40\n      mstore\n      returndatasize\n      dup3\n      mstore\n      returndatasize\n      0x00\n      0x20\n      dup5\n      add\n      returndatacopy\n      jump(tag_78)\n    tag_79:\n      0x60\n      swap2\n      pop\n    tag_78:\n      pop\n        /* \"CrowdFunding/CrownFunding.sol\":1461:1532  (bool sent, ) = payable(i_owner).call{value: address(this).balance}(\"\") */\n      pop\n      swap1\n      pop\n        /* \"CrowdFunding/CrownFunding.sol\":1550:1554  sent */\n      dup1\n        /* \"CrowdFunding/CrownFunding.sol\":1542:1584  require(sent, \"Failed to withdraw Ethers\") */\n      tag_80\n      jumpi\n      mload(0x40)\n      0x08c379a000000000000000000000000000000000000000000000000000000000\n      dup2\n      mstore\n      0x04\n      add\n      tag_81\n      swap1\n      tag_82\n      jump\t// in\n    tag_81:\n      mload(0x40)\n      dup1\n      swap2\n      sub\n      swap1\n      revert\n    tag_80:\n        /* \"CrowdFunding/CrownFunding.sol\":1608:1615  i_owner */\n      immutable(\"0xdec29173c70f4e70086d64e09cb72b415f3d6a1843817cff62483903f0e12f62\")\n        /* \"CrowdFunding/CrownFunding.sol\":1599:1639  Withdraw(i_owner, address(this).balance) */\n      0xffffffffffffffffffffffffffffffffffffffff\n      and\n      0x884edad9ce6fa2440d8a54cc123490eb96d2768479d49ff9c7366125a9424364\n        /* \"CrowdFunding/CrownFunding.sol\":1617:1638  address(this).balance */\n      selfbalance\n        /* \"CrowdFunding/CrownFunding.sol\":1599:1639  Withdraw(i_owner, address(this).balance) */\n      mload(0x40)\n      tag_83\n      swap2\n      swap1\n      tag_24\n      jump\t// in\n    tag_83:\n      mload(0x40)\n      dup1\n      swap2\n      sub\n      swap1\n      log2\n        /* \"CrowdFunding/CrownFunding.sol\":1401:1673  {... */\n      pop\n        /* \"CrowdFunding/CrownFunding.sol\":1364:1673  function withdraw() public ownerOnly {... */\n      jump\t// out\n        /* \"CrowdFunding/CrownFunding.sol\":376:438  mapping(address funder => uint256 value) public funderToAmount */\n    tag_32:\n      mstore(0x20, 0x02)\n      dup1\n      0x00\n      mstore\n      keccak256(0x00, 0x40)\n      0x00\n      swap2\n      pop\n      swap1\n      pop\n      sload\n      dup2\n      jump\t// out\n        /* \"CrowdFunding/CrownFunding.sol\":219:253  uint256 public MINIMUM_FUND = 5e18 */\n    tag_36:\n      sload(0x00)\n      dup2\n      jump\t// out\n        /* \"CrowdFunding/CrownFunding.sol\":1782:1880  function getNumberOfFunders() public  view returns(uint256) {... */\n    tag_41:\n        /* \"CrowdFunding/CrownFunding.sol\":1833:1840  uint256 */\n      0x00\n        /* \"CrowdFunding/CrownFunding.sol\":1859:1866  funders */\n      0x03\n        /* \"CrowdFunding/CrownFunding.sol\":1859:1873  funders.length */\n      dup1\n      sload\n      swap1\n      pop\n        /* \"CrowdFunding/CrownFunding.sol\":1852:1873  return funders.length */\n      swap1\n      pop\n        /* \"CrowdFunding/CrownFunding.sol\":1782:1880  function getNumberOfFunders() public  view returns(uint256) {... */\n      swap1\n      jump\t// out\n        /* \"CrowdFunding/CrownFunding.sol\":313:370  mapping(address funder => bool isFunded) public isFunders */\n    tag_46:\n      mstore(0x20, 0x01)\n      dup1\n      0x00\n      mstore\n      keccak256(0x00, 0x40)\n      0x00\n      swap2\n      pop\n      sload\n      swap1\n      0x0100\n      exp\n      swap1\n      div\n      0xff\n      and\n      dup2\n      jump\t// out\n        /* \"CrowdFunding/CrownFunding.sol\":274:306  address public immutable i_owner */\n    tag_51:\n      immutable(\"0xdec29173c70f4e70086d64e09cb72b415f3d6a1843817cff62483903f0e12f62\")\n      dup2\n      jump\t// out\n        /* \"CrowdFunding/CrownFunding.sol\":444:468  address[] public funders */\n    tag_58:\n      0x03\n      dup2\n      dup2\n      sload\n      dup2\n      lt\n      tag_85\n      jumpi\n      0x00\n      dup1\n      revert\n    tag_85:\n      swap1\n      0x00\n      mstore\n      keccak256(0x00, 0x20)\n      add\n      0x00\n      swap2\n      pop\n      sload\n      swap1\n      0x0100\n      exp\n      swap1\n      div\n      0xffffffffffffffffffffffffffffffffffffffff\n      and\n      dup2\n      jump\t// out\n        /* \"CrowdFunding/PriceConverter.sol\":624:873  function getConversationRate(uint256 ethAmount)... */\n    tag_62:\n        /* \"CrowdFunding/PriceConverter.sol\":719:726  uint256 */\n      0x00\n        /* \"CrowdFunding/PriceConverter.sol\":742:758  uint256 ethPrice */\n      0x00\n        /* \"CrowdFunding/PriceConverter.sol\":761:771  getPrice() */\n      tag_88\n        /* \"CrowdFunding/PriceConverter.sol\":761:769  getPrice */\n      tag_89\n        /* \"CrowdFunding/PriceConverter.sol\":761:771  getPrice() */\n      jump\t// in\n    tag_88:\n        /* \"CrowdFunding/PriceConverter.sol\":742:771  uint256 ethPrice = getPrice() */\n      swap1\n      pop\n        /* \"CrowdFunding/PriceConverter.sol\":781:803  uint256 ethAmountToUSD */\n      0x00\n        /* \"CrowdFunding/PriceConverter.sol\":831:835  1e18 */\n      0x0de0b6b3a7640000\n        /* \"CrowdFunding/PriceConverter.sol\":818:827  ethAmount */\n      dup5\n        /* \"CrowdFunding/PriceConverter.sol\":807:815  ethPrice */\n      dup4\n        /* \"CrowdFunding/PriceConverter.sol\":807:827  ethPrice * ethAmount */\n      tag_90\n      swap2\n      swap1\n      tag_91\n      jump\t// in\n    tag_90:\n        /* \"CrowdFunding/PriceConverter.sol\":806:835  (ethPrice * ethAmount) / 1e18 */\n      tag_92\n      swap2\n      swap1\n      tag_93\n      jump\t// in\n    tag_92:\n        /* \"CrowdFunding/PriceConverter.sol\":781:835  uint256 ethAmountToUSD = (ethPrice * ethAmount) / 1e18 */\n      swap1\n      pop\n        /* \"CrowdFunding/PriceConverter.sol\":852:866  ethAmountToUSD */\n      dup1\n        /* \"CrowdFunding/PriceConverter.sol\":845:866  return ethAmountToUSD */\n      swap3\n      pop\n      pop\n      pop\n        /* \"CrowdFunding/PriceConverter.sol\":624:873  function getConversationRate(uint256 ethAmount)... */\n      swap2\n      swap1\n      pop\n      jump\t// out\n        /* \"CrowdFunding/PriceConverter.sol\":200:618  function getPrice() internal view returns (uint256) {... */\n    tag_89:\n        /* \"CrowdFunding/PriceConverter.sol\":243:250  uint256 */\n      0x00\n        /* \"CrowdFunding/PriceConverter.sol\":317:348  AggregatorV3Interface priceFeed */\n      0x00\n        /* \"CrowdFunding/PriceConverter.sol\":386:428  0x694AA1769357215DE4FAC081bf1f309aDC325306 */\n      0x694aa1769357215de4fac081bf1f309adc325306\n        /* \"CrowdFunding/PriceConverter.sol\":317:438  AggregatorV3Interface priceFeed = AggregatorV3Interface(... */\n      swap1\n      pop\n        /* \"CrowdFunding/PriceConverter.sol\":451:464  int256 answer */\n      0x00\n        /* \"CrowdFunding/PriceConverter.sol\":474:483  priceFeed */\n      dup2\n        /* \"CrowdFunding/PriceConverter.sol\":474:499  priceFeed.latestRoundData */\n      0xffffffffffffffffffffffffffffffffffffffff\n      and\n      0xfeaf968c\n        /* \"CrowdFunding/PriceConverter.sol\":474:501  priceFeed.latestRoundData() */\n      mload(0x40)\n      dup2\n      0xffffffff\n      and\n      0xe0\n      shl\n      dup2\n      mstore\n      0x04\n      add\n      0xa0\n      mload(0x40)\n      dup1\n      dup4\n      sub\n      dup2\n      dup7\n      gas\n      staticcall\n      iszero\n      dup1\n      iszero\n      tag_96\n      jumpi\n      returndatacopy(0x00, 0x00, returndatasize)\n      revert(0x00, returndatasize)\n    tag_96:\n      pop\n      pop\n      pop\n      pop\n      mload(0x40)\n      returndatasize\n      not(0x1f)\n      0x1f\n      dup3\n      add\n      and\n      dup3\n      add\n      dup1\n      0x40\n      mstore\n      pop\n      dup2\n      add\n      swap1\n      tag_97\n      swap2\n      swap1\n      tag_98\n      jump\t// in\n    tag_97:\n        /* \"CrowdFunding/PriceConverter.sol\":448:501  (, int256 answer, , , ) = priceFeed.latestRoundData() */\n      pop\n      pop\n      pop\n      swap2\n      pop\n      pop\n        /* \"CrowdFunding/PriceConverter.sol\":607:611  1e10 */\n      0x02540be400\n        /* \"CrowdFunding/PriceConverter.sol\":597:603  answer */\n      dup2\n        /* \"CrowdFunding/PriceConverter.sol\":589:611  uint256(answer) * 1e10 */\n      tag_99\n      swap2\n      swap1\n      tag_91\n      jump\t// in\n    tag_99:\n        /* \"CrowdFunding/PriceConverter.sol\":582:611  return uint256(answer) * 1e10 */\n      swap3\n      pop\n      pop\n      pop\n        /* \"CrowdFunding/PriceConverter.sol\":200:618  function getPrice() internal view returns (uint256) {... */\n      swap1\n      jump\t// out\n        /* \"#utility.yul\":7:84   */\n    tag_100:\n        /* \"#utility.yul\":44:51   */\n      0x00\n        /* \"#utility.yul\":73:78   */\n      dup2\n        /* \"#utility.yul\":62:78   */\n      swap1\n      pop\n        /* \"#utility.yul\":7:84   */\n      swap2\n      swap1\n      pop\n      jump\t// out\n        /* \"#utility.yul\":90:208   */\n    tag_101:\n        /* \"#utility.yul\":177:201   */\n      tag_134\n        /* \"#utility.yul\":195:200   */\n      dup2\n        /* \"#utility.yul\":177:201   */\n      tag_100\n      jump\t// in\n    tag_134:\n        /* \"#utility.yul\":172:175   */\n      dup3\n        /* \"#utility.yul\":165:202   */\n      mstore\n        /* \"#utility.yul\":90:208   */\n      pop\n      pop\n      jump\t// out\n        /* \"#utility.yul\":214:436   */\n    tag_24:\n        /* \"#utility.yul\":307:311   */\n      0x00\n        /* \"#utility.yul\":345:347   */\n      0x20\n        /* \"#utility.yul\":334:343   */\n      dup3\n        /* \"#utility.yul\":330:348   */\n      add\n        /* \"#utility.yul\":322:348   */\n      swap1\n      pop\n        /* \"#utility.yul\":358:429   */\n      tag_136\n        /* \"#utility.yul\":426:427   */\n      0x00\n        /* \"#utility.yul\":415:424   */\n      dup4\n        /* \"#utility.yul\":411:428   */\n      add\n        /* \"#utility.yul\":402:408   */\n      dup5\n        /* \"#utility.yul\":358:429   */\n      tag_101\n      jump\t// in\n    tag_136:\n        /* \"#utility.yul\":214:436   */\n      swap3\n      swap2\n      pop\n      pop\n      jump\t// out\n        /* \"#utility.yul\":523:640   */\n    tag_103:\n        /* \"#utility.yul\":632:633   */\n      0x00\n        /* \"#utility.yul\":629:630   */\n      0x00\n        /* \"#utility.yul\":622:634   */\n      revert\n        /* \"#utility.yul\":769:895   */\n    tag_105:\n        /* \"#utility.yul\":806:813   */\n      0x00\n        /* \"#utility.yul\":846:888   */\n      0xffffffffffffffffffffffffffffffffffffffff\n        /* \"#utility.yul\":839:844   */\n      dup3\n        /* \"#utility.yul\":835:889   */\n      and\n        /* \"#utility.yul\":824:889   */\n      swap1\n      pop\n        /* \"#utility.yul\":769:895   */\n      swap2\n      swap1\n      pop\n      jump\t// out\n        /* \"#utility.yul\":901:997   */\n    tag_106:\n        /* \"#utility.yul\":938:945   */\n      0x00\n        /* \"#utility.yul\":967:991   */\n      tag_142\n        /* \"#utility.yul\":985:990   */\n      dup3\n        /* \"#utility.yul\":967:991   */\n      tag_105\n      jump\t// in\n    tag_142:\n        /* \"#utility.yul\":956:991   */\n      swap1\n      pop\n        /* \"#utility.yul\":901:997   */\n      swap2\n      swap1\n      pop\n      jump\t// out\n        /* \"#utility.yul\":1003:1125   */\n    tag_107:\n        /* \"#utility.yul\":1076:1100   */\n      tag_144\n        /* \"#utility.yul\":1094:1099   */\n      dup2\n        /* \"#utility.yul\":1076:1100   */\n      tag_106\n      jump\t// in\n    tag_144:\n        /* \"#utility.yul\":1069:1074   */\n      dup2\n        /* \"#utility.yul\":1066:1101   */\n      eq\n        /* \"#utility.yul\":1056:1119   */\n      tag_145\n      jumpi\n        /* \"#utility.yul\":1115:1116   */\n      0x00\n        /* \"#utility.yul\":1112:1113   */\n      0x00\n        /* \"#utility.yul\":1105:1117   */\n      revert\n        /* \"#utility.yul\":1056:1119   */\n    tag_145:\n        /* \"#utility.yul\":1003:1125   */\n      pop\n      jump\t// out\n        /* \"#utility.yul\":1131:1270   */\n    tag_108:\n        /* \"#utility.yul\":1177:1182   */\n      0x00\n        /* \"#utility.yul\":1215:1221   */\n      dup2\n        /* \"#utility.yul\":1202:1222   */\n      calldataload\n        /* \"#utility.yul\":1193:1222   */\n      swap1\n      pop\n        /* \"#utility.yul\":1231:1264   */\n      tag_147\n        /* \"#utility.yul\":1258:1263   */\n      dup2\n        /* \"#utility.yul\":1231:1264   */\n      tag_107\n      jump\t// in\n    tag_147:\n        /* \"#utility.yul\":1131:1270   */\n      swap3\n      swap2\n      pop\n      pop\n      jump\t// out\n        /* \"#utility.yul\":1276:1605   */\n    tag_31:\n        /* \"#utility.yul\":1335:1341   */\n      0x00\n        /* \"#utility.yul\":1384:1386   */\n      0x20\n        /* \"#utility.yul\":1372:1381   */\n      dup3\n        /* \"#utility.yul\":1363:1370   */\n      dup5\n        /* \"#utility.yul\":1359:1382   */\n      sub\n        /* \"#utility.yul\":1355:1387   */\n      slt\n        /* \"#utility.yul\":1352:1471   */\n      iszero\n      tag_149\n      jumpi\n        /* \"#utility.yul\":1390:1469   */\n      tag_150\n      tag_103\n      jump\t// in\n    tag_150:\n        /* \"#utility.yul\":1352:1471   */\n    tag_149:\n        /* \"#utility.yul\":1510:1511   */\n      0x00\n        /* \"#utility.yul\":1535:1588   */\n      tag_151\n        /* \"#utility.yul\":1580:1587   */\n      dup5\n        /* \"#utility.yul\":1571:1577   */\n      dup3\n        /* \"#utility.yul\":1560:1569   */\n      dup6\n        /* \"#utility.yul\":1556:1578   */\n      add\n        /* \"#utility.yul\":1535:1588   */\n      tag_108\n      jump\t// in\n    tag_151:\n        /* \"#utility.yul\":1525:1588   */\n      swap2\n      pop\n        /* \"#utility.yul\":1481:1598   */\n      pop\n        /* \"#utility.yul\":1276:1605   */\n      swap3\n      swap2\n      pop\n      pop\n      jump\t// out\n        /* \"#utility.yul\":1611:1701   */\n    tag_109:\n        /* \"#utility.yul\":1645:1652   */\n      0x00\n        /* \"#utility.yul\":1688:1693   */\n      dup2\n        /* \"#utility.yul\":1681:1694   */\n      iszero\n        /* \"#utility.yul\":1674:1695   */\n      iszero\n        /* \"#utility.yul\":1663:1695   */\n      swap1\n      pop\n        /* \"#utility.yul\":1611:1701   */\n      swap2\n      swap1\n      pop\n      jump\t// out\n        /* \"#utility.yul\":1707:1816   */\n    tag_110:\n        /* \"#utility.yul\":1788:1809   */\n      tag_154\n        /* \"#utility.yul\":1803:1808   */\n      dup2\n        /* \"#utility.yul\":1788:1809   */\n      tag_109\n      jump\t// in\n    tag_154:\n        /* \"#utility.yul\":1783:1786   */\n      dup3\n        /* \"#utility.yul\":1776:1810   */\n      mstore\n        /* \"#utility.yul\":1707:1816   */\n      pop\n      pop\n      jump\t// out\n        /* \"#utility.yul\":1822:2032   */\n    tag_48:\n        /* \"#utility.yul\":1909:1913   */\n      0x00\n        /* \"#utility.yul\":1947:1949   */\n      0x20\n        /* \"#utility.yul\":1936:1945   */\n      dup3\n        /* \"#utility.yul\":1932:1950   */\n      add\n        /* \"#utility.yul\":1924:1950   */\n      swap1\n      pop\n        /* \"#utility.yul\":1960:2025   */\n      tag_156\n        /* \"#utility.yul\":2022:2023   */\n      0x00\n        /* \"#utility.yul\":2011:2020   */\n      dup4\n        /* \"#utility.yul\":2007:2024   */\n      add\n        /* \"#utility.yul\":1998:2004   */\n      dup5\n        /* \"#utility.yul\":1960:2025   */\n      tag_110\n      jump\t// in\n    tag_156:\n        /* \"#utility.yul\":1822:2032   */\n      swap3\n      swap2\n      pop\n      pop\n      jump\t// out\n        /* \"#utility.yul\":2038:2156   */\n    tag_111:\n        /* \"#utility.yul\":2125:2149   */\n      tag_158\n        /* \"#utility.yul\":2143:2148   */\n      dup2\n        /* \"#utility.yul\":2125:2149   */\n      tag_106\n      jump\t// in\n    tag_158:\n        /* \"#utility.yul\":2120:2123   */\n      dup3\n        /* \"#utility.yul\":2113:2150   */\n      mstore\n        /* \"#utility.yul\":2038:2156   */\n      pop\n      pop\n      jump\t// out\n        /* \"#utility.yul\":2162:2384   */\n    tag_53:\n        /* \"#utility.yul\":2255:2259   */\n      0x00\n        /* \"#utility.yul\":2293:2295   */\n      0x20\n        /* \"#utility.yul\":2282:2291   */\n      dup3\n        /* \"#utility.yul\":2278:2296   */\n      add\n        /* \"#utility.yul\":2270:2296   */\n      swap1\n      pop\n        /* \"#utility.yul\":2306:2377   */\n      tag_160\n        /* \"#utility.yul\":2374:2375   */\n      0x00\n        /* \"#utility.yul\":2363:2372   */\n      dup4\n        /* \"#utility.yul\":2359:2376   */\n      add\n        /* \"#utility.yul\":2350:2356   */\n      dup5\n        /* \"#utility.yul\":2306:2377   */\n      tag_111\n      jump\t// in\n    tag_160:\n        /* \"#utility.yul\":2162:2384   */\n      swap3\n      swap2\n      pop\n      pop\n      jump\t// out\n        /* \"#utility.yul\":2390:2512   */\n    tag_112:\n        /* \"#utility.yul\":2463:2487   */\n      tag_162\n        /* \"#utility.yul\":2481:2486   */\n      dup2\n        /* \"#utility.yul\":2463:2487   */\n      tag_100\n      jump\t// in\n    tag_162:\n        /* \"#utility.yul\":2456:2461   */\n      dup2\n        /* \"#utility.yul\":2453:2488   */\n      eq\n        /* \"#utility.yul\":2443:2506   */\n      tag_163\n      jumpi\n        /* \"#utility.yul\":2502:2503   */\n      0x00\n        /* \"#utility.yul\":2499:2500   */\n      0x00\n        /* \"#utility.yul\":2492:2504   */\n      revert\n        /* \"#utility.yul\":2443:2506   */\n    tag_163:\n        /* \"#utility.yul\":2390:2512   */\n      pop\n      jump\t// out\n        /* \"#utility.yul\":2518:2657   */\n    tag_113:\n        /* \"#utility.yul\":2564:2569   */\n      0x00\n        /* \"#utility.yul\":2602:2608   */\n      dup2\n        /* \"#utility.yul\":2589:2609   */\n      calldataload\n        /* \"#utility.yul\":2580:2609   */\n      swap1\n      pop\n        /* \"#utility.yul\":2618:2651   */\n      tag_165\n        /* \"#utility.yul\":2645:2650   */\n      dup2\n        /* \"#utility.yul\":2618:2651   */\n      tag_112\n      jump\t// in\n    tag_165:\n        /* \"#utility.yul\":2518:2657   */\n      swap3\n      swap2\n      pop\n      pop\n      jump\t// out\n        /* \"#utility.yul\":2663:2992   */\n    tag_57:\n        /* \"#utility.yul\":2722:2728   */\n      0x00\n        /* \"#utility.yul\":2771:2773   */\n      0x20\n        /* \"#utility.yul\":2759:2768   */\n      dup3\n        /* \"#utility.yul\":2750:2757   */\n      dup5\n        /* \"#utility.yul\":2746:2769   */\n      sub\n        /* \"#utility.yul\":2742:2774   */\n      slt\n        /* \"#utility.yul\":2739:2858   */\n      iszero\n      tag_167\n      jumpi\n        /* \"#utility.yul\":2777:2856   */\n      tag_168\n      tag_103\n      jump\t// in\n    tag_168:\n        /* \"#utility.yul\":2739:2858   */\n    tag_167:\n        /* \"#utility.yul\":2897:2898   */\n      0x00\n        /* \"#utility.yul\":2922:2975   */\n      tag_169\n        /* \"#utility.yul\":2967:2974   */\n      dup5\n        /* \"#utility.yul\":2958:2964   */\n      dup3\n        /* \"#utility.yul\":2947:2956   */\n      dup6\n        /* \"#utility.yul\":2943:2965   */\n      add\n        /* \"#utility.yul\":2922:2975   */\n      tag_113\n      jump\t// in\n    tag_169:\n        /* \"#utility.yul\":2912:2975   */\n      swap2\n      pop\n        /* \"#utility.yul\":2868:2985   */\n      pop\n        /* \"#utility.yul\":2663:2992   */\n      swap3\n      swap2\n      pop\n      pop\n      jump\t// out\n        /* \"#utility.yul\":2998:3167   */\n    tag_114:\n        /* \"#utility.yul\":3082:3093   */\n      0x00\n        /* \"#utility.yul\":3116:3122   */\n      dup3\n        /* \"#utility.yul\":3111:3114   */\n      dup3\n        /* \"#utility.yul\":3104:3123   */\n      mstore\n        /* \"#utility.yul\":3156:3160   */\n      0x20\n        /* \"#utility.yul\":3151:3154   */\n      dup3\n        /* \"#utility.yul\":3147:3161   */\n      add\n        /* \"#utility.yul\":3132:3161   */\n      swap1\n      pop\n        /* \"#utility.yul\":2998:3167   */\n      swap3\n      swap2\n      pop\n      pop\n      jump\t// out\n        /* \"#utility.yul\":3173:3463   */\n    tag_115:\n        /* \"#utility.yul\":3313:3347   */\n      0x596f757220616d6f756e7420697320696e73756666696369656e742c20617420\n        /* \"#utility.yul\":3309:3310   */\n      0x00\n        /* \"#utility.yul\":3301:3307   */\n      dup3\n        /* \"#utility.yul\":3297:3311   */\n      add\n        /* \"#utility.yul\":3290:3348   */\n      mstore\n        /* \"#utility.yul\":3382:3416   */\n      0x6c6561737420302e303031206574686572206f6e6365207472616e7361637469\n        /* \"#utility.yul\":3377:3379   */\n      0x20\n        /* \"#utility.yul\":3369:3375   */\n      dup3\n        /* \"#utility.yul\":3365:3380   */\n      add\n        /* \"#utility.yul\":3358:3417   */\n      mstore\n        /* \"#utility.yul\":3451:3455   */\n      0x6f6e000000000000000000000000000000000000000000000000000000000000\n        /* \"#utility.yul\":3446:3448   */\n      0x40\n        /* \"#utility.yul\":3438:3444   */\n      dup3\n        /* \"#utility.yul\":3434:3449   */\n      add\n        /* \"#utility.yul\":3427:3456   */\n      mstore\n        /* \"#utility.yul\":3173:3463   */\n      pop\n      jump\t// out\n        /* \"#utility.yul\":3469:3835   */\n    tag_116:\n        /* \"#utility.yul\":3611:3614   */\n      0x00\n        /* \"#utility.yul\":3632:3699   */\n      tag_173\n        /* \"#utility.yul\":3696:3698   */\n      0x42\n        /* \"#utility.yul\":3691:3694   */\n      dup4\n        /* \"#utility.yul\":3632:3699   */\n      tag_114\n      jump\t// in\n    tag_173:\n        /* \"#utility.yul\":3625:3699   */\n      swap2\n      pop\n        /* \"#utility.yul\":3708:3801   */\n      tag_174\n        /* \"#utility.yul\":3797:3800   */\n      dup3\n        /* \"#utility.yul\":3708:3801   */\n      tag_115\n      jump\t// in\n    tag_174:\n        /* \"#utility.yul\":3826:3828   */\n      0x60\n        /* \"#utility.yul\":3821:3824   */\n      dup3\n        /* \"#utility.yul\":3817:3829   */\n      add\n        /* \"#utility.yul\":3810:3829   */\n      swap1\n      pop\n        /* \"#utility.yul\":3469:3835   */\n      swap2\n      swap1\n      pop\n      jump\t// out\n        /* \"#utility.yul\":3841:4260   */\n    tag_65:\n        /* \"#utility.yul\":4007:4011   */\n      0x00\n        /* \"#utility.yul\":4045:4047   */\n      0x20\n        /* \"#utility.yul\":4034:4043   */\n      dup3\n        /* \"#utility.yul\":4030:4048   */\n      add\n        /* \"#utility.yul\":4022:4048   */\n      swap1\n      pop\n        /* \"#utility.yul\":4094:4103   */\n      dup2\n        /* \"#utility.yul\":4088:4092   */\n      dup2\n        /* \"#utility.yul\":4084:4104   */\n      sub\n        /* \"#utility.yul\":4080:4081   */\n      0x00\n        /* \"#utility.yul\":4069:4078   */\n      dup4\n        /* \"#utility.yul\":4065:4082   */\n      add\n        /* \"#utility.yul\":4058:4105   */\n      mstore\n        /* \"#utility.yul\":4122:4253   */\n      tag_176\n        /* \"#utility.yul\":4248:4252   */\n      dup2\n        /* \"#utility.yul\":4122:4253   */\n      tag_116\n      jump\t// in\n    tag_176:\n        /* \"#utility.yul\":4114:4253   */\n      swap1\n      pop\n        /* \"#utility.yul\":3841:4260   */\n      swap2\n      swap1\n      pop\n      jump\t// out\n        /* \"#utility.yul\":4266:4446   */\n    tag_117:\n        /* \"#utility.yul\":4314:4391   */\n      0x4e487b7100000000000000000000000000000000000000000000000000000000\n        /* \"#utility.yul\":4311:4312   */\n      0x00\n        /* \"#utility.yul\":4304:4392   */\n      mstore\n        /* \"#utility.yul\":4411:4415   */\n      0x11\n        /* \"#utility.yul\":4408:4409   */\n      0x04\n        /* \"#utility.yul\":4401:4416   */\n      mstore\n        /* \"#utility.yul\":4435:4439   */\n      0x24\n        /* \"#utility.yul\":4432:4433   */\n      0x00\n        /* \"#utility.yul\":4425:4440   */\n      revert\n        /* \"#utility.yul\":4452:4643   */\n    tag_67:\n        /* \"#utility.yul\":4492:4495   */\n      0x00\n        /* \"#utility.yul\":4511:4531   */\n      tag_179\n        /* \"#utility.yul\":4529:4530   */\n      dup3\n        /* \"#utility.yul\":4511:4531   */\n      tag_100\n      jump\t// in\n    tag_179:\n        /* \"#utility.yul\":4506:4531   */\n      swap2\n      pop\n        /* \"#utility.yul\":4545:4565   */\n      tag_180\n        /* \"#utility.yul\":4563:4564   */\n      dup4\n        /* \"#utility.yul\":4545:4565   */\n      tag_100\n      jump\t// in\n    tag_180:\n        /* \"#utility.yul\":4540:4565   */\n      swap3\n      pop\n        /* \"#utility.yul\":4588:4589   */\n      dup3\n        /* \"#utility.yul\":4585:4586   */\n      dup3\n        /* \"#utility.yul\":4581:4590   */\n      add\n        /* \"#utility.yul\":4574:4590   */\n      swap1\n      pop\n        /* \"#utility.yul\":4609:4612   */\n      dup1\n        /* \"#utility.yul\":4606:4607   */\n      dup3\n        /* \"#utility.yul\":4603:4613   */\n      gt\n        /* \"#utility.yul\":4600:4636   */\n      iszero\n      tag_181\n      jumpi\n        /* \"#utility.yul\":4616:4634   */\n      tag_182\n      tag_117\n      jump\t// in\n    tag_182:\n        /* \"#utility.yul\":4600:4636   */\n    tag_181:\n        /* \"#utility.yul\":4452:4643   */\n      swap3\n      swap2\n      pop\n      pop\n      jump\t// out\n        /* \"#utility.yul\":4649:4796   */\n    tag_118:\n        /* \"#utility.yul\":4750:4761   */\n      0x00\n        /* \"#utility.yul\":4787:4790   */\n      dup2\n        /* \"#utility.yul\":4772:4790   */\n      swap1\n      pop\n        /* \"#utility.yul\":4649:4796   */\n      swap3\n      swap2\n      pop\n      pop\n      jump\t// out\n        /* \"#utility.yul\":4802:4916   */\n    tag_119:\n      pop\n      jump\t// out\n        /* \"#utility.yul\":4922:5320   */\n    tag_120:\n        /* \"#utility.yul\":5081:5084   */\n      0x00\n        /* \"#utility.yul\":5102:5185   */\n      tag_186\n        /* \"#utility.yul\":5183:5184   */\n      0x00\n        /* \"#utility.yul\":5178:5181   */\n      dup4\n        /* \"#utility.yul\":5102:5185   */\n      tag_118\n      jump\t// in\n    tag_186:\n        /* \"#utility.yul\":5095:5185   */\n      swap2\n      pop\n        /* \"#utility.yul\":5194:5287   */\n      tag_187\n        /* \"#utility.yul\":5283:5286   */\n      dup3\n        /* \"#utility.yul\":5194:5287   */\n      tag_119\n      jump\t// in\n    tag_187:\n        /* \"#utility.yul\":5312:5313   */\n      0x00\n        /* \"#utility.yul\":5307:5310   */\n      dup3\n        /* \"#utility.yul\":5303:5314   */\n      add\n        /* \"#utility.yul\":5296:5314   */\n      swap1\n      pop\n        /* \"#utility.yul\":4922:5320   */\n      swap2\n      swap1\n      pop\n      jump\t// out\n        /* \"#utility.yul\":5326:5705   */\n    tag_76:\n        /* \"#utility.yul\":5510:5513   */\n      0x00\n        /* \"#utility.yul\":5532:5679   */\n      tag_189\n        /* \"#utility.yul\":5675:5678   */\n      dup3\n        /* \"#utility.yul\":5532:5679   */\n      tag_120\n      jump\t// in\n    tag_189:\n        /* \"#utility.yul\":5525:5679   */\n      swap2\n      pop\n        /* \"#utility.yul\":5696:5699   */\n      dup2\n        /* \"#utility.yul\":5689:5699   */\n      swap1\n      pop\n        /* \"#utility.yul\":5326:5705   */\n      swap2\n      swap1\n      pop\n      jump\t// out\n        /* \"#utility.yul\":5711:5886   */\n    tag_121:\n        /* \"#utility.yul\":5851:5878   */\n      0x4661696c656420746f2077697468647261772045746865727300000000000000\n        /* \"#utility.yul\":5847:5848   */\n      0x00\n        /* \"#utility.yul\":5839:5845   */\n      dup3\n        /* \"#utility.yul\":5835:5849   */\n      add\n        /* \"#utility.yul\":5828:5879   */\n      mstore\n        /* \"#utility.yul\":5711:5886   */\n      pop\n      jump\t// out\n        /* \"#utility.yul\":5892:6258   */\n    tag_122:\n        /* \"#utility.yul\":6034:6037   */\n      0x00\n        /* \"#utility.yul\":6055:6122   */\n      tag_192\n        /* \"#utility.yul\":6119:6121   */\n      0x19\n        /* \"#utility.yul\":6114:6117   */\n      dup4\n        /* \"#utility.yul\":6055:6122   */\n      tag_114\n      jump\t// in\n    tag_192:\n        /* \"#utility.yul\":6048:6122   */\n      swap2\n      pop\n        /* \"#utility.yul\":6131:6224   */\n      tag_193\n        /* \"#utility.yul\":6220:6223   */\n      dup3\n        /* \"#utility.yul\":6131:6224   */\n      tag_121\n      jump\t// in\n    tag_193:\n        /* \"#utility.yul\":6249:6251   */\n      0x20\n        /* \"#utility.yul\":6244:6247   */\n      dup3\n        /* \"#utility.yul\":6240:6252   */\n      add\n        /* \"#utility.yul\":6233:6252   */\n      swap1\n      pop\n        /* \"#utility.yul\":5892:6258   */\n      swap2\n      swap1\n      pop\n      jump\t// out\n        /* \"#utility.yul\":6264:6683   */\n    tag_82:\n        /* \"#utility.yul\":6430:6434   */\n      0x00\n        /* \"#utility.yul\":6468:6470   */\n      0x20\n        /* \"#utility.yul\":6457:6466   */\n      dup3\n        /* \"#utility.yul\":6453:6471   */\n      add\n        /* \"#utility.yul\":6445:6471   */\n      swap1\n      pop\n        /* \"#utility.yul\":6517:6526   */\n      dup2\n        /* \"#utility.yul\":6511:6515   */\n      dup2\n        /* \"#utility.yul\":6507:6527   */\n      sub\n        /* \"#utility.yul\":6503:6504   */\n      0x00\n        /* \"#utility.yul\":6492:6501   */\n      dup4\n        /* \"#utility.yul\":6488:6505   */\n      add\n        /* \"#utility.yul\":6481:6528   */\n      mstore\n        /* \"#utility.yul\":6545:6676   */\n      tag_195\n        /* \"#utility.yul\":6671:6675   */\n      dup2\n        /* \"#utility.yul\":6545:6676   */\n      tag_122\n      jump\t// in\n    tag_195:\n        /* \"#utility.yul\":6537:6676   */\n      swap1\n      pop\n        /* \"#utility.yul\":6264:6683   */\n      swap2\n      swap1\n      pop\n      jump\t// out\n        /* \"#utility.yul\":6689:7099   */\n    tag_91:\n        /* \"#utility.yul\":6729:6736   */\n      0x00\n        /* \"#utility.yul\":6752:6772   */\n      tag_197\n        /* \"#utility.yul\":6770:6771   */\n      dup3\n        /* \"#utility.yul\":6752:6772   */\n      tag_100\n      jump\t// in\n    tag_197:\n        /* \"#utility.yul\":6747:6772   */\n      swap2\n      pop\n        /* \"#utility.yul\":6786:6806   */\n      tag_198\n        /* \"#utility.yul\":6804:6805   */\n      dup4\n        /* \"#utility.yul\":6786:6806   */\n      tag_100\n      jump\t// in\n    tag_198:\n        /* \"#utility.yul\":6781:6806   */\n      swap3\n      pop\n        /* \"#utility.yul\":6841:6842   */\n      dup3\n        /* \"#utility.yul\":6838:6839   */\n      dup3\n        /* \"#utility.yul\":6834:6843   */\n      mul\n        /* \"#utility.yul\":6863:6893   */\n      tag_199\n        /* \"#utility.yul\":6881:6892   */\n      dup2\n        /* \"#utility.yul\":6863:6893   */\n      tag_100\n      jump\t// in\n    tag_199:\n        /* \"#utility.yul\":6852:6893   */\n      swap2\n      pop\n        /* \"#utility.yul\":7042:7043   */\n      dup3\n        /* \"#utility.yul\":7033:7040   */\n      dup3\n        /* \"#utility.yul\":7029:7044   */\n      div\n        /* \"#utility.yul\":7026:7027   */\n      dup5\n        /* \"#utility.yul\":7023:7045   */\n      eq\n        /* \"#utility.yul\":7003:7004   */\n      dup4\n        /* \"#utility.yul\":6996:7005   */\n      iszero\n        /* \"#utility.yul\":6976:7059   */\n      or\n        /* \"#utility.yul\":6953:7092   */\n      tag_200\n      jumpi\n        /* \"#utility.yul\":7072:7090   */\n      tag_201\n      tag_117\n      jump\t// in\n    tag_201:\n        /* \"#utility.yul\":6953:7092   */\n    tag_200:\n        /* \"#utility.yul\":6737:7099   */\n      pop\n        /* \"#utility.yul\":6689:7099   */\n      swap3\n      swap2\n      pop\n      pop\n      jump\t// out\n        /* \"#utility.yul\":7105:7285   */\n    tag_123:\n        /* \"#utility.yul\":7153:7230   */\n      0x4e487b7100000000000000000000000000000000000000000000000000000000\n        /* \"#utility.yul\":7150:7151   */\n      0x00\n        /* \"#utility.yul\":7143:7231   */\n      mstore\n        /* \"#utility.yul\":7250:7254   */\n      0x12\n        /* \"#utility.yul\":7247:7248   */\n      0x04\n        /* \"#utility.yul\":7240:7255   */\n      mstore\n        /* \"#utility.yul\":7274:7278   */\n      0x24\n        /* \"#utility.yul\":7271:7272   */\n      0x00\n        /* \"#utility.yul\":7264:7279   */\n      revert\n        /* \"#utility.yul\":7291:7476   */\n    tag_93:\n        /* \"#utility.yul\":7331:7332   */\n      0x00\n        /* \"#utility.yul\":7348:7368   */\n      tag_204\n        /* \"#utility.yul\":7366:7367   */\n      dup3\n        /* \"#utility.yul\":7348:7368   */\n      tag_100\n      jump\t// in\n    tag_204:\n        /* \"#utility.yul\":7343:7368   */\n      swap2\n      pop\n        /* \"#utility.yul\":7382:7402   */\n      tag_205\n        /* \"#utility.yul\":7400:7401   */\n      dup4\n        /* \"#utility.yul\":7382:7402   */\n      tag_100\n      jump\t// in\n    tag_205:\n        /* \"#utility.yul\":7377:7402   */\n      swap3\n      pop\n        /* \"#utility.yul\":7421:7422   */\n      dup3\n        /* \"#utility.yul\":7411:7446   */\n      tag_206\n      jumpi\n        /* \"#utility.yul\":7426:7444   */\n      tag_207\n      tag_123\n      jump\t// in\n    tag_207:\n        /* \"#utility.yul\":7411:7446   */\n    tag_206:\n        /* \"#utility.yul\":7468:7469   */\n      dup3\n        /* \"#utility.yul\":7465:7466   */\n      dup3\n        /* \"#utility.yul\":7461:7470   */\n      div\n        /* \"#utility.yul\":7456:7470   */\n      swap1\n      pop\n        /* \"#utility.yul\":7291:7476   */\n      swap3\n      swap2\n      pop\n      pop\n      jump\t// out\n        /* \"#utility.yul\":7482:7587   */\n    tag_124:\n        /* \"#utility.yul\":7518:7525   */\n      0x00\n        /* \"#utility.yul\":7558:7580   */\n      0xffffffffffffffffffff\n        /* \"#utility.yul\":7551:7556   */\n      dup3\n        /* \"#utility.yul\":7547:7581   */\n      and\n        /* \"#utility.yul\":7536:7581   */\n      swap1\n      pop\n        /* \"#utility.yul\":7482:7587   */\n      swap2\n      swap1\n      pop\n      jump\t// out\n        /* \"#utility.yul\":7593:7713   */\n    tag_125:\n        /* \"#utility.yul\":7665:7688   */\n      tag_210\n        /* \"#utility.yul\":7682:7687   */\n      dup2\n        /* \"#utility.yul\":7665:7688   */\n      tag_124\n      jump\t// in\n    tag_210:\n        /* \"#utility.yul\":7658:7663   */\n      dup2\n        /* \"#utility.yul\":7655:7689   */\n      eq\n        /* \"#utility.yul\":7645:7707   */\n      tag_211\n      jumpi\n        /* \"#utility.yul\":7703:7704   */\n      0x00\n        /* \"#utility.yul\":7700:7701   */\n      0x00\n        /* \"#utility.yul\":7693:7705   */\n      revert\n        /* \"#utility.yul\":7645:7707   */\n    tag_211:\n        /* \"#utility.yul\":7593:7713   */\n      pop\n      jump\t// out\n        /* \"#utility.yul\":7719:7860   */\n    tag_126:\n        /* \"#utility.yul\":7775:7780   */\n      0x00\n        /* \"#utility.yul\":7806:7812   */\n      dup2\n        /* \"#utility.yul\":7800:7813   */\n      mload\n        /* \"#utility.yul\":7791:7813   */\n      swap1\n      pop\n        /* \"#utility.yul\":7822:7854   */\n      tag_213\n        /* \"#utility.yul\":7848:7853   */\n      dup2\n        /* \"#utility.yul\":7822:7854   */\n      tag_125\n      jump\t// in\n    tag_213:\n        /* \"#utility.yul\":7719:7860   */\n      swap3\n      swap2\n      pop\n      pop\n      jump\t// out\n        /* \"#utility.yul\":7866:7942   */\n    tag_127:\n        /* \"#utility.yul\":7902:7909   */\n      0x00\n        /* \"#utility.yul\":7931:7936   */\n      dup2\n        /* \"#utility.yul\":7920:7936   */\n      swap1\n      pop\n        /* \"#utility.yul\":7866:7942   */\n      swap2\n      swap1\n      pop\n      jump\t// out\n        /* \"#utility.yul\":7948:8068   */\n    tag_128:\n        /* \"#utility.yul\":8020:8043   */\n      tag_216\n        /* \"#utility.yul\":8037:8042   */\n      dup2\n        /* \"#utility.yul\":8020:8043   */\n      tag_127\n      jump\t// in\n    tag_216:\n        /* \"#utility.yul\":8013:8018   */\n      dup2\n        /* \"#utility.yul\":8010:8044   */\n      eq\n        /* \"#utility.yul\":8000:8062   */\n      tag_217\n      jumpi\n        /* \"#utility.yul\":8058:8059   */\n      0x00\n        /* \"#utility.yul\":8055:8056   */\n      0x00\n        /* \"#utility.yul\":8048:8060   */\n      revert\n        /* \"#utility.yul\":8000:8062   */\n    tag_217:\n        /* \"#utility.yul\":7948:8068   */\n      pop\n      jump\t// out\n        /* \"#utility.yul\":8074:8215   */\n    tag_129:\n        /* \"#utility.yul\":8130:8135   */\n      0x00\n        /* \"#utility.yul\":8161:8167   */\n      dup2\n        /* \"#utility.yul\":8155:8168   */\n      mload\n        /* \"#utility.yul\":8146:8168   */\n      swap1\n      pop\n        /* \"#utility.yul\":8177:8209   */\n      tag_219\n        /* \"#utility.yul\":8203:8208   */\n      dup2\n        /* \"#utility.yul\":8177:8209   */\n      tag_128\n      jump\t// in\n    tag_219:\n        /* \"#utility.yul\":8074:8215   */\n      swap3\n      swap2\n      pop\n      pop\n      jump\t// out\n        /* \"#utility.yul\":8221:8364   */\n    tag_130:\n        /* \"#utility.yul\":8278:8283   */\n      0x00\n        /* \"#utility.yul\":8309:8315   */\n      dup2\n        /* \"#utility.yul\":8303:8316   */\n      mload\n        /* \"#utility.yul\":8294:8316   */\n      swap1\n      pop\n        /* \"#utility.yul\":8325:8358   */\n      tag_221\n        /* \"#utility.yul\":8352:8357   */\n      dup2\n        /* \"#utility.yul\":8325:8358   */\n      tag_112\n      jump\t// in\n    tag_221:\n        /* \"#utility.yul\":8221:8364   */\n      swap3\n      swap2\n      pop\n      pop\n      jump\t// out\n        /* \"#utility.yul\":8370:9341   */\n    tag_98:\n        /* \"#utility.yul\":8473:8479   */\n      0x00\n        /* \"#utility.yul\":8481:8487   */\n      0x00\n        /* \"#utility.yul\":8489:8495   */\n      0x00\n        /* \"#utility.yul\":8497:8503   */\n      0x00\n        /* \"#utility.yul\":8505:8511   */\n      0x00\n        /* \"#utility.yul\":8554:8557   */\n      0xa0\n        /* \"#utility.yul\":8542:8551   */\n      dup7\n        /* \"#utility.yul\":8533:8540   */\n      dup9\n        /* \"#utility.yul\":8529:8552   */\n      sub\n        /* \"#utility.yul\":8525:8558   */\n      slt\n        /* \"#utility.yul\":8522:8642   */\n      iszero\n      tag_223\n      jumpi\n        /* \"#utility.yul\":8561:8640   */\n      tag_224\n      tag_103\n      jump\t// in\n    tag_224:\n        /* \"#utility.yul\":8522:8642   */\n    tag_223:\n        /* \"#utility.yul\":8681:8682   */\n      0x00\n        /* \"#utility.yul\":8706:8769   */\n      tag_225\n        /* \"#utility.yul\":8761:8768   */\n      dup9\n        /* \"#utility.yul\":8752:8758   */\n      dup3\n        /* \"#utility.yul\":8741:8750   */\n      dup10\n        /* \"#utility.yul\":8737:8759   */\n      add\n        /* \"#utility.yul\":8706:8769   */\n      tag_126\n      jump\t// in\n    tag_225:\n        /* \"#utility.yul\":8696:8769   */\n      swap6\n      pop\n        /* \"#utility.yul\":8652:8779   */\n      pop\n        /* \"#utility.yul\":8818:8820   */\n      0x20\n        /* \"#utility.yul\":8844:8907   */\n      tag_226\n        /* \"#utility.yul\":8899:8906   */\n      dup9\n        /* \"#utility.yul\":8890:8896   */\n      dup3\n        /* \"#utility.yul\":8879:8888   */\n      dup10\n        /* \"#utility.yul\":8875:8897   */\n      add\n        /* \"#utility.yul\":8844:8907   */\n      tag_129\n      jump\t// in\n    tag_226:\n        /* \"#utility.yul\":8834:8907   */\n      swap5\n      pop\n        /* \"#utility.yul\":8789:8917   */\n      pop\n        /* \"#utility.yul\":8956:8958   */\n      0x40\n        /* \"#utility.yul\":8982:9046   */\n      tag_227\n        /* \"#utility.yul\":9038:9045   */\n      dup9\n        /* \"#utility.yul\":9029:9035   */\n      dup3\n        /* \"#utility.yul\":9018:9027   */\n      dup10\n        /* \"#utility.yul\":9014:9036   */\n      add\n        /* \"#utility.yul\":8982:9046   */\n      tag_130\n      jump\t// in\n    tag_227:\n        /* \"#utility.yul\":8972:9046   */\n      swap4\n      pop\n        /* \"#utility.yul\":8927:9056   */\n      pop\n        /* \"#utility.yul\":9095:9097   */\n      0x60\n        /* \"#utility.yul\":9121:9185   */\n      tag_228\n        /* \"#utility.yul\":9177:9184   */\n      dup9\n        /* \"#utility.yul\":9168:9174   */\n      dup3\n        /* \"#utility.yul\":9157:9166   */\n      dup10\n        /* \"#utility.yul\":9153:9175   */\n      add\n        /* \"#utility.yul\":9121:9185   */\n      tag_130\n      jump\t// in\n    tag_228:\n        /* \"#utility.yul\":9111:9185   */\n      swap3\n      pop\n        /* \"#utility.yul\":9066:9195   */\n      pop\n        /* \"#utility.yul\":9234:9237   */\n      0x80\n        /* \"#utility.yul\":9261:9324   */\n      tag_229\n        /* \"#utility.yul\":9316:9323   */\n      dup9\n        /* \"#utility.yul\":9307:9313   */\n      dup3\n        /* \"#utility.yul\":9296:9305   */\n      dup10\n        /* \"#utility.yul\":9292:9314   */\n      add\n        /* \"#utility.yul\":9261:9324   */\n      tag_126\n      jump\t// in\n    tag_229:\n        /* \"#utility.yul\":9251:9324   */\n      swap2\n      pop\n        /* \"#utility.yul\":9205:9334   */\n      pop\n        /* \"#utility.yul\":8370:9341   */\n      swap3\n      swap6\n      pop\n      swap3\n      swap6\n      swap1\n      swap4\n      pop\n      jump\t// out\n\n    auxdata: 0xa2646970667358221220dc24ef4845d7553426b64af1e0d2ed2f9a21dfe77a2565637548159c6ef0a87664736f6c634300081c0033\n}\n",
				"bytecode": {
					"linkReferences": {},
					"object": "60a0604052674563918244f400005f553480156019575f5ffd5b503373ffffffffffffffffffffffffffffffffffffffff1660808173ffffffffffffffffffffffffffffffffffffffff1681525050608051610c6161007b5f395f8181610435015281816104a40152818161056b015261061f0152610c615ff3fe608060405260043610610089575f3560e01c8063b60d428811610058578063b60d428814610148578063cce8c26a14610152578063cf718fdc1461017c578063dba6335f146101b8578063dc0d3dff146101e257610098565b806312065fe0146100a25780633ccfd60b146100cc5780634407e1e8146100e25780635deb01721461011e57610098565b366100985761009661021e565b005b6100a061021e565b005b3480156100ad575f5ffd5b506100b6610415565b6040516100c39190610771565b60405180910390f35b3480156100d7575f5ffd5b506100e061041c565b005b3480156100ed575f5ffd5b50610108600480360381019061010391906107e8565b6105da565b6040516101159190610771565b60405180910390f35b348015610129575f5ffd5b506101326105ef565b60405161013f9190610771565b60405180910390f35b61015061021e565b005b34801561015d575f5ffd5b506101666105f4565b6040516101739190610771565b60405180910390f35b348015610187575f5ffd5b506101a2600480360381019061019d91906107e8565b610600565b6040516101af919061082d565b60405180910390f35b3480156101c3575f5ffd5b506101cc61061d565b6040516101d99190610855565b60405180910390f35b3480156101ed575f5ffd5b5061020860048036038101906102039190610898565b610641565b6040516102159190610855565b60405180910390f35b5f546102293461067c565b101561026a576040517f08c379a000000000000000000000000000000000000000000000000000000000815260040161026190610969565b60405180910390fd5b3460025f3373ffffffffffffffffffffffffffffffffffffffff1673ffffffffffffffffffffffffffffffffffffffff1681526020019081526020015f205f8282546102b691906109b4565b925050819055505f60015f3373ffffffffffffffffffffffffffffffffffffffff1673ffffffffffffffffffffffffffffffffffffffff1681526020019081526020015f205f9054906101000a900460ff169050806103c457600333908060018154018082558091505060019003905f5260205f20015f9091909190916101000a81548173ffffffffffffffffffffffffffffffffffffffff021916908373ffffffffffffffffffffffffffffffffffffffff1602179055506001805f3373ffffffffffffffffffffffffffffffffffffffff1673ffffffffffffffffffffffffffffffffffffffff1681526020019081526020015f205f6101000a81548160ff0219169083151502179055505b3373ffffffffffffffffffffffffffffffffffffffff167f5af8184bef8e4b45eb9f6ed7734d04da38ced226495548f46e0c8ff8d7d9a5243460405161040a9190610771565b60405180910390a250565b5f47905090565b3373ffffffffffffffffffffffffffffffffffffffff167f000000000000000000000000000000000000000000000000000000000000000073ffffffffffffffffffffffffffffffffffffffff16146104a1576040517f6d70620500000000000000000000000000000000000000000000000000000000815260040160405180910390fd5b5f7f000000000000000000000000000000000000000000000000000000000000000073ffffffffffffffffffffffffffffffffffffffff16476040516104e690610a14565b5f6040518083038185875af1925050503d805f8114610520576040519150601f19603f3d011682016040523d82523d5f602084013e610525565b606091505b5050905080610569576040517f08c379a000000000000000000000000000000000000000000000000000000000815260040161056090610a72565b60405180910390fd5b7f000000000000000000000000000000000000000000000000000000000000000073ffffffffffffffffffffffffffffffffffffffff167f884edad9ce6fa2440d8a54cc123490eb96d2768479d49ff9c7366125a9424364476040516105cf9190610771565b60405180910390a250565b6002602052805f5260405f205f915090505481565b5f5481565b5f600380549050905090565b6001602052805f5260405f205f915054906101000a900460ff1681565b7f000000000000000000000000000000000000000000000000000000000000000081565b60038181548110610650575f80fd5b905f5260205f20015f915054906101000a900473ffffffffffffffffffffffffffffffffffffffff1681565b5f5f6106866106b4565b90505f670de0b6b3a7640000848361069e9190610a90565b6106a89190610afe565b90508092505050919050565b5f5f73694aa1769357215de4fac081bf1f309adc32530690505f8173ffffffffffffffffffffffffffffffffffffffff1663feaf968c6040518163ffffffff1660e01b815260040160a060405180830381865afa158015610717573d5f5f3e3d5ffd5b505050506040513d601f19601f8201168201806040525081019061073b9190610bb4565b5050509150506402540be400816107529190610a90565b9250505090565b5f819050919050565b61076b81610759565b82525050565b5f6020820190506107845f830184610762565b92915050565b5f5ffd5b5f73ffffffffffffffffffffffffffffffffffffffff82169050919050565b5f6107b78261078e565b9050919050565b6107c7816107ad565b81146107d1575f5ffd5b50565b5f813590506107e2816107be565b92915050565b5f602082840312156107fd576107fc61078a565b5b5f61080a848285016107d4565b91505092915050565b5f8115159050919050565b61082781610813565b82525050565b5f6020820190506108405f83018461081e565b92915050565b61084f816107ad565b82525050565b5f6020820190506108685f830184610846565b92915050565b61087781610759565b8114610881575f5ffd5b50565b5f813590506108928161086e565b92915050565b5f602082840312156108ad576108ac61078a565b5b5f6108ba84828501610884565b91505092915050565b5f82825260208201905092915050565b7f596f757220616d6f756e7420697320696e73756666696369656e742c206174205f8201527f6c6561737420302e303031206574686572206f6e6365207472616e736163746960208201527f6f6e000000000000000000000000000000000000000000000000000000000000604082015250565b5f6109536042836108c3565b915061095e826108d3565b606082019050919050565b5f6020820190508181035f83015261098081610947565b9050919050565b7f4e487b71000000000000000000000000000000000000000000000000000000005f52601160045260245ffd5b5f6109be82610759565b91506109c983610759565b92508282019050808211156109e1576109e0610987565b5b92915050565b5f81905092915050565b50565b5f6109ff5f836109e7565b9150610a0a826109f1565b5f82019050919050565b5f610a1e826109f4565b9150819050919050565b7f4661696c656420746f20776974686472617720457468657273000000000000005f82015250565b5f610a5c6019836108c3565b9150610a6782610a28565b602082019050919050565b5f6020820190508181035f830152610a8981610a50565b9050919050565b5f610a9a82610759565b9150610aa583610759565b9250828202610ab381610759565b91508282048414831517610aca57610ac9610987565b5b5092915050565b7f4e487b71000000000000000000000000000000000000000000000000000000005f52601260045260245ffd5b5f610b0882610759565b9150610b1383610759565b925082610b2357610b22610ad1565b5b828204905092915050565b5f69ffffffffffffffffffff82169050919050565b610b4c81610b2e565b8114610b56575f5ffd5b50565b5f81519050610b6781610b43565b92915050565b5f819050919050565b610b7f81610b6d565b8114610b89575f5ffd5b50565b5f81519050610b9a81610b76565b92915050565b5f81519050610bae8161086e565b92915050565b5f5f5f5f5f60a08688031215610bcd57610bcc61078a565b5b5f610bda88828901610b59565b9550506020610beb88828901610b8c565b9450506040610bfc88828901610ba0565b9350506060610c0d88828901610ba0565b9250506080610c1e88828901610b59565b915050929550929590935056fea2646970667358221220dc24ef4845d7553426b64af1e0d2ed2f9a21dfe77a2565637548159c6ef0a87664736f6c634300081c0033",
					"opcodes": "PUSH1 0xA0 PUSH1 0x40 MSTORE PUSH8 0x4563918244F40000 PUSH0 SSTORE CALLVALUE DUP1 ISZERO PUSH1 0x19 JUMPI PUSH0 PUSH0 REVERT JUMPDEST POP CALLER PUSH20 0xFFFFFFFFFFFFFFFFFFFFFFFFFFFFFFFFFFFFFFFF AND PUSH1 0x80 DUP2 PUSH20 0xFFFFFFFFFFFFFFFFFFFFFFFFFFFFFFFFFFFFFFFF AND DUP2 MSTORE POP POP PUSH1 0x80 MLOAD PUSH2 0xC61 PUSH2 0x7B PUSH0 CODECOPY PUSH0 DUP2 DUP2 PUSH2 0x435 ADD MSTORE DUP2 DUP2 PUSH2 0x4A4 ADD MSTORE DUP2 DUP2 PUSH2 0x56B ADD MSTORE PUSH2 0x61F ADD MSTORE PUSH2 0xC61 PUSH0 RETURN INVALID PUSH1 0x80 PUSH1 0x40 MSTORE PUSH1 0x4 CALLDATASIZE LT PUSH2 0x89 JUMPI PUSH0 CALLDATALOAD PUSH1 0xE0 SHR DUP1 PUSH4 0xB60D4288 GT PUSH2 0x58 JUMPI DUP1 PUSH4 0xB60D4288 EQ PUSH2 0x148 JUMPI DUP1 PUSH4 0xCCE8C26A EQ PUSH2 0x152 JUMPI DUP1 PUSH4 0xCF718FDC EQ PUSH2 0x17C JUMPI DUP1 PUSH4 0xDBA6335F EQ PUSH2 0x1B8 JUMPI DUP1 PUSH4 0xDC0D3DFF EQ PUSH2 0x1E2 JUMPI PUSH2 0x98 JUMP JUMPDEST DUP1 PUSH4 0x12065FE0 EQ PUSH2 0xA2 JUMPI DUP1 PUSH4 0x3CCFD60B EQ PUSH2 0xCC JUMPI DUP1 PUSH4 0x4407E1E8 EQ PUSH2 0xE2 JUMPI DUP1 PUSH4 0x5DEB0172 EQ PUSH2 0x11E JUMPI PUSH2 0x98 JUMP JUMPDEST CALLDATASIZE PUSH2 0x98 JUMPI PUSH2 0x96 PUSH2 0x21E JUMP JUMPDEST STOP JUMPDEST PUSH2 0xA0 PUSH2 0x21E JUMP JUMPDEST STOP JUMPDEST CALLVALUE DUP1 ISZERO PUSH2 0xAD JUMPI PUSH0 PUSH0 REVERT JUMPDEST POP PUSH2 0xB6 PUSH2 0x415 JUMP JUMPDEST PUSH1 0x40 MLOAD PUSH2 0xC3 SWAP2 SWAP1 PUSH2 0x771 JUMP JUMPDEST PUSH1 0x40 MLOAD DUP1 SWAP2 SUB SWAP1 RETURN JUMPDEST CALLVALUE DUP1 ISZERO PUSH2 0xD7 JUMPI PUSH0 PUSH0 REVERT JUMPDEST POP PUSH2 0xE0 PUSH2 0x41C JUMP JUMPDEST STOP JUMPDEST CALLVALUE DUP1 ISZERO PUSH2 0xED JUMPI PUSH0 PUSH0 REVERT JUMPDEST POP PUSH2 0x108 PUSH1 0x4 DUP1 CALLDATASIZE SUB DUP2 ADD SWAP1 PUSH2 0x103 SWAP2 SWAP1 PUSH2 0x7E8 JUMP JUMPDEST PUSH2 0x5DA JUMP JUMPDEST PUSH1 0x40 MLOAD PUSH2 0x115 SWAP2 SWAP1 PUSH2 0x771 JUMP JUMPDEST PUSH1 0x40 MLOAD DUP1 SWAP2 SUB SWAP1 RETURN JUMPDEST CALLVALUE DUP1 ISZERO PUSH2 0x129 JUMPI PUSH0 PUSH0 REVERT JUMPDEST POP PUSH2 0x132 PUSH2 0x5EF JUMP JUMPDEST PUSH1 0x40 MLOAD PUSH2 0x13F SWAP2 SWAP1 PUSH2 0x771 JUMP JUMPDEST PUSH1 0x40 MLOAD DUP1 SWAP2 SUB SWAP1 RETURN JUMPDEST PUSH2 0x150 PUSH2 0x21E JUMP JUMPDEST STOP JUMPDEST CALLVALUE DUP1 ISZERO PUSH2 0x15D JUMPI PUSH0 PUSH0 REVERT JUMPDEST POP PUSH2 0x166 PUSH2 0x5F4 JUMP JUMPDEST PUSH1 0x40 MLOAD PUSH2 0x173 SWAP2 SWAP1 PUSH2 0x771 JUMP JUMPDEST PUSH1 0x40 MLOAD DUP1 SWAP2 SUB SWAP1 RETURN JUMPDEST CALLVALUE DUP1 ISZERO PUSH2 0x187 JUMPI PUSH0 PUSH0 REVERT JUMPDEST POP PUSH2 0x1A2 PUSH1 0x4 DUP1 CALLDATASIZE SUB DUP2 ADD SWAP1 PUSH2 0x19D SWAP2 SWAP1 PUSH2 0x7E8 JUMP JUMPDEST PUSH2 0x600 JUMP JUMPDEST PUSH1 0x40 MLOAD PUSH2 0x1AF SWAP2 SWAP1 PUSH2 0x82D JUMP JUMPDEST PUSH1 0x40 MLOAD DUP1 SWAP2 SUB SWAP1 RETURN JUMPDEST CALLVALUE DUP1 ISZERO PUSH2 0x1C3 JUMPI PUSH0 PUSH0 REVERT JUMPDEST POP PUSH2 0x1CC PUSH2 0x61D JUMP JUMPDEST PUSH1 0x40 MLOAD PUSH2 0x1D9 SWAP2 SWAP1 PUSH2 0x855 JUMP JUMPDEST PUSH1 0x40 MLOAD DUP1 SWAP2 SUB SWAP1 RETURN JUMPDEST CALLVALUE DUP1 ISZERO PUSH2 0x1ED JUMPI PUSH0 PUSH0 REVERT JUMPDEST POP PUSH2 0x208 PUSH1 0x4 DUP1 CALLDATASIZE SUB DUP2 ADD SWAP1 PUSH2 0x203 SWAP2 SWAP1 PUSH2 0x898 JUMP JUMPDEST PUSH2 0x641 JUMP JUMPDEST PUSH1 0x40 MLOAD PUSH2 0x215 SWAP2 SWAP1 PUSH2 0x855 JUMP JUMPDEST PUSH1 0x40 MLOAD DUP1 SWAP2 SUB SWAP1 RETURN JUMPDEST PUSH0 SLOAD PUSH2 0x229 CALLVALUE PUSH2 0x67C JUMP JUMPDEST LT ISZERO PUSH2 0x26A JUMPI PUSH1 0x40 MLOAD PUSH32 0x8C379A000000000000000000000000000000000000000000000000000000000 DUP2 MSTORE PUSH1 0x4 ADD PUSH2 0x261 SWAP1 PUSH2 0x969 JUMP JUMPDEST PUSH1 0x40 MLOAD DUP1 SWAP2 SUB SWAP1 REVERT JUMPDEST CALLVALUE PUSH1 0x2 PUSH0 CALLER PUSH20 0xFFFFFFFFFFFFFFFFFFFFFFFFFFFFFFFFFFFFFFFF AND PUSH20 0xFFFFFFFFFFFFFFFFFFFFFFFFFFFFFFFFFFFFFFFF AND DUP2 MSTORE PUSH1 0x20 ADD SWAP1 DUP2 MSTORE PUSH1 0x20 ADD PUSH0 KECCAK256 PUSH0 DUP3 DUP3 SLOAD PUSH2 0x2B6 SWAP2 SWAP1 PUSH2 0x9B4 JUMP JUMPDEST SWAP3 POP POP DUP2 SWAP1 SSTORE POP PUSH0 PUSH1 0x1 PUSH0 CALLER PUSH20 0xFFFFFFFFFFFFFFFFFFFFFFFFFFFFFFFFFFFFFFFF AND PUSH20 0xFFFFFFFFFFFFFFFFFFFFFFFFFFFFFFFFFFFFFFFF AND DUP2 MSTORE PUSH1 0x20 ADD SWAP1 DUP2 MSTORE PUSH1 0x20 ADD PUSH0 KECCAK256 PUSH0 SWAP1 SLOAD SWAP1 PUSH2 0x100 EXP SWAP1 DIV PUSH1 0xFF AND SWAP1 POP DUP1 PUSH2 0x3C4 JUMPI PUSH1 0x3 CALLER SWAP1 DUP1 PUSH1 0x1 DUP2 SLOAD ADD DUP1 DUP3 SSTORE DUP1 SWAP2 POP POP PUSH1 0x1 SWAP1 SUB SWAP1 PUSH0 MSTORE PUSH1 0x20 PUSH0 KECCAK256 ADD PUSH0 SWAP1 SWAP2 SWAP1 SWAP2 SWAP1 SWAP2 PUSH2 0x100 EXP DUP2 SLOAD DUP2 PUSH20 0xFFFFFFFFFFFFFFFFFFFFFFFFFFFFFFFFFFFFFFFF MUL NOT AND SWAP1 DUP4 PUSH20 0xFFFFFFFFFFFFFFFFFFFFFFFFFFFFFFFFFFFFFFFF AND MUL OR SWAP1 SSTORE POP PUSH1 0x1 DUP1 PUSH0 CALLER PUSH20 0xFFFFFFFFFFFFFFFFFFFFFFFFFFFFFFFFFFFFFFFF AND PUSH20 0xFFFFFFFFFFFFFFFFFFFFFFFFFFFFFFFFFFFFFFFF AND DUP2 MSTORE PUSH1 0x20 ADD SWAP1 DUP2 MSTORE PUSH1 0x20 ADD PUSH0 KECCAK256 PUSH0 PUSH2 0x100 EXP DUP2 SLOAD DUP2 PUSH1 0xFF MUL NOT AND SWAP1 DUP4 ISZERO ISZERO MUL OR SWAP1 SSTORE POP JUMPDEST CALLER PUSH20 0xFFFFFFFFFFFFFFFFFFFFFFFFFFFFFFFFFFFFFFFF AND PUSH32 0x5AF8184BEF8E4B45EB9F6ED7734D04DA38CED226495548F46E0C8FF8D7D9A524 CALLVALUE PUSH1 0x40 MLOAD PUSH2 0x40A SWAP2 SWAP1 PUSH2 0x771 JUMP JUMPDEST PUSH1 0x40 MLOAD DUP1 SWAP2 SUB SWAP1 LOG2 POP JUMP JUMPDEST PUSH0 SELFBALANCE SWAP1 POP SWAP1 JUMP JUMPDEST CALLER PUSH20 0xFFFFFFFFFFFFFFFFFFFFFFFFFFFFFFFFFFFFFFFF AND PUSH32 0x0 PUSH20 0xFFFFFFFFFFFFFFFFFFFFFFFFFFFFFFFFFFFFFFFF AND EQ PUSH2 0x4A1 JUMPI PUSH1 0x40 MLOAD PUSH32 0x6D70620500000000000000000000000000000000000000000000000000000000 DUP2 MSTORE PUSH1 0x4 ADD PUSH1 0x40 MLOAD DUP1 SWAP2 SUB SWAP1 REVERT JUMPDEST PUSH0 PUSH32 0x0 PUSH20 0xFFFFFFFFFFFFFFFFFFFFFFFFFFFFFFFFFFFFFFFF AND SELFBALANCE PUSH1 0x40 MLOAD PUSH2 0x4E6 SWAP1 PUSH2 0xA14 JUMP JUMPDEST PUSH0 PUSH1 0x40 MLOAD DUP1 DUP4 SUB DUP2 DUP6 DUP8 GAS CALL SWAP3 POP POP POP RETURNDATASIZE DUP1 PUSH0 DUP2 EQ PUSH2 0x520 JUMPI PUSH1 0x40 MLOAD SWAP2 POP PUSH1 0x1F NOT PUSH1 0x3F RETURNDATASIZE ADD AND DUP3 ADD PUSH1 0x40 MSTORE RETURNDATASIZE DUP3 MSTORE RETURNDATASIZE PUSH0 PUSH1 0x20 DUP5 ADD RETURNDATACOPY PUSH2 0x525 JUMP JUMPDEST PUSH1 0x60 SWAP2 POP JUMPDEST POP POP SWAP1 POP DUP1 PUSH2 0x569 JUMPI PUSH1 0x40 MLOAD PUSH32 0x8C379A000000000000000000000000000000000000000000000000000000000 DUP2 MSTORE PUSH1 0x4 ADD PUSH2 0x560 SWAP1 PUSH2 0xA72 JUMP JUMPDEST PUSH1 0x40 MLOAD DUP1 SWAP2 SUB SWAP1 REVERT JUMPDEST PUSH32 0x0 PUSH20 0xFFFFFFFFFFFFFFFFFFFFFFFFFFFFFFFFFFFFFFFF AND PUSH32 0x884EDAD9CE6FA2440D8A54CC123490EB96D2768479D49FF9C7366125A9424364 SELFBALANCE PUSH1 0x40 MLOAD PUSH2 0x5CF SWAP2 SWAP1 PUSH2 0x771 JUMP JUMPDEST PUSH1 0x40 MLOAD DUP1 SWAP2 SUB SWAP1 LOG2 POP JUMP JUMPDEST PUSH1 0x2 PUSH1 0x20 MSTORE DUP1 PUSH0 MSTORE PUSH1 0x40 PUSH0 KECCAK256 PUSH0 SWAP2 POP SWAP1 POP SLOAD DUP2 JUMP JUMPDEST PUSH0 SLOAD DUP2 JUMP JUMPDEST PUSH0 PUSH1 0x3 DUP1 SLOAD SWAP1 POP SWAP1 POP SWAP1 JUMP JUMPDEST PUSH1 0x1 PUSH1 0x20 MSTORE DUP1 PUSH0 MSTORE PUSH1 0x40 PUSH0 KECCAK256 PUSH0 SWAP2 POP SLOAD SWAP1 PUSH2 0x100 EXP SWAP1 DIV PUSH1 0xFF AND DUP2 JUMP JUMPDEST PUSH32 0x0 DUP2 JUMP JUMPDEST PUSH1 0x3 DUP2 DUP2 SLOAD DUP2 LT PUSH2 0x650 JUMPI PUSH0 DUP1 REVERT JUMPDEST SWAP1 PUSH0 MSTORE PUSH1 0x20 PUSH0 KECCAK256 ADD PUSH0 SWAP2 POP SLOAD SWAP1 PUSH2 0x100 EXP SWAP1 DIV PUSH20 0xFFFFFFFFFFFFFFFFFFFFFFFFFFFFFFFFFFFFFFFF AND DUP2 JUMP JUMPDEST PUSH0 PUSH0 PUSH2 0x686 PUSH2 0x6B4 JUMP JUMPDEST SWAP1 POP PUSH0 PUSH8 0xDE0B6B3A7640000 DUP5 DUP4 PUSH2 0x69E SWAP2 SWAP1 PUSH2 0xA90 JUMP JUMPDEST PUSH2 0x6A8 SWAP2 SWAP1 PUSH2 0xAFE JUMP JUMPDEST SWAP1 POP DUP1 SWAP3 POP POP POP SWAP2 SWAP1 POP JUMP JUMPDEST PUSH0 PUSH0 PUSH20 0x694AA1769357215DE4FAC081BF1F309ADC325306 SWAP1 POP PUSH0 DUP2 PUSH20 0xFFFFFFFFFFFFFFFFFFFFFFFFFFFFFFFFFFFFFFFF AND PUSH4 0xFEAF968C PUSH1 0x40 MLOAD DUP2 PUSH4 0xFFFFFFFF AND PUSH1 0xE0 SHL DUP2 MSTORE PUSH1 0x4 ADD PUSH1 0xA0 PUSH1 0x40 MLOAD DUP1 DUP4 SUB DUP2 DUP7 GAS STATICCALL ISZERO DUP1 ISZERO PUSH2 0x717 JUMPI RETURNDATASIZE PUSH0 PUSH0 RETURNDATACOPY RETURNDATASIZE PUSH0 REVERT JUMPDEST POP POP POP POP PUSH1 0x40 MLOAD RETURNDATASIZE PUSH1 0x1F NOT PUSH1 0x1F DUP3 ADD AND DUP3 ADD DUP1 PUSH1 0x40 MSTORE POP DUP2 ADD SWAP1 PUSH2 0x73B SWAP2 SWAP1 PUSH2 0xBB4 JUMP JUMPDEST POP POP POP SWAP2 POP POP PUSH5 0x2540BE400 DUP2 PUSH2 0x752 SWAP2 SWAP1 PUSH2 0xA90 JUMP JUMPDEST SWAP3 POP POP POP SWAP1 JUMP JUMPDEST PUSH0 DUP2 SWAP1 POP SWAP2 SWAP1 POP JUMP JUMPDEST PUSH2 0x76B DUP2 PUSH2 0x759 JUMP JUMPDEST DUP3 MSTORE POP POP JUMP JUMPDEST PUSH0 PUSH1 0x20 DUP3 ADD SWAP1 POP PUSH2 0x784 PUSH0 DUP4 ADD DUP5 PUSH2 0x762 JUMP JUMPDEST SWAP3 SWAP2 POP POP JUMP JUMPDEST PUSH0 PUSH0 REVERT JUMPDEST PUSH0 PUSH20 0xFFFFFFFFFFFFFFFFFFFFFFFFFFFFFFFFFFFFFFFF DUP3 AND SWAP1 POP SWAP2 SWAP1 POP JUMP JUMPDEST PUSH0 PUSH2 0x7B7 DUP3 PUSH2 0x78E JUMP JUMPDEST SWAP1 POP SWAP2 SWAP1 POP JUMP JUMPDEST PUSH2 0x7C7 DUP2 PUSH2 0x7AD JUMP JUMPDEST DUP2 EQ PUSH2 0x7D1 JUMPI PUSH0 PUSH0 REVERT JUMPDEST POP JUMP JUMPDEST PUSH0 DUP2 CALLDATALOAD SWAP1 POP PUSH2 0x7E2 DUP2 PUSH2 0x7BE JUMP JUMPDEST SWAP3 SWAP2 POP POP JUMP JUMPDEST PUSH0 PUSH1 0x20 DUP3 DUP5 SUB SLT ISZERO PUSH2 0x7FD JUMPI PUSH2 0x7FC PUSH2 0x78A JUMP JUMPDEST JUMPDEST PUSH0 PUSH2 0x80A DUP5 DUP3 DUP6 ADD PUSH2 0x7D4 JUMP JUMPDEST SWAP2 POP POP SWAP3 SWAP2 POP POP JUMP JUMPDEST PUSH0 DUP2 ISZERO ISZERO SWAP1 POP SWAP2 SWAP1 POP JUMP JUMPDEST PUSH2 0x827 DUP2 PUSH2 0x813 JUMP JUMPDEST DUP3 MSTORE POP POP JUMP JUMPDEST PUSH0 PUSH1 0x20 DUP3 ADD SWAP1 POP PUSH2 0x840 PUSH0 DUP4 ADD DUP5 PUSH2 0x81E JUMP JUMPDEST SWAP3 SWAP2 POP POP JUMP JUMPDEST PUSH2 0x84F DUP2 PUSH2 0x7AD JUMP JUMPDEST DUP3 MSTORE POP POP JUMP JUMPDEST PUSH0 PUSH1 0x20 DUP3 ADD SWAP1 POP PUSH2 0x868 PUSH0 DUP4 ADD DUP5 PUSH2 0x846 JUMP JUMPDEST SWAP3 SWAP2 POP POP JUMP JUMPDEST PUSH2 0x877 DUP2 PUSH2 0x759 JUMP JUMPDEST DUP2 EQ PUSH2 0x881 JUMPI PUSH0 PUSH0 REVERT JUMPDEST POP JUMP JUMPDEST PUSH0 DUP2 CALLDATALOAD SWAP1 POP PUSH2 0x892 DUP2 PUSH2 0x86E JUMP JUMPDEST SWAP3 SWAP2 POP POP JUMP JUMPDEST PUSH0 PUSH1 0x20 DUP3 DUP5 SUB SLT ISZERO PUSH2 0x8AD JUMPI PUSH2 0x8AC PUSH2 0x78A JUMP JUMPDEST JUMPDEST PUSH0 PUSH2 0x8BA DUP5 DUP3 DUP6 ADD PUSH2 0x884 JUMP JUMPDEST SWAP2 POP POP SWAP3 SWAP2 POP POP JUMP JUMPDEST PUSH0 DUP3 DUP3 MSTORE PUSH1 0x20 DUP3 ADD SWAP1 POP SWAP3 SWAP2 POP POP JUMP JUMPDEST PUSH32 0x596F757220616D6F756E7420697320696E73756666696369656E742C20617420 PUSH0 DUP3 ADD MSTORE PUSH32 0x6C6561737420302E303031206574686572206F6E6365207472616E7361637469 PUSH1 0x20 DUP3 ADD MSTORE PUSH32 0x6F6E000000000000000000000000000000000000000000000000000000000000 PUSH1 0x40 DUP3 ADD MSTORE POP JUMP JUMPDEST PUSH0 PUSH2 0x953 PUSH1 0x42 DUP4 PUSH2 0x8C3 JUMP JUMPDEST SWAP2 POP PUSH2 0x95E DUP3 PUSH2 0x8D3 JUMP JUMPDEST PUSH1 0x60 DUP3 ADD SWAP1 POP SWAP2 SWAP1 POP JUMP JUMPDEST PUSH0 PUSH1 0x20 DUP3 ADD SWAP1 POP DUP2 DUP2 SUB PUSH0 DUP4 ADD MSTORE PUSH2 0x980 DUP2 PUSH2 0x947 JUMP JUMPDEST SWAP1 POP SWAP2 SWAP1 POP JUMP JUMPDEST PUSH32 0x4E487B7100000000000000000000000000000000000000000000000000000000 PUSH0 MSTORE PUSH1 0x11 PUSH1 0x4 MSTORE PUSH1 0x24 PUSH0 REVERT JUMPDEST PUSH0 PUSH2 0x9BE DUP3 PUSH2 0x759 JUMP JUMPDEST SWAP2 POP PUSH2 0x9C9 DUP4 PUSH2 0x759 JUMP JUMPDEST SWAP3 POP DUP3 DUP3 ADD SWAP1 POP DUP1 DUP3 GT ISZERO PUSH2 0x9E1 JUMPI PUSH2 0x9E0 PUSH2 0x987 JUMP JUMPDEST JUMPDEST SWAP3 SWAP2 POP POP JUMP JUMPDEST PUSH0 DUP2 SWAP1 POP SWAP3 SWAP2 POP POP JUMP JUMPDEST POP JUMP JUMPDEST PUSH0 PUSH2 0x9FF PUSH0 DUP4 PUSH2 0x9E7 JUMP JUMPDEST SWAP2 POP PUSH2 0xA0A DUP3 PUSH2 0x9F1 JUMP JUMPDEST PUSH0 DUP3 ADD SWAP1 POP SWAP2 SWAP1 POP JUMP JUMPDEST PUSH0 PUSH2 0xA1E DUP3 PUSH2 0x9F4 JUMP JUMPDEST SWAP2 POP DUP2 SWAP1 POP SWAP2 SWAP1 POP JUMP JUMPDEST PUSH32 0x4661696C656420746F2077697468647261772045746865727300000000000000 PUSH0 DUP3 ADD MSTORE POP JUMP JUMPDEST PUSH0 PUSH2 0xA5C PUSH1 0x19 DUP4 PUSH2 0x8C3 JUMP JUMPDEST SWAP2 POP PUSH2 0xA67 DUP3 PUSH2 0xA28 JUMP JUMPDEST PUSH1 0x20 DUP3 ADD SWAP1 POP SWAP2 SWAP1 POP JUMP JUMPDEST PUSH0 PUSH1 0x20 DUP3 ADD SWAP1 POP DUP2 DUP2 SUB PUSH0 DUP4 ADD MSTORE PUSH2 0xA89 DUP2 PUSH2 0xA50 JUMP JUMPDEST SWAP1 POP SWAP2 SWAP1 POP JUMP JUMPDEST PUSH0 PUSH2 0xA9A DUP3 PUSH2 0x759 JUMP JUMPDEST SWAP2 POP PUSH2 0xAA5 DUP4 PUSH2 0x759 JUMP JUMPDEST SWAP3 POP DUP3 DUP3 MUL PUSH2 0xAB3 DUP2 PUSH2 0x759 JUMP JUMPDEST SWAP2 POP DUP3 DUP3 DIV DUP5 EQ DUP4 ISZERO OR PUSH2 0xACA JUMPI PUSH2 0xAC9 PUSH2 0x987 JUMP JUMPDEST JUMPDEST POP SWAP3 SWAP2 POP POP JUMP JUMPDEST PUSH32 0x4E487B7100000000000000000000000000000000000000000000000000000000 PUSH0 MSTORE PUSH1 0x12 PUSH1 0x4 MSTORE PUSH1 0x24 PUSH0 REVERT JUMPDEST PUSH0 PUSH2 0xB08 DUP3 PUSH2 0x759 JUMP JUMPDEST SWAP2 POP PUSH2 0xB13 DUP4 PUSH2 0x759 JUMP JUMPDEST SWAP3 POP DUP3 PUSH2 0xB23 JUMPI PUSH2 0xB22 PUSH2 0xAD1 JUMP JUMPDEST JUMPDEST DUP3 DUP3 DIV SWAP1 POP SWAP3 SWAP2 POP POP JUMP JUMPDEST PUSH0 PUSH10 0xFFFFFFFFFFFFFFFFFFFF DUP3 AND SWAP1 POP SWAP2 SWAP1 POP JUMP JUMPDEST PUSH2 0xB4C DUP2 PUSH2 0xB2E JUMP JUMPDEST DUP2 EQ PUSH2 0xB56 JUMPI PUSH0 PUSH0 REVERT JUMPDEST POP JUMP JUMPDEST PUSH0 DUP2 MLOAD SWAP1 POP PUSH2 0xB67 DUP2 PUSH2 0xB43 JUMP JUMPDEST SWAP3 SWAP2 POP POP JUMP JUMPDEST PUSH0 DUP2 SWAP1 POP SWAP2 SWAP1 POP JUMP JUMPDEST PUSH2 0xB7F DUP2 PUSH2 0xB6D JUMP JUMPDEST DUP2 EQ PUSH2 0xB89 JUMPI PUSH0 PUSH0 REVERT JUMPDEST POP JUMP JUMPDEST PUSH0 DUP2 MLOAD SWAP1 POP PUSH2 0xB9A DUP2 PUSH2 0xB76 JUMP JUMPDEST SWAP3 SWAP2 POP POP JUMP JUMPDEST PUSH0 DUP2 MLOAD SWAP1 POP PUSH2 0xBAE DUP2 PUSH2 0x86E JUMP JUMPDEST SWAP3 SWAP2 POP POP JUMP JUMPDEST PUSH0 PUSH0 PUSH0 PUSH0 PUSH0 PUSH1 0xA0 DUP7 DUP9 SUB SLT ISZERO PUSH2 0xBCD JUMPI PUSH2 0xBCC PUSH2 0x78A JUMP JUMPDEST JUMPDEST PUSH0 PUSH2 0xBDA DUP9 DUP3 DUP10 ADD PUSH2 0xB59 JUMP JUMPDEST SWAP6 POP POP PUSH1 0x20 PUSH2 0xBEB DUP9 DUP3 DUP10 ADD PUSH2 0xB8C JUMP JUMPDEST SWAP5 POP POP PUSH1 0x40 PUSH2 0xBFC DUP9 DUP3 DUP10 ADD PUSH2 0xBA0 JUMP JUMPDEST SWAP4 POP POP PUSH1 0x60 PUSH2 0xC0D DUP9 DUP3 DUP10 ADD PUSH2 0xBA0 JUMP JUMPDEST SWAP3 POP POP PUSH1 0x80 PUSH2 0xC1E DUP9 DUP3 DUP10 ADD PUSH2 0xB59 JUMP JUMPDEST SWAP2 POP POP SWAP3 SWAP6 POP SWAP3 SWAP6 SWAP1 SWAP4 POP JUMP INVALID LOG2 PUSH5 0x6970667358 0x22 SLT KECCAK256 0xDC 0x24 0xEF BASEFEE GASLIMIT 0xD7 SSTORE CALLVALUE 0x26 0xB6 BLOBBASEFEE CALL 0xE0 0xD2 0xED 0x2F SWAP11 0x21 0xDF 0xE7 PUSH27 0x2565637548159C6EF0A87664736F6C634300081C00330000000000 "
				},
				"gasEstimates": {
					"creation": {
						"codeDepositCost": "633800",
						"executionCost": "infinite",
						"totalCost": "infinite"
					},
					"external": {
						"": "infinite",
						"MINIMUM_FUND()": "2491",
						"fund()": "infinite",
						"funderToAmount(address)": "2847",
						"funders(uint256)": "5032",
						"getBalance()": "335",
						"getNumberOfFunders()": "2462",
						"i_owner()": "infinite",
						"isFunders(address)": "2877",
						"withdraw()": "infinite"
					}
				},
				"methodIdentifiers": {
					"MINIMUM_FUND()": "5deb0172",
					"fund()": "b60d4288",
					"funderToAmount(address)": "4407e1e8",
					"funders(uint256)": "dc0d3dff",
					"getBalance()": "12065fe0",
					"getNumberOfFunders()": "cce8c26a",
					"i_owner()": "dba6335f",
					"isFunders(address)": "cf718fdc",
					"withdraw()": "3ccfd60b"
				}
			},
			"storageLayout": {
				"storage": [
					{
						"astId": 57,
						"contract": "CrowdFunding/CrownFunding.sol:CrownFunding",
						"label": "MINIMUM_FUND",
						"offset": 0,
						"slot": "0",
						"type": "t_uint256"
					},
					{
						"astId": 63,
						"contract": "CrowdFunding/CrownFunding.sol:CrownFunding",
						"label": "isFunders",
						"offset": 0,
						"slot": "1",
						"type": "t_mapping(t_address,t_bool)"
					},
					{
						"astId": 67,
						"contract": "CrowdFunding/CrownFunding.sol:CrownFunding",
						"label": "funderToAmount",
						"offset": 0,
						"slot": "2",
						"type": "t_mapping(t_address,t_uint256)"
					},
					{
						"astId": 70,
						"contract": "CrowdFunding/CrownFunding.sol:CrownFunding",
						"label": "funders",
						"offset": 0,
						"slot": "3",
						"type": "t_array(t_address)dyn_storage"
					}
				],
				"types": {
					"t_address": {
						"encoding": "inplace",
						"label": "address",
						"numberOfBytes": "20"
					},
					"t_array(t_address)dyn_storage": {
						"base": "t_address",
						"encoding": "dynamic_array",
						"label": "address[]",
						"numberOfBytes": "32"
					},
					"t_bool": {
						"encoding": "inplace",
						"label": "bool",
						"numberOfBytes": "1"
					},
					"t_mapping(t_address,t_bool)": {
						"encoding": "mapping",
						"key": "t_address",
						"label": "mapping(address => bool)",
						"numberOfBytes": "32",
						"value": "t_bool"
					},
					"t_mapping(t_address,t_uint256)": {
						"encoding": "mapping",
						"key": "t_address",
						"label": "mapping(address => uint256)",
						"numberOfBytes": "32",
						"value": "t_uint256"
					},
					"t_uint256": {
						"encoding": "inplace",
						"label": "uint256",
						"numberOfBytes": "32"
					}
				}
			},
			"userdoc": {
				"kind": "user",
				"methods": {},
				"version": 1
			}
		}
	}
}